{
  "_format": "hh-sol-artifact-1",
  "contractName": "RCCApe",
  "sourceName": "contracts/learnTest/RCCApe.sol",
  "abi": [
    {
      "inputs": [
        {
          "internalType": "string",
          "name": "name_",
          "type": "string"
        },
        {
          "internalType": "string",
          "name": "symbol_",
          "type": "string"
        }
      ],
      "stateMutability": "nonpayable",
      "type": "constructor"
    },
    {
      "inputs": [
        {
          "internalType": "address",
          "name": "receiver",
          "type": "address"
        }
      ],
      "name": "ERC721InvalidReceiver",
      "type": "error"
    },
    {
      "anonymous": false,
      "inputs": [
        {
          "indexed": true,
          "internalType": "address",
          "name": "owner",
          "type": "address"
        },
        {
          "indexed": true,
          "internalType": "address",
          "name": "approved",
          "type": "address"
        },
        {
          "indexed": true,
          "internalType": "uint256",
          "name": "tokenId",
          "type": "uint256"
        }
      ],
      "name": "Approval",
      "type": "event"
    },
    {
      "anonymous": false,
      "inputs": [
        {
          "indexed": true,
          "internalType": "address",
          "name": "owner",
          "type": "address"
        },
        {
          "indexed": true,
          "internalType": "address",
          "name": "operator",
          "type": "address"
        },
        {
          "indexed": false,
          "internalType": "bool",
          "name": "approved",
          "type": "bool"
        }
      ],
      "name": "ApprovalForAll",
      "type": "event"
    },
    {
      "anonymous": false,
      "inputs": [
        {
          "indexed": true,
          "internalType": "address",
          "name": "from",
          "type": "address"
        },
        {
          "indexed": true,
          "internalType": "address",
          "name": "to",
          "type": "address"
        },
        {
          "indexed": true,
          "internalType": "uint256",
          "name": "tokenId",
          "type": "uint256"
        }
      ],
      "name": "Transfer",
      "type": "event"
    },
    {
      "inputs": [],
      "name": "MAX_APES",
      "outputs": [
        {
          "internalType": "uint256",
          "name": "",
          "type": "uint256"
        }
      ],
      "stateMutability": "view",
      "type": "function"
    },
    {
      "inputs": [
        {
          "internalType": "address",
          "name": "to",
          "type": "address"
        },
        {
          "internalType": "uint256",
          "name": "tokenId",
          "type": "uint256"
        }
      ],
      "name": "approve",
      "outputs": [],
      "stateMutability": "nonpayable",
      "type": "function"
    },
    {
      "inputs": [
        {
          "internalType": "address",
          "name": "owner",
          "type": "address"
        }
      ],
      "name": "balanceOf",
      "outputs": [
        {
          "internalType": "uint256",
          "name": "",
          "type": "uint256"
        }
      ],
      "stateMutability": "view",
      "type": "function"
    },
    {
      "inputs": [
        {
          "internalType": "uint256",
          "name": "tokenId",
          "type": "uint256"
        }
      ],
      "name": "getApproved",
      "outputs": [
        {
          "internalType": "address",
          "name": "",
          "type": "address"
        }
      ],
      "stateMutability": "view",
      "type": "function"
    },
    {
      "inputs": [
        {
          "internalType": "address",
          "name": "owner",
          "type": "address"
        },
        {
          "internalType": "address",
          "name": "operator",
          "type": "address"
        }
      ],
      "name": "isApprovedForAll",
      "outputs": [
        {
          "internalType": "bool",
          "name": "",
          "type": "bool"
        }
      ],
      "stateMutability": "view",
      "type": "function"
    },
    {
      "inputs": [
        {
          "internalType": "address",
          "name": "to",
          "type": "address"
        },
        {
          "internalType": "uint256",
          "name": "tokenId",
          "type": "uint256"
        }
      ],
      "name": "mint",
      "outputs": [],
      "stateMutability": "nonpayable",
      "type": "function"
    },
    {
      "inputs": [],
      "name": "name",
      "outputs": [
        {
          "internalType": "string",
          "name": "",
          "type": "string"
        }
      ],
      "stateMutability": "view",
      "type": "function"
    },
    {
      "inputs": [
        {
          "internalType": "uint256",
          "name": "tokenId",
          "type": "uint256"
        }
      ],
      "name": "ownerOf",
      "outputs": [
        {
          "internalType": "address",
          "name": "owner",
          "type": "address"
        }
      ],
      "stateMutability": "view",
      "type": "function"
    },
    {
      "inputs": [
        {
          "internalType": "address",
          "name": "from",
          "type": "address"
        },
        {
          "internalType": "address",
          "name": "to",
          "type": "address"
        },
        {
          "internalType": "uint256",
          "name": "tokenId",
          "type": "uint256"
        }
      ],
      "name": "safeTransferFrom",
      "outputs": [],
      "stateMutability": "nonpayable",
      "type": "function"
    },
    {
      "inputs": [
        {
          "internalType": "address",
          "name": "from",
          "type": "address"
        },
        {
          "internalType": "address",
          "name": "to",
          "type": "address"
        },
        {
          "internalType": "uint256",
          "name": "tokenId",
          "type": "uint256"
        },
        {
          "internalType": "bytes",
          "name": "_data",
          "type": "bytes"
        }
      ],
      "name": "safeTransferFrom",
      "outputs": [],
      "stateMutability": "nonpayable",
      "type": "function"
    },
    {
      "inputs": [
        {
          "internalType": "address",
          "name": "operator",
          "type": "address"
        },
        {
          "internalType": "bool",
          "name": "approved",
          "type": "bool"
        }
      ],
      "name": "setApprovalForAll",
      "outputs": [],
      "stateMutability": "nonpayable",
      "type": "function"
    },
    {
      "inputs": [
        {
          "internalType": "bytes4",
          "name": "interfaceId",
          "type": "bytes4"
        }
      ],
      "name": "supportsInterface",
      "outputs": [
        {
          "internalType": "bool",
          "name": "",
          "type": "bool"
        }
      ],
      "stateMutability": "pure",
      "type": "function"
    },
    {
      "inputs": [],
      "name": "symbol",
      "outputs": [
        {
          "internalType": "string",
          "name": "",
          "type": "string"
        }
      ],
      "stateMutability": "view",
      "type": "function"
    },
    {
      "inputs": [
        {
          "internalType": "uint256",
          "name": "tokenId",
          "type": "uint256"
        }
      ],
      "name": "tokenURI",
      "outputs": [
        {
          "internalType": "string",
          "name": "",
          "type": "string"
        }
      ],
      "stateMutability": "view",
      "type": "function"
    },
    {
      "inputs": [
        {
          "internalType": "address",
          "name": "from",
          "type": "address"
        },
        {
          "internalType": "address",
          "name": "to",
          "type": "address"
        },
        {
          "internalType": "uint256",
          "name": "tokenId",
          "type": "uint256"
        }
      ],
      "name": "transferFrom",
      "outputs": [],
      "stateMutability": "nonpayable",
      "type": "function"
    }
  ],
  "bytecode": "0x6080604052346200031f576200131e803803806200001d8162000324565b9283398101906040818303126200031f5780516001600160401b03908181116200031f57836200004f9184016200034a565b91602093848201518381116200031f576200006b92016200034a565b825190828211620003095760008054926001958685811c95168015620002fe575b88861014620002ea578190601f9586811162000297575b5088908683116001146200023357849262000227575b5050600019600383901b1c191690861b1781555b8151938411620002135784548581811c9116801562000208575b87821014620001f457838111620001ac575b5085928411600114620001475783949550926200013b575b5050600019600383901b1c191690821b1790555b612710600655604051610f619081620003bd8239f35b01519050388062000111565b9190601f1984169585845280842093905b87821062000194575050838596106200017a575b505050811b01905562000125565b015160001960f88460031b161c191690553880806200016c565b80878596829496860151815501950193019062000158565b8582528682208480870160051c820192898810620001ea575b0160051c019086905b828110620001de575050620000f9565b838155018690620001ce565b92508192620001c5565b634e487b7160e01b82526022600452602482fd5b90607f1690620000e7565b634e487b7160e01b81526041600452602490fd5b015190503880620000b9565b8480528985208994509190601f198416865b8c82821062000280575050841162000266575b505050811b018155620000cd565b015160001960f88460031b161c1916905538808062000258565b8385015186558c9790950194938401930162000245565b9091508380528884208680850160051c8201928b8610620002e0575b918a91869594930160051c01915b828110620002d1575050620000a3565b8681558594508a9101620002c1565b92508192620002b3565b634e487b7160e01b83526022600452602483fd5b94607f16946200008c565b634e487b7160e01b600052604160045260246000fd5b600080fd5b6040519190601f01601f191682016001600160401b038111838210176200030957604052565b919080601f840112156200031f5782516001600160401b038111620003095760209062000380601f8201601f1916830162000324565b928184528282870101116200031f5760005b818110620003a857508260009394955001015290565b85810183015184820184015282016200039256fe608060408181526004918236101561001657600080fd5b600092833560e01c91826301ffc9a7146108e85750816306fdde031461083b578163081812fc146107f4578163095ea7b31461070657816323b872dd146106d257816340c10f191461056957816342842e0e1461051c5781636352211e146104eb57816370a082311461047057816395d89b4114610387578163a22cb46514610302578163b88d4fde14610275578163bb8a16bd14610256578163c87b56dd1461011a575063e985e9c5146100ca57600080fd5b3461011657806003193601126101165760ff816020936100e86109d2565b6100f06109ed565b6001600160a01b0391821683526005875283832091168252855220549151911615158152f35b5080fd5b838334610116576020918260031936011261025357833580825260028452828220546001600160a01b03161561021e5782519160608301908382106001600160401b0383111761020b576101d886610207876101f8838989898552603682526101c6838301917f697066733a2f2f516d65536a53696e4870506e6d586d73704d6a776958794e368352757a533445397a63636172694752336a7863615774712f60501b87850152610e24565b9085519889935180928686019061098a565b82016101ec8251809386808501910161098a565b01038087520185610953565b519282849384528301906109ad565b0390f35b634e487b7160e01b815260418752602490fd5b825162461bcd60e51b8152808601859052600f60248201526e151bdad95b88139bdd08115e1a5cdd608a1b6044820152606490fd5b80fd5b5050346101165781600319360112610116576020906006549051908152f35b919050346102fe5760803660031901126102fe576102916109d2565b6102996109ed565b84606435946001600160401b038611610116573660238701121561011657850135946102d06102c787610a38565b95519586610953565b858552366024878301011161011657856102fb96602460209301838801378501015260443591610ccd565b80f35b8280fd5b50503461011657806003193601126101165761031c6109d2565b90602435908115158092036103835733845260056020528084209260018060a01b03169283855260205280842060ff1981541660ff8416179055519081527f17307eab39ab6107e8899845ad3d59bd9653f200f220920489ca2b5937696c3160203392a380f35b8380fd5b8284346102535780600319360112610253578151918160019283549384811c91818616958615610466575b6020968785108114610453578899509688969785829a52918260001461042c5750506001146103ef575b50505061020792916101f8910385610953565b91908693508083528383205b82841061041457505050820101816101f86102076103dc565b8054848a0186015288955087949093019281016103fb565b60ff19168782015293151560051b860190930193508492506101f8915061020790506103dc565b634e487b7160e01b835260228a52602483fd5b92607f16926103b2565b83915034610116576020366003190112610116576001600160a01b036104946109d2565b169081156104b15760208480858581526003845220549051908152f35b606490602085519162461bcd60e51b835282015260146024820152736f776e6572203d207a65726f206164647265737360601b6044820152fd5b828434610253576020366003190112610253575061050b60209235610a95565b90516001600160a01b039091168152f35b8383346101165761052c36610a03565b9183519360208501908582106001600160401b03831117610556576102fb96975052858452610ccd565b634e487b7160e01b875260418852602487fd5b919050346102fe57806003193601126102fe576105846109d2565b9060243592600654841015610699576001600160a01b0392831692831561065f5784865260026020528286205416610626578285526003602052818520805491600183018093116106135750558284526002602052832080546001600160a01b03191682179055827fddf252ad1be2c89b69c2b068fc378daa952ba7f163c4a11628f55a4df523b3ef8180a480f35b634e487b7160e01b875260119052602486fd5b6020606492519162461bcd60e51b835282015260146024820152731d1bdad95b88185b1c9958591e481b5a5b9d195960621b6044820152fd5b506020606492519162461bcd60e51b835282015260146024820152736d696e7420746f207a65726f206164647265737360601b6044820152fd5b6020606492519162461bcd60e51b83528201526014602482015273746f6b656e4964206f7574206f662072616e676560601b6044820152fd5b8334610253576102fb6106e436610a03565b916106ee83610a95565b6107016106fc853384610b00565b610abb565b610b69565b9050346102fe57816003193601126102fe576107206109d2565b602435808552600260205283852054909391926001600160a01b03918216929033841480156107d6575b1561079457858752602052852080546001600160a01b031916919093169081179092557f8c5be1e5ebec7d5bd14f71427d1e84f3dd0314c0f7b2291e5b200ac8c7c3b9258480a480f35b6020606492519162461bcd60e51b8352820152601e60248201527f6e6f74206f776e6572206e6f7220617070726f76656420666f7220616c6c00006044820152fd5b50838752600560205281872033885260205260ff828820541661074a565b9050346102fe5760203660031901126102fe57816020938235928382526002865260018060a01b039361082d8585852054161515610a53565b825285522054169051908152f35b82843461025357806003193601126102535781519181825492600184811c918186169586156108de575b6020968785108114610453578899509688969785829a52918260001461042c5750506001146108a15750505061020792916101f8910385610953565b91908693508280528383205b8284106108c657505050820101816101f86102076103dc565b8054848a0186015288955087949093019281016108ad565b92607f1692610865565b8491346102fe5760203660031901126102fe573563ffffffff60e01b81168091036102fe57602092506380ac58cd60e01b8114908115610942575b8115610931575b5015158152f35b635b5e139f60e01b1490508361092a565b6301ffc9a760e01b81149150610923565b90601f801991011681019081106001600160401b0382111761097457604052565b634e487b7160e01b600052604160045260246000fd5b60005b83811061099d5750506000910152565b818101518382015260200161098d565b906020916109c68151809281855285808601910161098a565b601f01601f1916010190565b600435906001600160a01b03821682036109e857565b600080fd5b602435906001600160a01b03821682036109e857565b60609060031901126109e8576001600160a01b039060043582811681036109e8579160243590811681036109e8579060443590565b6001600160401b03811161097457601f01601f191660200190565b15610a5a57565b60405162461bcd60e51b81526020600482015260136024820152721d1bdad95b88191bd95cdb89dd08195e1a5cdd606a1b6044820152606490fd5b6000908152600260205260409020546001600160a01b031690610ab9821515610a53565b565b15610ac257565b60405162461bcd60e51b81526020600482015260166024820152751b9bdd081bdddb995c881b9bdc88185c1c1c9bdd995960521b6044820152606490fd5b6001600160a01b0391821690821681811493919290918415610b4d575b50508215610b2a57505090565b909150600052600560205260406000209060005260205260ff6040600020541690565b8392945060005260046020526040600020541614913880610b1d565b6001600160a01b039081169291811691838303610c9c5716918215610c5757600084815260046020526040812080546001600160a01b03199081169091559091859083907f8c5be1e5ebec7d5bd14f71427d1e84f3dd0314c0f7b2291e5b200ac8c7c3b9258280a48282526003602052604082208054600019810191908211610c43575583825260036020526040822080549060018201809211610c4357558482526002602052604082208054909116841790557fddf252ad1be2c89b69c2b068fc378daa952ba7f163c4a11628f55a4df523b3ef9080a4565b634e487b7160e01b84526011600452602484fd5b60405162461bcd60e51b815260206004820152601c60248201527f7472616e7366657220746f20746865207a65726f2061646472657373000000006044820152606490fd5b60405162461bcd60e51b81526020600482015260096024820152683737ba1037bbb732b960b91b6044820152606490fd5b610cdc8383836106ee83610a95565b813b610ce9575b50505050565b604051630a85bd0160e11b8082523360048301526001600160a01b03928316602483015260448201949094526080606482015260209592909116939092908390610d379060848301906109ad565b039285816000958187895af1849181610de0575b50610dab575050503d600014610da3573d610d6581610a38565b90610d736040519283610953565b81528091843d92013e5b80519283610d9e57604051633250574960e11b815260048101849052602490fd5b019050fd5b506060610d7d565b919450915063ffffffff60e01b1603610dc8575038808080610ce3565b60249060405190633250574960e11b82526004820152fd5b9091508681813d8311610e1d575b610df88183610953565b81010312610e1957516001600160e01b031981168103610e19579038610d4b565b8480fd5b503d610dee565b8015610efd5780816000925b610ee35750610e3e82610a38565b91610e4c6040519384610953565b808352601f19610e5b82610a38565b01908260209236848701375b610e715750505090565b6000198101908111610ecd578092600a9160308383068101809111610ecd578651821015610eb75760f81b6001600160f81b03191660001a908601840153049182610e67565b634e487b7160e01b600052603260045260246000fd5b634e487b7160e01b600052601160045260246000fd5b90916000198114610ecd576001019190600a900480610e30565b50604051604081018181106001600160401b038211176109745760405260018152600360fc1b60208201529056fea2646970667358221220cfc384a390ed22d62b08b024d8539c02f571da02660e289487113d110358d0f764736f6c63430008140033",
  "linkReferences": {},
  "deployedLinkReferences": {}
}