{
  "_format": "hh-sol-artifact-1",
  "contractName": "Exchange",
  "sourceName": "contracts/Exchange.sol",
  "abi": [
    {
      "inputs": [
        {
          "internalType": "address",
          "name": "_feeAccount",
          "type": "address"
        },
        {
          "internalType": "uint256",
          "name": "_feePercent",
          "type": "uint256"
        }
      ],
      "stateMutability": "nonpayable",
      "type": "constructor"
    },
    {
      "anonymous": false,
      "inputs": [
        {
          "indexed": false,
          "internalType": "uint256",
          "name": "id",
          "type": "uint256"
        },
        {
          "indexed": false,
          "internalType": "address",
          "name": "user",
          "type": "address"
        },
        {
          "indexed": false,
          "internalType": "address",
          "name": "tokenGet",
          "type": "address"
        },
        {
          "indexed": false,
          "internalType": "uint256",
          "name": "amountGet",
          "type": "uint256"
        },
        {
          "indexed": false,
          "internalType": "address",
          "name": "tokenGive",
          "type": "address"
        },
        {
          "indexed": false,
          "internalType": "uint256",
          "name": "amountGive",
          "type": "uint256"
        },
        {
          "indexed": false,
          "internalType": "uint256",
          "name": "timestamp",
          "type": "uint256"
        }
      ],
      "name": "CancelOrder",
      "type": "event"
    },
    {
      "anonymous": false,
      "inputs": [
        {
          "indexed": false,
          "internalType": "address",
          "name": "token",
          "type": "address"
        },
        {
          "indexed": false,
          "internalType": "address",
          "name": "user",
          "type": "address"
        },
        {
          "indexed": false,
          "internalType": "uint256",
          "name": "amount",
          "type": "uint256"
        },
        {
          "indexed": false,
          "internalType": "uint256",
          "name": "balance",
          "type": "uint256"
        }
      ],
      "name": "Deposit",
      "type": "event"
    },
    {
      "anonymous": false,
      "inputs": [
        {
          "indexed": false,
          "internalType": "uint256",
          "name": "id",
          "type": "uint256"
        },
        {
          "indexed": false,
          "internalType": "address",
          "name": "user",
          "type": "address"
        },
        {
          "indexed": false,
          "internalType": "address",
          "name": "tokenGet",
          "type": "address"
        },
        {
          "indexed": false,
          "internalType": "uint256",
          "name": "amountGet",
          "type": "uint256"
        },
        {
          "indexed": false,
          "internalType": "address",
          "name": "tokenGive",
          "type": "address"
        },
        {
          "indexed": false,
          "internalType": "uint256",
          "name": "amountGive",
          "type": "uint256"
        },
        {
          "indexed": false,
          "internalType": "uint256",
          "name": "timestamp",
          "type": "uint256"
        }
      ],
      "name": "MakeOrder",
      "type": "event"
    },
    {
      "anonymous": false,
      "inputs": [
        {
          "indexed": false,
          "internalType": "uint256",
          "name": "id",
          "type": "uint256"
        },
        {
          "indexed": false,
          "internalType": "address",
          "name": "user",
          "type": "address"
        },
        {
          "indexed": false,
          "internalType": "address",
          "name": "tokenGet",
          "type": "address"
        },
        {
          "indexed": false,
          "internalType": "uint256",
          "name": "amountGet",
          "type": "uint256"
        },
        {
          "indexed": false,
          "internalType": "address",
          "name": "tokenGive",
          "type": "address"
        },
        {
          "indexed": false,
          "internalType": "uint256",
          "name": "amountGive",
          "type": "uint256"
        },
        {
          "indexed": false,
          "internalType": "uint256",
          "name": "timestamp",
          "type": "uint256"
        }
      ],
      "name": "TradeOrder",
      "type": "event"
    },
    {
      "anonymous": false,
      "inputs": [
        {
          "indexed": false,
          "internalType": "address",
          "name": "token",
          "type": "address"
        },
        {
          "indexed": false,
          "internalType": "address",
          "name": "user",
          "type": "address"
        },
        {
          "indexed": false,
          "internalType": "uint256",
          "name": "amount",
          "type": "uint256"
        },
        {
          "indexed": false,
          "internalType": "uint256",
          "name": "balance",
          "type": "uint256"
        }
      ],
      "name": "Withdraw",
      "type": "event"
    },
    {
      "inputs": [
        {
          "internalType": "uint256",
          "name": "_id",
          "type": "uint256"
        }
      ],
      "name": "cancelOrder",
      "outputs": [],
      "stateMutability": "nonpayable",
      "type": "function"
    },
    {
      "inputs": [],
      "name": "depositEther",
      "outputs": [],
      "stateMutability": "payable",
      "type": "function"
    },
    {
      "inputs": [
        {
          "internalType": "address",
          "name": "_tokenAddress",
          "type": "address"
        },
        {
          "internalType": "uint256",
          "name": "_amount",
          "type": "uint256"
        }
      ],
      "name": "depositToken",
      "outputs": [],
      "stateMutability": "nonpayable",
      "type": "function"
    },
    {
      "inputs": [],
      "name": "feeAccount",
      "outputs": [
        {
          "internalType": "address",
          "name": "",
          "type": "address"
        }
      ],
      "stateMutability": "view",
      "type": "function"
    },
    {
      "inputs": [],
      "name": "feePercent",
      "outputs": [
        {
          "internalType": "uint256",
          "name": "",
          "type": "uint256"
        }
      ],
      "stateMutability": "view",
      "type": "function"
    },
    {
      "inputs": [
        {
          "internalType": "uint256",
          "name": "_id",
          "type": "uint256"
        }
      ],
      "name": "fillOrder",
      "outputs": [],
      "stateMutability": "nonpayable",
      "type": "function"
    },
    {
      "inputs": [
        {
          "internalType": "address",
          "name": "_token",
          "type": "address"
        },
        {
          "internalType": "address",
          "name": "_account",
          "type": "address"
        }
      ],
      "name": "getBalance",
      "outputs": [
        {
          "internalType": "uint256",
          "name": "",
          "type": "uint256"
        }
      ],
      "stateMutability": "view",
      "type": "function"
    },
    {
      "inputs": [],
      "name": "getTest",
      "outputs": [
        {
          "internalType": "uint256",
          "name": "",
          "type": "uint256"
        }
      ],
      "stateMutability": "view",
      "type": "function"
    },
    {
      "inputs": [
        {
          "internalType": "address",
          "name": "_tokenGet",
          "type": "address"
        },
        {
          "internalType": "uint256",
          "name": "_amountGet",
          "type": "uint256"
        },
        {
          "internalType": "address",
          "name": "_tokenGive",
          "type": "address"
        },
        {
          "internalType": "uint256",
          "name": "_amountGive",
          "type": "uint256"
        }
      ],
      "name": "makeOrder",
      "outputs": [],
      "stateMutability": "nonpayable",
      "type": "function"
    },
    {
      "inputs": [],
      "name": "orderCount",
      "outputs": [
        {
          "internalType": "uint256",
          "name": "",
          "type": "uint256"
        }
      ],
      "stateMutability": "view",
      "type": "function"
    },
    {
      "inputs": [
        {
          "internalType": "uint256",
          "name": "",
          "type": "uint256"
        }
      ],
      "name": "orders",
      "outputs": [
        {
          "internalType": "uint256",
          "name": "id",
          "type": "uint256"
        },
        {
          "internalType": "address",
          "name": "user",
          "type": "address"
        },
        {
          "internalType": "address",
          "name": "tokenGet",
          "type": "address"
        },
        {
          "internalType": "uint256",
          "name": "amountGet",
          "type": "uint256"
        },
        {
          "internalType": "address",
          "name": "tokenGive",
          "type": "address"
        },
        {
          "internalType": "uint256",
          "name": "amountGive",
          "type": "uint256"
        },
        {
          "internalType": "uint256",
          "name": "timestamp",
          "type": "uint256"
        }
      ],
      "stateMutability": "view",
      "type": "function"
    },
    {
      "inputs": [
        {
          "internalType": "uint256",
          "name": "_testCount",
          "type": "uint256"
        }
      ],
      "name": "setTest",
      "outputs": [],
      "stateMutability": "nonpayable",
      "type": "function"
    },
    {
      "inputs": [],
      "name": "testCount",
      "outputs": [
        {
          "internalType": "uint256",
          "name": "",
          "type": "uint256"
        }
      ],
      "stateMutability": "view",
      "type": "function"
    },
    {
      "inputs": [
        {
          "internalType": "address",
          "name": "",
          "type": "address"
        },
        {
          "internalType": "address",
          "name": "",
          "type": "address"
        }
      ],
      "name": "tokens",
      "outputs": [
        {
          "internalType": "uint256",
          "name": "",
          "type": "uint256"
        }
      ],
      "stateMutability": "view",
      "type": "function"
    },
    {
      "inputs": [
        {
          "internalType": "uint256",
          "name": "_amount",
          "type": "uint256"
        }
      ],
      "name": "withdrawEther",
      "outputs": [],
      "stateMutability": "nonpayable",
      "type": "function"
    },
    {
      "inputs": [
        {
          "internalType": "address",
          "name": "_tokenAddress",
          "type": "address"
        },
        {
          "internalType": "uint256",
          "name": "_amount",
          "type": "uint256"
        }
      ],
      "name": "withdrawToken",
      "outputs": [],
      "stateMutability": "nonpayable",
      "type": "function"
    }
  ],
  "bytecode": "0x60806040526000805534801561001457600080fd5b50604051611e1a380380611e1a8339818101604052810190610036919061011e565b81600160006101000a81548173ffffffffffffffffffffffffffffffffffffffff021916908373ffffffffffffffffffffffffffffffffffffffff16021790555080600281905550505061015e565b600080fd5b600073ffffffffffffffffffffffffffffffffffffffff82169050919050565b60006100b58261008a565b9050919050565b6100c5816100aa565b81146100d057600080fd5b50565b6000815190506100e2816100bc565b92915050565b6000819050919050565b6100fb816100e8565b811461010657600080fd5b50565b600081519050610118816100f2565b92915050565b6000806040838503121561013557610134610085565b5b6000610143858286016100d3565b925050602061015485828601610109565b9150509250929050565b611cad8061016d6000396000f3fe6080604052600436106100f35760003560e01c80637fd6f15c1161008a5780639e281a98116100595780639e281a98146102e1578063a85c38ef1461030a578063a8cd0a801461034d578063d4fac45d14610378576100f3565b80637fd6f15c146102585780639590d4b91461028357806398ea5fca146102ae5780639a5c90aa146102b8576100f3565b8063514fcac7116100c6578063514fcac7146101b257806365e17c9d146101db57806367b830ad146102065780636ca1f9331461022f576100f3565b80632453ffa8146100f8578063338b5dea146101235780633bed33ce1461014c578063508493bc14610175575b600080fd5b34801561010457600080fd5b5061010d6103b5565b60405161011a91906116e2565b60405180910390f35b34801561012f57600080fd5b5061014a6004803603810190610145919061178c565b6103bb565b005b34801561015857600080fd5b50610173600480360381019061016e91906117cc565b6105fb565b005b34801561018157600080fd5b5061019c600480360381019061019791906117f9565b610851565b6040516101a991906116e2565b60405180910390f35b3480156101be57600080fd5b506101d960048036038101906101d491906117cc565b610876565b005b3480156101e757600080fd5b506101f0610a8f565b6040516101fd9190611848565b60405180910390f35b34801561021257600080fd5b5061022d600480360381019061022891906117cc565b610ab5565b005b34801561023b57600080fd5b50610256600480360381019061025191906117cc565b610f46565b005b34801561026457600080fd5b5061026d610f50565b60405161027a91906116e2565b60405180910390f35b34801561028f57600080fd5b50610298610f56565b6040516102a591906116e2565b60405180910390f35b6102b6610f5c565b005b3480156102c457600080fd5b506102df60048036038101906102da9190611863565b6110ab565b005b3480156102ed57600080fd5b506103086004803603810190610303919061178c565b61129a565b005b34801561031657600080fd5b50610331600480360381019061032c91906117cc565b611597565b60405161034497969594939291906118ca565b60405180910390f35b34801561035957600080fd5b50610362611639565b60405161036f91906116e2565b60405180910390f35b34801561038457600080fd5b5061039f600480360381019061039a91906117f9565b611642565b6040516103ac91906116e2565b60405180910390f35b60055481565b600073ffffffffffffffffffffffffffffffffffffffff168273ffffffffffffffffffffffffffffffffffffffff160361042a576040517f08c379a000000000000000000000000000000000000000000000000000000000815260040161042190611996565b60405180910390fd5b8173ffffffffffffffffffffffffffffffffffffffff166323b872dd3330846040518463ffffffff1660e01b8152600401610467939291906119b6565b6020604051808303816000875af1158015610486573d6000803e3d6000fd5b505050506040513d601f19601f820116820180604052508101906104aa9190611a25565b5080600360008473ffffffffffffffffffffffffffffffffffffffff1673ffffffffffffffffffffffffffffffffffffffff16815260200190815260200160002060003373ffffffffffffffffffffffffffffffffffffffff1673ffffffffffffffffffffffffffffffffffffffff16815260200190815260200160002060008282546105379190611a81565b925050819055507fdcbc1c05240f31ff3ad067ef1ee35ce4997762752e3a095284754544f4c709d7823383600360008773ffffffffffffffffffffffffffffffffffffffff1673ffffffffffffffffffffffffffffffffffffffff16815260200190815260200160002060003373ffffffffffffffffffffffffffffffffffffffff1673ffffffffffffffffffffffffffffffffffffffff168152602001908152602001600020546040516105ef9493929190611ab5565b60405180910390a15050565b80600360008073ffffffffffffffffffffffffffffffffffffffff1673ffffffffffffffffffffffffffffffffffffffff16815260200190815260200160002060003373ffffffffffffffffffffffffffffffffffffffff1673ffffffffffffffffffffffffffffffffffffffff1681526020019081526020016000205410156106ba576040517f08c379a00000000000000000000000000000000000000000000000000000000081526004016106b190611b46565b60405180910390fd5b80600360008073ffffffffffffffffffffffffffffffffffffffff1673ffffffffffffffffffffffffffffffffffffffff16815260200190815260200160002060003373ffffffffffffffffffffffffffffffffffffffff1673ffffffffffffffffffffffffffffffffffffffff16815260200190815260200160002060008282546107469190611b66565b925050819055503373ffffffffffffffffffffffffffffffffffffffff166108fc829081150290604051600060405180830381858888f19350505050158015610793573d6000803e3d6000fd5b507ff341246adaac6f497bc2a656f546ab9e182111d630394f0c57c710a59a2cb56760003383600360008073ffffffffffffffffffffffffffffffffffffffff1673ffffffffffffffffffffffffffffffffffffffff16815260200190815260200160002060003373ffffffffffffffffffffffffffffffffffffffff1673ffffffffffffffffffffffffffffffffffffffff168152602001908152602001600020546040516108469493929190611ab5565b60405180910390a150565b6003602052816000526040600020602052806000526040600020600091509150505481565b6000600460008381526020019081526020016000206040518060e0016040529081600082015481526020016001820160009054906101000a900473ffffffffffffffffffffffffffffffffffffffff1673ffffffffffffffffffffffffffffffffffffffff1673ffffffffffffffffffffffffffffffffffffffff1681526020016002820160009054906101000a900473ffffffffffffffffffffffffffffffffffffffff1673ffffffffffffffffffffffffffffffffffffffff1673ffffffffffffffffffffffffffffffffffffffff168152602001600382015481526020016004820160009054906101000a900473ffffffffffffffffffffffffffffffffffffffff1673ffffffffffffffffffffffffffffffffffffffff1673ffffffffffffffffffffffffffffffffffffffff16815260200160058201548152602001600682015481525050905081816000015114610a08576040517f08c379a00000000000000000000000000000000000000000000000000000000081526004016109ff90611be6565b60405180910390fd5b60016006600084815260200190815260200160002060006101000a81548160ff0219169083151502179055507f8ad5af334aaf597f15dd597da702fda54fdf739d22e2c11afc21612c49cd38ec8160000151338360400151846060015185608001518660a0015142604051610a8397969594939291906118ca565b60405180910390a15050565b600160009054906101000a900473ffffffffffffffffffffffffffffffffffffffff1681565b6000600460008381526020019081526020016000206040518060e0016040529081600082015481526020016001820160009054906101000a900473ffffffffffffffffffffffffffffffffffffffff1673ffffffffffffffffffffffffffffffffffffffff1673ffffffffffffffffffffffffffffffffffffffff1681526020016002820160009054906101000a900473ffffffffffffffffffffffffffffffffffffffff1673ffffffffffffffffffffffffffffffffffffffff1673ffffffffffffffffffffffffffffffffffffffff168152602001600382015481526020016004820160009054906101000a900473ffffffffffffffffffffffffffffffffffffffff1673ffffffffffffffffffffffffffffffffffffffff1673ffffffffffffffffffffffffffffffffffffffff16815260200160058201548152602001600682015481525050905081816000015114610c47576040517f08c379a0000000000000000000000000000000000000000000000000000000008152600401610c3e90611be6565b60405180910390fd5b60016007600084815260200190815260200160002060006101000a81548160ff021916908315150217905550806060015160036000836040015173ffffffffffffffffffffffffffffffffffffffff1673ffffffffffffffffffffffffffffffffffffffff16815260200190815260200160002060003373ffffffffffffffffffffffffffffffffffffffff1673ffffffffffffffffffffffffffffffffffffffff1681526020019081526020016000206000828254610d079190611a81565b92505081905550806060015160036000836040015173ffffffffffffffffffffffffffffffffffffffff1673ffffffffffffffffffffffffffffffffffffffff1681526020019081526020016000206000836020015173ffffffffffffffffffffffffffffffffffffffff1673ffffffffffffffffffffffffffffffffffffffff1681526020019081526020016000206000828254610da69190611b66565b925050819055508060a0015160036000836080015173ffffffffffffffffffffffffffffffffffffffff1673ffffffffffffffffffffffffffffffffffffffff16815260200190815260200160002060003373ffffffffffffffffffffffffffffffffffffffff1673ffffffffffffffffffffffffffffffffffffffff1681526020019081526020016000206000828254610e419190611b66565b925050819055508060a0015160036000836080015173ffffffffffffffffffffffffffffffffffffffff1673ffffffffffffffffffffffffffffffffffffffff1681526020019081526020016000206000836020015173ffffffffffffffffffffffffffffffffffffffff1673ffffffffffffffffffffffffffffffffffffffff1681526020019081526020016000206000828254610ee09190611a81565b925050819055507f8ab0ffde12722acdf6893a485d2ba71b33e41bc89ef0dce4366fd327b83c9a10816000015182602001518360400151846060015185608001518660a0015142604051610f3a97969594939291906118ca565b60405180910390a15050565b8060008190555050565b60025481565b60005481565b34600360008073ffffffffffffffffffffffffffffffffffffffff1673ffffffffffffffffffffffffffffffffffffffff16815260200190815260200160002060003373ffffffffffffffffffffffffffffffffffffffff1673ffffffffffffffffffffffffffffffffffffffff1681526020019081526020016000206000828254610fe89190611a81565b925050819055507fdcbc1c05240f31ff3ad067ef1ee35ce4997762752e3a095284754544f4c709d760003334600360008073ffffffffffffffffffffffffffffffffffffffff1673ffffffffffffffffffffffffffffffffffffffff16815260200190815260200160002060003373ffffffffffffffffffffffffffffffffffffffff1673ffffffffffffffffffffffffffffffffffffffff168152602001908152602001600020546040516110a19493929190611ab5565b60405180910390a1565b600560008154809291906110be90611c06565b91905055506040518060e0016040528060055481526020013373ffffffffffffffffffffffffffffffffffffffff1681526020018573ffffffffffffffffffffffffffffffffffffffff1681526020018481526020018373ffffffffffffffffffffffffffffffffffffffff168152602001828152602001428152506004600060055481526020019081526020016000206000820151816000015560208201518160010160006101000a81548173ffffffffffffffffffffffffffffffffffffffff021916908373ffffffffffffffffffffffffffffffffffffffff16021790555060408201518160020160006101000a81548173ffffffffffffffffffffffffffffffffffffffff021916908373ffffffffffffffffffffffffffffffffffffffff1602179055506060820151816003015560808201518160040160006101000a81548173ffffffffffffffffffffffffffffffffffffffff021916908373ffffffffffffffffffffffffffffffffffffffff16021790555060a0820151816005015560c082015181600601559050507f90c633973662453697015131b924db60b38b51ffe4c2eb7647e453dc4f11d67860055433868686864260405161128c97969594939291906118ca565b60405180910390a150505050565b600073ffffffffffffffffffffffffffffffffffffffff168273ffffffffffffffffffffffffffffffffffffffff1603611309576040517f08c379a000000000000000000000000000000000000000000000000000000000815260040161130090611996565b60405180910390fd5b80600360008473ffffffffffffffffffffffffffffffffffffffff1673ffffffffffffffffffffffffffffffffffffffff16815260200190815260200160002060003373ffffffffffffffffffffffffffffffffffffffff1673ffffffffffffffffffffffffffffffffffffffff1681526020019081526020016000205410156113c8576040517f08c379a00000000000000000000000000000000000000000000000000000000081526004016113bf90611b46565b60405180910390fd5b80600360008473ffffffffffffffffffffffffffffffffffffffff1673ffffffffffffffffffffffffffffffffffffffff16815260200190815260200160002060003373ffffffffffffffffffffffffffffffffffffffff1673ffffffffffffffffffffffffffffffffffffffff16815260200190815260200160002060008282546114549190611b66565b925050819055508173ffffffffffffffffffffffffffffffffffffffff1663a9059cbb33836040518363ffffffff1660e01b8152600401611496929190611c4e565b6020604051808303816000875af11580156114b5573d6000803e3d6000fd5b505050506040513d601f19601f820116820180604052508101906114d99190611a25565b507ff341246adaac6f497bc2a656f546ab9e182111d630394f0c57c710a59a2cb567823383600360008773ffffffffffffffffffffffffffffffffffffffff1673ffffffffffffffffffffffffffffffffffffffff16815260200190815260200160002060003373ffffffffffffffffffffffffffffffffffffffff1673ffffffffffffffffffffffffffffffffffffffff1681526020019081526020016000205460405161158b9493929190611ab5565b60405180910390a15050565b60046020528060005260406000206000915090508060000154908060010160009054906101000a900473ffffffffffffffffffffffffffffffffffffffff16908060020160009054906101000a900473ffffffffffffffffffffffffffffffffffffffff16908060030154908060040160009054906101000a900473ffffffffffffffffffffffffffffffffffffffff16908060050154908060060154905087565b60008054905090565b6000600360008473ffffffffffffffffffffffffffffffffffffffff1673ffffffffffffffffffffffffffffffffffffffff16815260200190815260200160002060008373ffffffffffffffffffffffffffffffffffffffff1673ffffffffffffffffffffffffffffffffffffffff16815260200190815260200160002054905092915050565b6000819050919050565b6116dc816116c9565b82525050565b60006020820190506116f760008301846116d3565b92915050565b600080fd5b600073ffffffffffffffffffffffffffffffffffffffff82169050919050565b600061172d82611702565b9050919050565b61173d81611722565b811461174857600080fd5b50565b60008135905061175a81611734565b92915050565b611769816116c9565b811461177457600080fd5b50565b60008135905061178681611760565b92915050565b600080604083850312156117a3576117a26116fd565b5b60006117b18582860161174b565b92505060206117c285828601611777565b9150509250929050565b6000602082840312156117e2576117e16116fd565b5b60006117f084828501611777565b91505092915050565b600080604083850312156118105761180f6116fd565b5b600061181e8582860161174b565b925050602061182f8582860161174b565b9150509250929050565b61184281611722565b82525050565b600060208201905061185d6000830184611839565b92915050565b6000806000806080858703121561187d5761187c6116fd565b5b600061188b8782880161174b565b945050602061189c87828801611777565b93505060406118ad8782880161174b565b92505060606118be87828801611777565b91505092959194509250565b600060e0820190506118df600083018a6116d3565b6118ec6020830189611839565b6118f96040830188611839565b61190660608301876116d3565b6119136080830186611839565b61192060a08301856116d3565b61192d60c08301846116d3565b98975050505050505050565b600082825260208201905092915050565b7f746f6b656e2061646472657373206d7573742062652076616c69640000000000600082015250565b6000611980601b83611939565b915061198b8261194a565b602082019050919050565b600060208201905081810360008301526119af81611973565b9050919050565b60006060820190506119cb6000830186611839565b6119d86020830185611839565b6119e560408301846116d3565b949350505050565b60008115159050919050565b611a02816119ed565b8114611a0d57600080fd5b50565b600081519050611a1f816119f9565b92915050565b600060208284031215611a3b57611a3a6116fd565b5b6000611a4984828501611a10565b91505092915050565b7f4e487b7100000000000000000000000000000000000000000000000000000000600052601160045260246000fd5b6000611a8c826116c9565b9150611a97836116c9565b9250828201905080821115611aaf57611aae611a52565b5b92915050565b6000608082019050611aca6000830187611839565b611ad76020830186611839565b611ae460408301856116d3565b611af160608301846116d3565b95945050505050565b7f696e73756666696369656e742062616c616e6365000000000000000000000000600082015250565b6000611b30601483611939565b9150611b3b82611afa565b602082019050919050565b60006020820190508181036000830152611b5f81611b23565b9050919050565b6000611b71826116c9565b9150611b7c836116c9565b9250828203905081811115611b9457611b93611a52565b5b92915050565b7f6f72646572206964206973206e6f742076616c69640000000000000000000000600082015250565b6000611bd0601583611939565b9150611bdb82611b9a565b602082019050919050565b60006020820190508181036000830152611bff81611bc3565b9050919050565b6000611c11826116c9565b91507fffffffffffffffffffffffffffffffffffffffffffffffffffffffffffffffff8203611c4357611c42611a52565b5b600182019050919050565b6000604082019050611c636000830185611839565b611c7060208301846116d3565b939250505056fea26469706673582212204fb01835899891fbe9da71e4c0eb6da8c632869a64a3be6273c4e3d3505bbd1d64736f6c634300081c0033",
  "linkReferences": {},
  "deployedLinkReferences": {}
}