{
  "_format": "hh-sol-artifact-1",
  "contractName": "Crowdfunding",
  "sourceName": "contracts/Crowdfunding/Crowdfunding.sol",
  "abi": [
    {
      "inputs": [
        {
          "internalType": "address",
          "name": "_owner",
          "type": "address"
        },
        {
          "internalType": "string",
          "name": "_name",
          "type": "string"
        },
        {
          "internalType": "string",
          "name": "_description",
          "type": "string"
        },
        {
          "internalType": "uint256",
          "name": "_goal",
          "type": "uint256"
        },
        {
          "internalType": "uint256",
          "name": "_durationInDays",
          "type": "uint256"
        }
      ],
      "stateMutability": "nonpayable",
      "type": "constructor"
    },
    {
      "inputs": [
        {
          "internalType": "string",
          "name": "_name",
          "type": "string"
        },
        {
          "internalType": "uint256",
          "name": "_amount",
          "type": "uint256"
        }
      ],
      "name": "addTier",
      "outputs": [],
      "stateMutability": "nonpayable",
      "type": "function"
    },
    {
      "inputs": [
        {
          "internalType": "address",
          "name": "",
          "type": "address"
        }
      ],
      "name": "backers",
      "outputs": [
        {
          "internalType": "uint256",
          "name": "totalContribution",
          "type": "uint256"
        }
      ],
      "stateMutability": "view",
      "type": "function"
    },
    {
      "inputs": [],
      "name": "deadline",
      "outputs": [
        {
          "internalType": "uint256",
          "name": "",
          "type": "uint256"
        }
      ],
      "stateMutability": "view",
      "type": "function"
    },
    {
      "inputs": [],
      "name": "description",
      "outputs": [
        {
          "internalType": "string",
          "name": "",
          "type": "string"
        }
      ],
      "stateMutability": "view",
      "type": "function"
    },
    {
      "inputs": [
        {
          "internalType": "uint256",
          "name": "_daysToAdd",
          "type": "uint256"
        }
      ],
      "name": "extendDeadline",
      "outputs": [],
      "stateMutability": "nonpayable",
      "type": "function"
    },
    {
      "inputs": [
        {
          "internalType": "uint256",
          "name": "_tierIndex",
          "type": "uint256"
        }
      ],
      "name": "fund",
      "outputs": [],
      "stateMutability": "payable",
      "type": "function"
    },
    {
      "inputs": [],
      "name": "getCampainStatus",
      "outputs": [
        {
          "internalType": "enum Crowdfunding.CampaignState",
          "name": "",
          "type": "uint8"
        }
      ],
      "stateMutability": "view",
      "type": "function"
    },
    {
      "inputs": [],
      "name": "getContractBalance",
      "outputs": [
        {
          "internalType": "uint256",
          "name": "",
          "type": "uint256"
        }
      ],
      "stateMutability": "view",
      "type": "function"
    },
    {
      "inputs": [],
      "name": "getRemainingTime",
      "outputs": [
        {
          "internalType": "uint256",
          "name": "",
          "type": "uint256"
        }
      ],
      "stateMutability": "view",
      "type": "function"
    },
    {
      "inputs": [],
      "name": "getTiers",
      "outputs": [
        {
          "components": [
            {
              "internalType": "string",
              "name": "name",
              "type": "string"
            },
            {
              "internalType": "uint256",
              "name": "amount",
              "type": "uint256"
            },
            {
              "internalType": "uint256",
              "name": "backers",
              "type": "uint256"
            }
          ],
          "internalType": "struct Crowdfunding.Tier[]",
          "name": "",
          "type": "tuple[]"
        }
      ],
      "stateMutability": "view",
      "type": "function"
    },
    {
      "inputs": [],
      "name": "goal",
      "outputs": [
        {
          "internalType": "uint256",
          "name": "",
          "type": "uint256"
        }
      ],
      "stateMutability": "view",
      "type": "function"
    },
    {
      "inputs": [
        {
          "internalType": "address",
          "name": "_backerAddress",
          "type": "address"
        },
        {
          "internalType": "uint256",
          "name": "_tierIndex",
          "type": "uint256"
        }
      ],
      "name": "hasFundedTier",
      "outputs": [
        {
          "internalType": "bool",
          "name": "",
          "type": "bool"
        }
      ],
      "stateMutability": "view",
      "type": "function"
    },
    {
      "inputs": [],
      "name": "name",
      "outputs": [
        {
          "internalType": "string",
          "name": "",
          "type": "string"
        }
      ],
      "stateMutability": "view",
      "type": "function"
    },
    {
      "inputs": [],
      "name": "owner",
      "outputs": [
        {
          "internalType": "address",
          "name": "",
          "type": "address"
        }
      ],
      "stateMutability": "view",
      "type": "function"
    },
    {
      "inputs": [],
      "name": "paused",
      "outputs": [
        {
          "internalType": "bool",
          "name": "",
          "type": "bool"
        }
      ],
      "stateMutability": "view",
      "type": "function"
    },
    {
      "inputs": [],
      "name": "refund",
      "outputs": [],
      "stateMutability": "nonpayable",
      "type": "function"
    },
    {
      "inputs": [
        {
          "internalType": "uint256",
          "name": "_tierIndex",
          "type": "uint256"
        }
      ],
      "name": "removeTier",
      "outputs": [],
      "stateMutability": "nonpayable",
      "type": "function"
    },
    {
      "inputs": [],
      "name": "state",
      "outputs": [
        {
          "internalType": "enum Crowdfunding.CampaignState",
          "name": "",
          "type": "uint8"
        }
      ],
      "stateMutability": "view",
      "type": "function"
    },
    {
      "inputs": [
        {
          "internalType": "uint256",
          "name": "",
          "type": "uint256"
        }
      ],
      "name": "tiers",
      "outputs": [
        {
          "internalType": "string",
          "name": "name",
          "type": "string"
        },
        {
          "internalType": "uint256",
          "name": "amount",
          "type": "uint256"
        },
        {
          "internalType": "uint256",
          "name": "backers",
          "type": "uint256"
        }
      ],
      "stateMutability": "view",
      "type": "function"
    },
    {
      "inputs": [],
      "name": "togglePause",
      "outputs": [],
      "stateMutability": "nonpayable",
      "type": "function"
    },
    {
      "inputs": [],
      "name": "withdraw",
      "outputs": [],
      "stateMutability": "nonpayable",
      "type": "function"
    }
  ],
  "bytecode": "0x608060405234801561001057600080fd5b50604051612d26380380612d26833981810160405281019061003291906102f8565b836000908161004191906105c2565b50826001908161005191906105c2565b5081600281905550620151808161006891906106c3565b426100739190610705565b60038190555084600460006101000a81548173ffffffffffffffffffffffffffffffffffffffff021916908373ffffffffffffffffffffffffffffffffffffffff1602179055506000600460156101000a81548160ff021916908360028111156100e0576100df610739565b5b02179055505050505050610768565b6000604051905090565b600080fd5b600080fd5b600073ffffffffffffffffffffffffffffffffffffffff82169050919050565b600061012e82610103565b9050919050565b61013e81610123565b811461014957600080fd5b50565b60008151905061015b81610135565b92915050565b600080fd5b600080fd5b6000601f19601f8301169050919050565b7f4e487b7100000000000000000000000000000000000000000000000000000000600052604160045260246000fd5b6101b48261016b565b810181811067ffffffffffffffff821117156101d3576101d261017c565b5b80604052505050565b60006101e66100ef565b90506101f282826101ab565b919050565b600067ffffffffffffffff8211156102125761021161017c565b5b61021b8261016b565b9050602081019050919050565b60005b8381101561024657808201518184015260208101905061022b565b60008484015250505050565b6000610265610260846101f7565b6101dc565b90508281526020810184848401111561028157610280610166565b5b61028c848285610228565b509392505050565b600082601f8301126102a9576102a8610161565b5b81516102b9848260208601610252565b91505092915050565b6000819050919050565b6102d5816102c2565b81146102e057600080fd5b50565b6000815190506102f2816102cc565b92915050565b600080600080600060a08688031215610314576103136100f9565b5b60006103228882890161014c565b955050602086015167ffffffffffffffff811115610343576103426100fe565b5b61034f88828901610294565b945050604086015167ffffffffffffffff8111156103705761036f6100fe565b5b61037c88828901610294565b935050606061038d888289016102e3565b925050608061039e888289016102e3565b9150509295509295909350565b600081519050919050565b7f4e487b7100000000000000000000000000000000000000000000000000000000600052602260045260246000fd5b600060028204905060018216806103fd57607f821691505b6020821081036104105761040f6103b6565b5b50919050565b60008190508160005260206000209050919050565b60006020601f8301049050919050565b600082821b905092915050565b6000600883026104787fffffffffffffffffffffffffffffffffffffffffffffffffffffffffffffffff8261043b565b610482868361043b565b95508019841693508086168417925050509392505050565b6000819050919050565b60006104bf6104ba6104b5846102c2565b61049a565b6102c2565b9050919050565b6000819050919050565b6104d9836104a4565b6104ed6104e5826104c6565b848454610448565b825550505050565b600090565b6105026104f5565b61050d8184846104d0565b505050565b5b81811015610531576105266000826104fa565b600181019050610513565b5050565b601f8211156105765761054781610416565b6105508461042b565b8101602085101561055f578190505b61057361056b8561042b565b830182610512565b50505b505050565b600082821c905092915050565b60006105996000198460080261057b565b1980831691505092915050565b60006105b28383610588565b9150826002028217905092915050565b6105cb826103ab565b67ffffffffffffffff8111156105e4576105e361017c565b5b6105ee82546103e5565b6105f9828285610535565b600060209050601f83116001811461062c576000841561061a578287015190505b61062485826105a6565b86555061068c565b601f19841661063a86610416565b60005b828110156106625784890151825560018201915060208501945060208101905061063d565b8683101561067f578489015161067b601f891682610588565b8355505b6001600288020188555050505b505050505050565b7f4e487b7100000000000000000000000000000000000000000000000000000000600052601160045260246000fd5b60006106ce826102c2565b91506106d9836102c2565b92508282026106e7816102c2565b915082820484148315176106fe576106fd610694565b5b5092915050565b6000610710826102c2565b915061071b836102c2565b925082820190508082111561073357610732610694565b5b92915050565b7f4e487b7100000000000000000000000000000000000000000000000000000000600052602160045260246000fd5b6125af806107776000396000f3fe60806040526004361061012a5760003560e01c80637284e416116100ab578063b85dfb801161006f578063b85dfb80146103ac578063c19d93fb146103e9578063c4ae316814610414578063ca1d209d1461042b578063de17057014610447578063efb98bcf146104725761012a565b80637284e416146102c75780637497211b146102f25780637adba5271461031b5780638da5cb5b146103585780638ece7b91146103835761012a565b80633ccfd60b116100f25780633ccfd60b14610218578063401938831461022f578063590e1ae31461025a5780635c975abb146102715780636f9fb98a1461029c5761012a565b8063039af9eb1461012f57806306fdde031461016e5780631901d87d1461019957806329dcb0cf146101c4578063389b7533146101ef575b600080fd5b34801561013b57600080fd5b5061015660048036038101906101519190611532565b61049d565b604051610165939291906115fe565b60405180910390f35b34801561017a57600080fd5b5061018361055f565b604051610190919061163c565b60405180910390f35b3480156101a557600080fd5b506101ae6105ed565b6040516101bb91906116d5565b60405180910390f35b3480156101d057600080fd5b506101d9610669565b6040516101e691906116f0565b60405180910390f35b3480156101fb57600080fd5b5061021660048036038101906102119190611532565b61066f565b005b34801561022457600080fd5b5061022d61079f565b005b34801561023b57600080fd5b50610244610961565b60405161025191906116f0565b60405180910390f35b34801561026657600080fd5b5061026f610967565b005b34801561027d57600080fd5b50610286610b00565b6040516102939190611726565b60405180910390f35b3480156102a857600080fd5b506102b1610b13565b6040516102be91906116f0565b60405180910390f35b3480156102d357600080fd5b506102dc610b1b565b6040516102e9919061163c565b60405180910390f35b3480156102fe57600080fd5b5061031960048036038101906103149190611532565b610ba9565b005b34801561032757600080fd5b50610342600480360381019061033d919061179f565b610d4f565b60405161034f9190611726565b60405180910390f35b34801561036457600080fd5b5061036d610dba565b60405161037a91906117ee565b60405180910390f35b34801561038f57600080fd5b506103aa60048036038101906103a5919061193e565b610de0565b005b3480156103b857600080fd5b506103d360048036038101906103ce919061199a565b610f2a565b6040516103e091906116f0565b60405180910390f35b3480156103f557600080fd5b506103fe610f48565b60405161040b91906116d5565b60405180910390f35b34801561042057600080fd5b50610429610f5b565b005b61044560048036038101906104409190611532565b611017565b005b34801561045357600080fd5b5061045c611296565b6040516104699190611b32565b60405180910390f35b34801561047e57600080fd5b5061048761139b565b60405161049491906116f0565b60405180910390f35b600581815481106104ad57600080fd5b90600052602060002090600302016000915090508060000180546104d090611b83565b80601f01602080910402602001604051908101604052809291908181526020018280546104fc90611b83565b80156105495780601f1061051e57610100808354040283529160200191610549565b820191906000526020600020905b81548152906001019060200180831161052c57829003601f168201915b5050505050908060010154908060020154905083565b6000805461056c90611b83565b80601f016020809104026020016040519081016040528092919081815260200182805461059890611b83565b80156105e55780601f106105ba576101008083540402835291602001916105e5565b820191906000526020600020905b8154815290600101906020018083116105c857829003601f168201915b505050505081565b60008060028111156106025761060161165e565b5b600460159054906101000a900460ff1660028111156106245761062361165e565b5b14801561063357506003544210155b156106535760025447101561064957600261064c565b60015b9050610666565b600460159054906101000a900460ff1690505b90565b60035481565b600460009054906101000a900473ffffffffffffffffffffffffffffffffffffffff1673ffffffffffffffffffffffffffffffffffffffff163373ffffffffffffffffffffffffffffffffffffffff16146106ff576040517f08c379a00000000000000000000000000000000000000000000000000000000081526004016106f690611c00565b60405180910390fd5b600060028111156107135761071261165e565b5b600460159054906101000a900460ff1660028111156107355761073461165e565b5b14610775576040517f08c379a000000000000000000000000000000000000000000000000000000000815260040161076c90611c6c565b60405180910390fd5b62015180816107849190611cbb565b600360008282546107959190611cfd565b9250508190555050565b600460009054906101000a900473ffffffffffffffffffffffffffffffffffffffff1673ffffffffffffffffffffffffffffffffffffffff163373ffffffffffffffffffffffffffffffffffffffff161461082f576040517f08c379a000000000000000000000000000000000000000000000000000000000815260040161082690611c00565b60405180910390fd5b6108376113c3565b6001600281111561084b5761084a61165e565b5b600460159054906101000a900460ff16600281111561086d5761086c61165e565b5b146108ad576040517f08c379a00000000000000000000000000000000000000000000000000000000081526004016108a490611d7d565b60405180910390fd5b6000479050600081116108f5576040517f08c379a00000000000000000000000000000000000000000000000000000000081526004016108ec90611de9565b60405180910390fd5b600460009054906101000a900473ffffffffffffffffffffffffffffffffffffffff1673ffffffffffffffffffffffffffffffffffffffff166108fc829081150290604051600060405180830381858888f1935050505015801561095d573d6000803e3d6000fd5b5050565b60025481565b61096f6113c3565b6002808111156109825761098161165e565b5b600460159054906101000a900460ff1660028111156109a4576109a361165e565b5b146109e4576040517f08c379a00000000000000000000000000000000000000000000000000000000081526004016109db90611e55565b60405180910390fd5b6000600660003373ffffffffffffffffffffffffffffffffffffffff1673ffffffffffffffffffffffffffffffffffffffff16815260200190815260200160002060000154905060008111610a6e576040517f08c379a0000000000000000000000000000000000000000000000000000000008152600401610a6590611ec1565b60405180910390fd5b6000600660003373ffffffffffffffffffffffffffffffffffffffff1673ffffffffffffffffffffffffffffffffffffffff168152602001908152602001600020600001819055503373ffffffffffffffffffffffffffffffffffffffff166108fc829081150290604051600060405180830381858888f19350505050158015610afc573d6000803e3d6000fd5b5050565b600460149054906101000a900460ff1681565b600047905090565b60018054610b2890611b83565b80601f0160208091040260200160405190810160405280929190818152602001828054610b5490611b83565b8015610ba15780601f10610b7657610100808354040283529160200191610ba1565b820191906000526020600020905b815481529060010190602001808311610b8457829003601f168201915b505050505081565b600460009054906101000a900473ffffffffffffffffffffffffffffffffffffffff1673ffffffffffffffffffffffffffffffffffffffff163373ffffffffffffffffffffffffffffffffffffffff1614610c39576040517f08c379a0000000000000000000000000000000000000000000000000000000008152600401610c3090611c00565b60405180910390fd5b6005805490508110610c80576040517f08c379a0000000000000000000000000000000000000000000000000000000008152600401610c7790611f2d565b60405180910390fd5b60056001600580549050610c949190611f4d565b81548110610ca557610ca4611f81565b5b906000526020600020906003020160058281548110610cc757610cc6611f81565b5b906000526020600020906003020160008201816000019081610ce99190612172565b5060018201548160010155600282015481600201559050506005805480610d1357610d1261225a565b5b600190038181906000526020600020906003020160008082016000610d38919061148b565b600182016000905560028201600090555050905550565b6000600660008473ffffffffffffffffffffffffffffffffffffffff1673ffffffffffffffffffffffffffffffffffffffff168152602001908152602001600020600101600083815260200190815260200160002060009054906101000a900460ff16905092915050565b600460009054906101000a900473ffffffffffffffffffffffffffffffffffffffff1681565b600460009054906101000a900473ffffffffffffffffffffffffffffffffffffffff1673ffffffffffffffffffffffffffffffffffffffff163373ffffffffffffffffffffffffffffffffffffffff1614610e70576040517f08c379a0000000000000000000000000000000000000000000000000000000008152600401610e6790611c00565b60405180910390fd5b60008111610eb3576040517f08c379a0000000000000000000000000000000000000000000000000000000008152600401610eaa906122d5565b60405180910390fd5b60056040518060600160405280848152602001838152602001600081525090806001815401808255809150506001900390600052602060002090600302016000909190919091506000820151816000019081610f0f91906122f5565b50602082015181600101556040820151816002015550505050565b60066020528060005260406000206000915090508060000154905081565b600460159054906101000a900460ff1681565b600460009054906101000a900473ffffffffffffffffffffffffffffffffffffffff1673ffffffffffffffffffffffffffffffffffffffff163373ffffffffffffffffffffffffffffffffffffffff1614610feb576040517f08c379a0000000000000000000000000000000000000000000000000000000008152600401610fe290611c00565b60405180910390fd5b600460149054906101000a900460ff1615600460146101000a81548160ff021916908315150217905550565b6000600281111561102b5761102a61165e565b5b600460159054906101000a900460ff16600281111561104d5761104c61165e565b5b1461108d576040517f08c379a000000000000000000000000000000000000000000000000000000000815260040161108490611c6c565b60405180910390fd5b600460149054906101000a900460ff16156110dd576040517f08c379a00000000000000000000000000000000000000000000000000000000081526004016110d490612413565b60405180910390fd5b6005805490508110611124576040517f08c379a000000000000000000000000000000000000000000000000000000000815260040161111b906124a5565b60405180910390fd5b6005818154811061113857611137611f81565b5b906000526020600020906003020160010154341461118b576040517f08c379a000000000000000000000000000000000000000000000000000000000815260040161118290612511565b60405180910390fd5b6005818154811061119f5761119e611f81565b5b906000526020600020906003020160020160008154809291906111c190612531565b919050555034600660003373ffffffffffffffffffffffffffffffffffffffff1673ffffffffffffffffffffffffffffffffffffffff16815260200190815260200160002060000160008282546112189190611cfd565b925050819055506001600660003373ffffffffffffffffffffffffffffffffffffffff1673ffffffffffffffffffffffffffffffffffffffff168152602001908152602001600020600101600083815260200190815260200160002060006101000a81548160ff0219169083151502179055506112936113c3565b50565b60606005805480602002602001604051908101604052809291908181526020016000905b8282101561139257838290600052602060002090600302016040518060600160405290816000820180546112ed90611b83565b80601f016020809104026020016040519081016040528092919081815260200182805461131990611b83565b80156113665780601f1061133b57610100808354040283529160200191611366565b820191906000526020600020905b81548152906001019060200180831161134957829003601f168201915b5050505050815260200160018201548152602001600282015481525050815260200190600101906112ba565b50505050905090565b600060035442106113af57600090506113c0565b426003546113bd9190611f4d565b90505b90565b600060028111156113d7576113d661165e565b5b600460159054906101000a900460ff1660028111156113f9576113f861165e565b5b036114895760035442111561144a5760025447101561141957600261141c565b60015b600460156101000a81548160ff021916908360028111156114405761143f61165e565b5b0217905550611488565b60025447101561145b57600061145e565b60015b600460156101000a81548160ff021916908360028111156114825761148161165e565b5b02179055505b5b565b50805461149790611b83565b6000825580601f106114a957506114c8565b601f0160209004906000526020600020908101906114c791906114cb565b5b50565b5b808211156114e45760008160009055506001016114cc565b5090565b6000604051905090565b600080fd5b600080fd5b6000819050919050565b61150f816114fc565b811461151a57600080fd5b50565b60008135905061152c81611506565b92915050565b600060208284031215611548576115476114f2565b5b60006115568482850161151d565b91505092915050565b600081519050919050565b600082825260208201905092915050565b60005b8381101561159957808201518184015260208101905061157e565b60008484015250505050565b6000601f19601f8301169050919050565b60006115c18261155f565b6115cb818561156a565b93506115db81856020860161157b565b6115e4816115a5565b840191505092915050565b6115f8816114fc565b82525050565b6000606082019050818103600083015261161881866115b6565b905061162760208301856115ef565b61163460408301846115ef565b949350505050565b6000602082019050818103600083015261165681846115b6565b905092915050565b7f4e487b7100000000000000000000000000000000000000000000000000000000600052602160045260246000fd5b6003811061169e5761169d61165e565b5b50565b60008190506116af8261168d565b919050565b60006116bf826116a1565b9050919050565b6116cf816116b4565b82525050565b60006020820190506116ea60008301846116c6565b92915050565b600060208201905061170560008301846115ef565b92915050565b60008115159050919050565b6117208161170b565b82525050565b600060208201905061173b6000830184611717565b92915050565b600073ffffffffffffffffffffffffffffffffffffffff82169050919050565b600061176c82611741565b9050919050565b61177c81611761565b811461178757600080fd5b50565b60008135905061179981611773565b92915050565b600080604083850312156117b6576117b56114f2565b5b60006117c48582860161178a565b92505060206117d58582860161151d565b9150509250929050565b6117e881611761565b82525050565b600060208201905061180360008301846117df565b92915050565b600080fd5b600080fd5b7f4e487b7100000000000000000000000000000000000000000000000000000000600052604160045260246000fd5b61184b826115a5565b810181811067ffffffffffffffff8211171561186a57611869611813565b5b80604052505050565b600061187d6114e8565b90506118898282611842565b919050565b600067ffffffffffffffff8211156118a9576118a8611813565b5b6118b2826115a5565b9050602081019050919050565b82818337600083830152505050565b60006118e16118dc8461188e565b611873565b9050828152602081018484840111156118fd576118fc61180e565b5b6119088482856118bf565b509392505050565b600082601f83011261192557611924611809565b5b81356119358482602086016118ce565b91505092915050565b60008060408385031215611955576119546114f2565b5b600083013567ffffffffffffffff811115611973576119726114f7565b5b61197f85828601611910565b92505060206119908582860161151d565b9150509250929050565b6000602082840312156119b0576119af6114f2565b5b60006119be8482850161178a565b91505092915050565b600081519050919050565b600082825260208201905092915050565b6000819050602082019050919050565b600082825260208201905092915050565b6000611a0f8261155f565b611a1981856119f3565b9350611a2981856020860161157b565b611a32816115a5565b840191505092915050565b611a46816114fc565b82525050565b60006060830160008301518482036000860152611a698282611a04565b9150506020830151611a7e6020860182611a3d565b506040830151611a916040860182611a3d565b508091505092915050565b6000611aa88383611a4c565b905092915050565b6000602082019050919050565b6000611ac8826119c7565b611ad281856119d2565b935083602082028501611ae4856119e3565b8060005b85811015611b205784840389528151611b018582611a9c565b9450611b0c83611ab0565b925060208a01995050600181019050611ae8565b50829750879550505050505092915050565b60006020820190508181036000830152611b4c8184611abd565b905092915050565b7f4e487b7100000000000000000000000000000000000000000000000000000000600052602260045260246000fd5b60006002820490506001821680611b9b57607f821691505b602082108103611bae57611bad611b54565b5b50919050565b7f4f6e6c7920746865206f776e65722063616e20646f20746861742e0000000000600082015250565b6000611bea601b8361156a565b9150611bf582611bb4565b602082019050919050565b60006020820190508181036000830152611c1981611bdd565b9050919050565b7f43616d706169676e20776173206e6f74206f70656e2e00000000000000000000600082015250565b6000611c5660168361156a565b9150611c6182611c20565b602082019050919050565b60006020820190508181036000830152611c8581611c49565b9050919050565b7f4e487b7100000000000000000000000000000000000000000000000000000000600052601160045260246000fd5b6000611cc6826114fc565b9150611cd1836114fc565b9250828202611cdf816114fc565b91508282048414831517611cf657611cf5611c8c565b5b5092915050565b6000611d08826114fc565b9150611d13836114fc565b9250828201905080821115611d2b57611d2a611c8c565b5b92915050565b7f43616d706169676e206e6f74207375636365737366756c000000000000000000600082015250565b6000611d6760178361156a565b9150611d7282611d31565b602082019050919050565b60006020820190508181036000830152611d9681611d5a565b9050919050565b7f42616c616e6365206d75737420677265617465722074686174207a65726f0000600082015250565b6000611dd3601e8361156a565b9150611dde82611d9d565b602082019050919050565b60006020820190508181036000830152611e0281611dc6565b9050919050565b7f43616d706169676e206e6f74204661696c65642e000000000000000000000000600082015250565b6000611e3f60148361156a565b9150611e4a82611e09565b602082019050919050565b60006020820190508181036000830152611e6e81611e32565b9050919050565b7f7468657265206973206e6f20636f6e747269627574696f6e2e00000000000000600082015250565b6000611eab60198361156a565b9150611eb682611e75565b602082019050919050565b60006020820190508181036000830152611eda81611e9e565b9050919050565b7f496e646578206f7574206f6620626f756e647300000000000000000000000000600082015250565b6000611f1760138361156a565b9150611f2282611ee1565b602082019050919050565b60006020820190508181036000830152611f4681611f0a565b9050919050565b6000611f58826114fc565b9150611f63836114fc565b9250828203905081811115611f7b57611f7a611c8c565b5b92915050565b7f4e487b7100000000000000000000000000000000000000000000000000000000600052603260045260246000fd5b600081549050611fbf81611b83565b9050919050565b60008190508160005260206000209050919050565b60006020601f8301049050919050565b600082821b905092915050565b6000600883026120287fffffffffffffffffffffffffffffffffffffffffffffffffffffffffffffffff82611feb565b6120328683611feb565b95508019841693508086168417925050509392505050565b6000819050919050565b600061206f61206a612065846114fc565b61204a565b6114fc565b9050919050565b6000819050919050565b61208983612054565b61209d61209582612076565b848454611ff8565b825550505050565b600090565b6120b26120a5565b6120bd818484612080565b505050565b5b818110156120e1576120d66000826120aa565b6001810190506120c3565b5050565b601f821115612126576120f781611fc6565b61210084611fdb565b8101602085101561210f578190505b61212361211b85611fdb565b8301826120c2565b50505b505050565b600082821c905092915050565b60006121496000198460080261212b565b1980831691505092915050565b60006121628383612138565b9150826002028217905092915050565b818103612180575050612258565b61218982611fb0565b67ffffffffffffffff8111156121a2576121a1611813565b5b6121ac8254611b83565b6121b78282856120e5565b6000601f8311600181146121e657600084156121d4578287015490505b6121de8582612156565b865550612251565b601f1984166121f487611fc6565b96506121ff86611fc6565b60005b8281101561222757848901548255600182019150600185019450602081019050612202565b868310156122445784890154612240601f891682612138565b8355505b6001600288020188555050505b5050505050505b565b7f4e487b7100000000000000000000000000000000000000000000000000000000600052603160045260246000fd5b7f5f616d6f756e742063616e206e6f7420626520302e0000000000000000000000600082015250565b60006122bf60158361156a565b91506122ca82612289565b602082019050919050565b600060208201905081810360008301526122ee816122b2565b9050919050565b6122fe8261155f565b67ffffffffffffffff81111561231757612316611813565b5b6123218254611b83565b61232c8282856120e5565b600060209050601f83116001811461235f576000841561234d578287015190505b6123578582612156565b8655506123bf565b601f19841661236d86611fc6565b60005b8281101561239557848901518255600182019150602085019450602081019050612370565b868310156123b257848901516123ae601f891682612138565b8355505b6001600288020188555050505b505050505050565b7f43616d706169676e206973207061757365642e00000000000000000000000000600082015250565b60006123fd60138361156a565b9150612408826123c7565b602082019050919050565b6000602082019050818103600083015261242c816123f0565b9050919050565b7f5f696e6465782069732067726561746572207468616e2074686520746965722060008201527f6c656e6774680000000000000000000000000000000000000000000000000000602082015250565b600061248f60268361156a565b915061249a82612433565b604082019050919050565b600060208201905081810360008301526124be81612482565b9050919050565b7f6574686572206d75737420657175616c2074696572277320616d6f756e740000600082015250565b60006124fb601e8361156a565b9150612506826124c5565b602082019050919050565b6000602082019050818103600083015261252a816124ee565b9050919050565b600061253c826114fc565b91507fffffffffffffffffffffffffffffffffffffffffffffffffffffffffffffffff820361256e5761256d611c8c565b5b60018201905091905056fea2646970667358221220ea0dfb029e6f00ca397e9f2aaaf20a1f5482462faac1b2d4c5c15ecc7421d0cd64736f6c634300081c0033",
  "linkReferences": {},
  "deployedLinkReferences": {}
}