{
  "_format": "hh-sol-artifact-1",
  "contractName": "RCCStake",
  "sourceName": "contracts/RCCStake.sol",
  "abi": [
    {
      "inputs": [],
      "name": "AccessControlBadConfirmation",
      "type": "error"
    },
    {
      "inputs": [
        {
          "internalType": "address",
          "name": "account",
          "type": "address"
        },
        {
          "internalType": "bytes32",
          "name": "neededRole",
          "type": "bytes32"
        }
      ],
      "name": "AccessControlUnauthorizedAccount",
      "type": "error"
    },
    {
      "inputs": [
        {
          "internalType": "address",
          "name": "target",
          "type": "address"
        }
      ],
      "name": "AddressEmptyCode",
      "type": "error"
    },
    {
      "inputs": [
        {
          "internalType": "address",
          "name": "account",
          "type": "address"
        }
      ],
      "name": "AddressInsufficientBalance",
      "type": "error"
    },
    {
      "inputs": [
        {
          "internalType": "address",
          "name": "implementation",
          "type": "address"
        }
      ],
      "name": "ERC1967InvalidImplementation",
      "type": "error"
    },
    {
      "inputs": [],
      "name": "ERC1967NonPayable",
      "type": "error"
    },
    {
      "inputs": [],
      "name": "EnforcedPause",
      "type": "error"
    },
    {
      "inputs": [],
      "name": "ExpectedPause",
      "type": "error"
    },
    {
      "inputs": [],
      "name": "FailedInnerCall",
      "type": "error"
    },
    {
      "inputs": [],
      "name": "InvalidInitialization",
      "type": "error"
    },
    {
      "inputs": [],
      "name": "NotInitializing",
      "type": "error"
    },
    {
      "inputs": [
        {
          "internalType": "address",
          "name": "token",
          "type": "address"
        }
      ],
      "name": "SafeERC20FailedOperation",
      "type": "error"
    },
    {
      "inputs": [],
      "name": "UUPSUnauthorizedCallContext",
      "type": "error"
    },
    {
      "inputs": [
        {
          "internalType": "bytes32",
          "name": "slot",
          "type": "bytes32"
        }
      ],
      "name": "UUPSUnsupportedProxiableUUID",
      "type": "error"
    },
    {
      "anonymous": false,
      "inputs": [
        {
          "indexed": true,
          "internalType": "address",
          "name": "stTokenAddress",
          "type": "address"
        },
        {
          "indexed": true,
          "internalType": "uint256",
          "name": "poolWeight",
          "type": "uint256"
        },
        {
          "indexed": true,
          "internalType": "uint256",
          "name": "lastRewardBlock",
          "type": "uint256"
        },
        {
          "indexed": false,
          "internalType": "uint256",
          "name": "minDepositAmount",
          "type": "uint256"
        },
        {
          "indexed": false,
          "internalType": "uint256",
          "name": "unstakeLockedBlocks",
          "type": "uint256"
        }
      ],
      "name": "AddPool",
      "type": "event"
    },
    {
      "anonymous": false,
      "inputs": [
        {
          "indexed": true,
          "internalType": "address",
          "name": "user",
          "type": "address"
        },
        {
          "indexed": true,
          "internalType": "uint256",
          "name": "poolId",
          "type": "uint256"
        },
        {
          "indexed": false,
          "internalType": "uint256",
          "name": "rccReward",
          "type": "uint256"
        }
      ],
      "name": "Claim",
      "type": "event"
    },
    {
      "anonymous": false,
      "inputs": [
        {
          "indexed": true,
          "internalType": "address",
          "name": "user",
          "type": "address"
        },
        {
          "indexed": true,
          "internalType": "uint256",
          "name": "poolId",
          "type": "uint256"
        },
        {
          "indexed": false,
          "internalType": "uint256",
          "name": "amount",
          "type": "uint256"
        }
      ],
      "name": "Deposit",
      "type": "event"
    },
    {
      "anonymous": false,
      "inputs": [
        {
          "indexed": false,
          "internalType": "uint64",
          "name": "version",
          "type": "uint64"
        }
      ],
      "name": "Initialized",
      "type": "event"
    },
    {
      "anonymous": false,
      "inputs": [],
      "name": "PauseClaim",
      "type": "event"
    },
    {
      "anonymous": false,
      "inputs": [],
      "name": "PauseWithdraw",
      "type": "event"
    },
    {
      "anonymous": false,
      "inputs": [
        {
          "indexed": false,
          "internalType": "address",
          "name": "account",
          "type": "address"
        }
      ],
      "name": "Paused",
      "type": "event"
    },
    {
      "anonymous": false,
      "inputs": [
        {
          "indexed": true,
          "internalType": "address",
          "name": "user",
          "type": "address"
        },
        {
          "indexed": true,
          "internalType": "uint256",
          "name": "poolId",
          "type": "uint256"
        },
        {
          "indexed": false,
          "internalType": "uint256",
          "name": "amount",
          "type": "uint256"
        }
      ],
      "name": "RequestUnstake",
      "type": "event"
    },
    {
      "anonymous": false,
      "inputs": [
        {
          "indexed": true,
          "internalType": "bytes32",
          "name": "role",
          "type": "bytes32"
        },
        {
          "indexed": true,
          "internalType": "bytes32",
          "name": "previousAdminRole",
          "type": "bytes32"
        },
        {
          "indexed": true,
          "internalType": "bytes32",
          "name": "newAdminRole",
          "type": "bytes32"
        }
      ],
      "name": "RoleAdminChanged",
      "type": "event"
    },
    {
      "anonymous": false,
      "inputs": [
        {
          "indexed": true,
          "internalType": "bytes32",
          "name": "role",
          "type": "bytes32"
        },
        {
          "indexed": true,
          "internalType": "address",
          "name": "account",
          "type": "address"
        },
        {
          "indexed": true,
          "internalType": "address",
          "name": "sender",
          "type": "address"
        }
      ],
      "name": "RoleGranted",
      "type": "event"
    },
    {
      "anonymous": false,
      "inputs": [
        {
          "indexed": true,
          "internalType": "bytes32",
          "name": "role",
          "type": "bytes32"
        },
        {
          "indexed": true,
          "internalType": "address",
          "name": "account",
          "type": "address"
        },
        {
          "indexed": true,
          "internalType": "address",
          "name": "sender",
          "type": "address"
        }
      ],
      "name": "RoleRevoked",
      "type": "event"
    },
    {
      "anonymous": false,
      "inputs": [
        {
          "indexed": true,
          "internalType": "uint256",
          "name": "endBlock",
          "type": "uint256"
        }
      ],
      "name": "SetEndBlock",
      "type": "event"
    },
    {
      "anonymous": false,
      "inputs": [
        {
          "indexed": true,
          "internalType": "uint256",
          "name": "poolId",
          "type": "uint256"
        },
        {
          "indexed": true,
          "internalType": "uint256",
          "name": "poolWeight",
          "type": "uint256"
        },
        {
          "indexed": false,
          "internalType": "uint256",
          "name": "totalPoolWeight",
          "type": "uint256"
        }
      ],
      "name": "SetPoolWeight",
      "type": "event"
    },
    {
      "anonymous": false,
      "inputs": [
        {
          "indexed": true,
          "internalType": "contract IERC20",
          "name": "RCC",
          "type": "address"
        }
      ],
      "name": "SetRCC",
      "type": "event"
    },
    {
      "anonymous": false,
      "inputs": [
        {
          "indexed": true,
          "internalType": "uint256",
          "name": "rccPerBlock",
          "type": "uint256"
        }
      ],
      "name": "SetRCCPerBlock",
      "type": "event"
    },
    {
      "anonymous": false,
      "inputs": [
        {
          "indexed": true,
          "internalType": "uint256",
          "name": "startBlock",
          "type": "uint256"
        }
      ],
      "name": "SetStartBlock",
      "type": "event"
    },
    {
      "anonymous": false,
      "inputs": [],
      "name": "UnpauseClaim",
      "type": "event"
    },
    {
      "anonymous": false,
      "inputs": [],
      "name": "UnpauseWithdraw",
      "type": "event"
    },
    {
      "anonymous": false,
      "inputs": [
        {
          "indexed": false,
          "internalType": "address",
          "name": "account",
          "type": "address"
        }
      ],
      "name": "Unpaused",
      "type": "event"
    },
    {
      "anonymous": false,
      "inputs": [
        {
          "indexed": true,
          "internalType": "uint256",
          "name": "poolId",
          "type": "uint256"
        },
        {
          "indexed": true,
          "internalType": "uint256",
          "name": "lastRewardBlock",
          "type": "uint256"
        },
        {
          "indexed": false,
          "internalType": "uint256",
          "name": "totalRCC",
          "type": "uint256"
        }
      ],
      "name": "UpdatePool",
      "type": "event"
    },
    {
      "anonymous": false,
      "inputs": [
        {
          "indexed": true,
          "internalType": "uint256",
          "name": "poolId",
          "type": "uint256"
        },
        {
          "indexed": true,
          "internalType": "uint256",
          "name": "minDepositAmount",
          "type": "uint256"
        },
        {
          "indexed": true,
          "internalType": "uint256",
          "name": "unstakeLockedBlocks",
          "type": "uint256"
        }
      ],
      "name": "UpdatePoolInfo",
      "type": "event"
    },
    {
      "anonymous": false,
      "inputs": [
        {
          "indexed": true,
          "internalType": "address",
          "name": "implementation",
          "type": "address"
        }
      ],
      "name": "Upgraded",
      "type": "event"
    },
    {
      "anonymous": false,
      "inputs": [
        {
          "indexed": true,
          "internalType": "address",
          "name": "user",
          "type": "address"
        },
        {
          "indexed": true,
          "internalType": "uint256",
          "name": "poolId",
          "type": "uint256"
        },
        {
          "indexed": false,
          "internalType": "uint256",
          "name": "amount",
          "type": "uint256"
        },
        {
          "indexed": true,
          "internalType": "uint256",
          "name": "blockNumber",
          "type": "uint256"
        }
      ],
      "name": "Withdraw",
      "type": "event"
    },
    {
      "inputs": [],
      "name": "ADMIN_ROLE",
      "outputs": [
        {
          "internalType": "bytes32",
          "name": "",
          "type": "bytes32"
        }
      ],
      "stateMutability": "view",
      "type": "function"
    },
    {
      "inputs": [],
      "name": "DEFAULT_ADMIN_ROLE",
      "outputs": [
        {
          "internalType": "bytes32",
          "name": "",
          "type": "bytes32"
        }
      ],
      "stateMutability": "view",
      "type": "function"
    },
    {
      "inputs": [],
      "name": "ETH_PID",
      "outputs": [
        {
          "internalType": "uint256",
          "name": "",
          "type": "uint256"
        }
      ],
      "stateMutability": "view",
      "type": "function"
    },
    {
      "inputs": [],
      "name": "RCC",
      "outputs": [
        {
          "internalType": "contract IERC20",
          "name": "",
          "type": "address"
        }
      ],
      "stateMutability": "view",
      "type": "function"
    },
    {
      "inputs": [],
      "name": "UPGRADE_INTERFACE_VERSION",
      "outputs": [
        {
          "internalType": "string",
          "name": "",
          "type": "string"
        }
      ],
      "stateMutability": "view",
      "type": "function"
    },
    {
      "inputs": [],
      "name": "UPGRADE_ROLE",
      "outputs": [
        {
          "internalType": "bytes32",
          "name": "",
          "type": "bytes32"
        }
      ],
      "stateMutability": "view",
      "type": "function"
    },
    {
      "inputs": [
        {
          "internalType": "address",
          "name": "_stTokenAddress",
          "type": "address"
        },
        {
          "internalType": "uint256",
          "name": "_poolWeight",
          "type": "uint256"
        },
        {
          "internalType": "uint256",
          "name": "_minDepositAmount",
          "type": "uint256"
        },
        {
          "internalType": "uint256",
          "name": "_unstakeLockedBlocks",
          "type": "uint256"
        },
        {
          "internalType": "bool",
          "name": "_withUpdate",
          "type": "bool"
        }
      ],
      "name": "addPool",
      "outputs": [],
      "stateMutability": "nonpayable",
      "type": "function"
    },
    {
      "inputs": [
        {
          "internalType": "uint256",
          "name": "_pid",
          "type": "uint256"
        }
      ],
      "name": "claim",
      "outputs": [],
      "stateMutability": "nonpayable",
      "type": "function"
    },
    {
      "inputs": [],
      "name": "claimPaused",
      "outputs": [
        {
          "internalType": "bool",
          "name": "",
          "type": "bool"
        }
      ],
      "stateMutability": "view",
      "type": "function"
    },
    {
      "inputs": [
        {
          "internalType": "uint256",
          "name": "_pid",
          "type": "uint256"
        },
        {
          "internalType": "uint256",
          "name": "_amount",
          "type": "uint256"
        }
      ],
      "name": "deposit",
      "outputs": [],
      "stateMutability": "nonpayable",
      "type": "function"
    },
    {
      "inputs": [],
      "name": "depositETH",
      "outputs": [],
      "stateMutability": "payable",
      "type": "function"
    },
    {
      "inputs": [],
      "name": "endBlock",
      "outputs": [
        {
          "internalType": "uint256",
          "name": "",
          "type": "uint256"
        }
      ],
      "stateMutability": "view",
      "type": "function"
    },
    {
      "inputs": [
        {
          "internalType": "uint256",
          "name": "_from",
          "type": "uint256"
        },
        {
          "internalType": "uint256",
          "name": "_to",
          "type": "uint256"
        }
      ],
      "name": "getMultiplier",
      "outputs": [
        {
          "internalType": "uint256",
          "name": "multiplier",
          "type": "uint256"
        }
      ],
      "stateMutability": "view",
      "type": "function"
    },
    {
      "inputs": [
        {
          "internalType": "bytes32",
          "name": "role",
          "type": "bytes32"
        }
      ],
      "name": "getRoleAdmin",
      "outputs": [
        {
          "internalType": "bytes32",
          "name": "",
          "type": "bytes32"
        }
      ],
      "stateMutability": "view",
      "type": "function"
    },
    {
      "inputs": [
        {
          "internalType": "bytes32",
          "name": "role",
          "type": "bytes32"
        },
        {
          "internalType": "address",
          "name": "account",
          "type": "address"
        }
      ],
      "name": "grantRole",
      "outputs": [],
      "stateMutability": "nonpayable",
      "type": "function"
    },
    {
      "inputs": [
        {
          "internalType": "bytes32",
          "name": "role",
          "type": "bytes32"
        },
        {
          "internalType": "address",
          "name": "account",
          "type": "address"
        }
      ],
      "name": "hasRole",
      "outputs": [
        {
          "internalType": "bool",
          "name": "",
          "type": "bool"
        }
      ],
      "stateMutability": "view",
      "type": "function"
    },
    {
      "inputs": [
        {
          "internalType": "contract IERC20",
          "name": "_RCC",
          "type": "address"
        },
        {
          "internalType": "uint256",
          "name": "_startBlock",
          "type": "uint256"
        },
        {
          "internalType": "uint256",
          "name": "_endBlock",
          "type": "uint256"
        },
        {
          "internalType": "uint256",
          "name": "_rccPerBlock",
          "type": "uint256"
        }
      ],
      "name": "initialize",
      "outputs": [],
      "stateMutability": "nonpayable",
      "type": "function"
    },
    {
      "inputs": [],
      "name": "massUpdatePools",
      "outputs": [],
      "stateMutability": "nonpayable",
      "type": "function"
    },
    {
      "inputs": [],
      "name": "pauseClaim",
      "outputs": [],
      "stateMutability": "nonpayable",
      "type": "function"
    },
    {
      "inputs": [],
      "name": "pauseWithdraw",
      "outputs": [],
      "stateMutability": "nonpayable",
      "type": "function"
    },
    {
      "inputs": [],
      "name": "paused",
      "outputs": [
        {
          "internalType": "bool",
          "name": "",
          "type": "bool"
        }
      ],
      "stateMutability": "view",
      "type": "function"
    },
    {
      "inputs": [
        {
          "internalType": "uint256",
          "name": "",
          "type": "uint256"
        }
      ],
      "name": "pool",
      "outputs": [
        {
          "internalType": "address",
          "name": "stTokenAddress",
          "type": "address"
        },
        {
          "internalType": "uint256",
          "name": "poolWeight",
          "type": "uint256"
        },
        {
          "internalType": "uint256",
          "name": "lastRewardBlock",
          "type": "uint256"
        },
        {
          "internalType": "uint256",
          "name": "accRCCPerST",
          "type": "uint256"
        },
        {
          "internalType": "uint256",
          "name": "stTokenAmount",
          "type": "uint256"
        },
        {
          "internalType": "uint256",
          "name": "minDepositAmount",
          "type": "uint256"
        },
        {
          "internalType": "uint256",
          "name": "unstakeLockedBlocks",
          "type": "uint256"
        }
      ],
      "stateMutability": "view",
      "type": "function"
    },
    {
      "inputs": [],
      "name": "poolLength",
      "outputs": [
        {
          "internalType": "uint256",
          "name": "",
          "type": "uint256"
        }
      ],
      "stateMutability": "view",
      "type": "function"
    },
    {
      "inputs": [],
      "name": "proxiableUUID",
      "outputs": [
        {
          "internalType": "bytes32",
          "name": "",
          "type": "bytes32"
        }
      ],
      "stateMutability": "view",
      "type": "function"
    },
    {
      "inputs": [],
      "name": "rccPerBlock",
      "outputs": [
        {
          "internalType": "uint256",
          "name": "",
          "type": "uint256"
        }
      ],
      "stateMutability": "view",
      "type": "function"
    },
    {
      "inputs": [
        {
          "internalType": "bytes32",
          "name": "role",
          "type": "bytes32"
        },
        {
          "internalType": "address",
          "name": "callerConfirmation",
          "type": "address"
        }
      ],
      "name": "renounceRole",
      "outputs": [],
      "stateMutability": "nonpayable",
      "type": "function"
    },
    {
      "inputs": [
        {
          "internalType": "bytes32",
          "name": "role",
          "type": "bytes32"
        },
        {
          "internalType": "address",
          "name": "account",
          "type": "address"
        }
      ],
      "name": "revokeRole",
      "outputs": [],
      "stateMutability": "nonpayable",
      "type": "function"
    },
    {
      "inputs": [
        {
          "internalType": "uint256",
          "name": "_endBlock",
          "type": "uint256"
        }
      ],
      "name": "setEndBlock",
      "outputs": [],
      "stateMutability": "nonpayable",
      "type": "function"
    },
    {
      "inputs": [
        {
          "internalType": "uint256",
          "name": "_pid",
          "type": "uint256"
        },
        {
          "internalType": "uint256",
          "name": "_poolWeight",
          "type": "uint256"
        },
        {
          "internalType": "bool",
          "name": "_withUpdate",
          "type": "bool"
        }
      ],
      "name": "setPoolWeight",
      "outputs": [],
      "stateMutability": "nonpayable",
      "type": "function"
    },
    {
      "inputs": [
        {
          "internalType": "contract IERC20",
          "name": "_RCC",
          "type": "address"
        }
      ],
      "name": "setRCC",
      "outputs": [],
      "stateMutability": "nonpayable",
      "type": "function"
    },
    {
      "inputs": [
        {
          "internalType": "uint256",
          "name": "_rccPerBlock",
          "type": "uint256"
        }
      ],
      "name": "setRCCPerBlock",
      "outputs": [],
      "stateMutability": "nonpayable",
      "type": "function"
    },
    {
      "inputs": [
        {
          "internalType": "uint256",
          "name": "_startBlock",
          "type": "uint256"
        }
      ],
      "name": "setStartBlock",
      "outputs": [],
      "stateMutability": "nonpayable",
      "type": "function"
    },
    {
      "inputs": [
        {
          "internalType": "uint256",
          "name": "_pid",
          "type": "uint256"
        },
        {
          "internalType": "address",
          "name": "_user",
          "type": "address"
        }
      ],
      "name": "stakingBalance",
      "outputs": [
        {
          "internalType": "uint256",
          "name": "",
          "type": "uint256"
        }
      ],
      "stateMutability": "view",
      "type": "function"
    },
    {
      "inputs": [],
      "name": "startBlock",
      "outputs": [
        {
          "internalType": "uint256",
          "name": "",
          "type": "uint256"
        }
      ],
      "stateMutability": "view",
      "type": "function"
    },
    {
      "inputs": [
        {
          "internalType": "bytes4",
          "name": "interfaceId",
          "type": "bytes4"
        }
      ],
      "name": "supportsInterface",
      "outputs": [
        {
          "internalType": "bool",
          "name": "",
          "type": "bool"
        }
      ],
      "stateMutability": "view",
      "type": "function"
    },
    {
      "inputs": [],
      "name": "totalPoolWeight",
      "outputs": [
        {
          "internalType": "uint256",
          "name": "",
          "type": "uint256"
        }
      ],
      "stateMutability": "view",
      "type": "function"
    },
    {
      "inputs": [],
      "name": "unpauseClaim",
      "outputs": [],
      "stateMutability": "nonpayable",
      "type": "function"
    },
    {
      "inputs": [],
      "name": "unpauseWithdraw",
      "outputs": [],
      "stateMutability": "nonpayable",
      "type": "function"
    },
    {
      "inputs": [
        {
          "internalType": "uint256",
          "name": "_pid",
          "type": "uint256"
        },
        {
          "internalType": "uint256",
          "name": "_amount",
          "type": "uint256"
        }
      ],
      "name": "unstake",
      "outputs": [],
      "stateMutability": "nonpayable",
      "type": "function"
    },
    {
      "inputs": [
        {
          "internalType": "uint256",
          "name": "_pid",
          "type": "uint256"
        }
      ],
      "name": "updatePool",
      "outputs": [],
      "stateMutability": "nonpayable",
      "type": "function"
    },
    {
      "inputs": [
        {
          "internalType": "uint256",
          "name": "_pid",
          "type": "uint256"
        },
        {
          "internalType": "uint256",
          "name": "_minDepositAmount",
          "type": "uint256"
        },
        {
          "internalType": "uint256",
          "name": "_unstakeLockedBlocks",
          "type": "uint256"
        }
      ],
      "name": "updatePool",
      "outputs": [],
      "stateMutability": "nonpayable",
      "type": "function"
    },
    {
      "inputs": [
        {
          "internalType": "address",
          "name": "newImplementation",
          "type": "address"
        },
        {
          "internalType": "bytes",
          "name": "data",
          "type": "bytes"
        }
      ],
      "name": "upgradeToAndCall",
      "outputs": [],
      "stateMutability": "payable",
      "type": "function"
    },
    {
      "inputs": [
        {
          "internalType": "uint256",
          "name": "",
          "type": "uint256"
        },
        {
          "internalType": "address",
          "name": "",
          "type": "address"
        }
      ],
      "name": "user",
      "outputs": [
        {
          "internalType": "uint256",
          "name": "stAmount",
          "type": "uint256"
        },
        {
          "internalType": "uint256",
          "name": "finishedRCC",
          "type": "uint256"
        },
        {
          "internalType": "uint256",
          "name": "pendingRCC",
          "type": "uint256"
        }
      ],
      "stateMutability": "view",
      "type": "function"
    },
    {
      "inputs": [
        {
          "internalType": "uint256",
          "name": "_pid",
          "type": "uint256"
        }
      ],
      "name": "withdraw",
      "outputs": [],
      "stateMutability": "nonpayable",
      "type": "function"
    },
    {
      "inputs": [
        {
          "internalType": "uint256",
          "name": "_pid",
          "type": "uint256"
        },
        {
          "internalType": "address",
          "name": "_user",
          "type": "address"
        }
      ],
      "name": "withdrawAmount",
      "outputs": [
        {
          "internalType": "uint256",
          "name": "requestAmount",
          "type": "uint256"
        },
        {
          "internalType": "uint256",
          "name": "pendingWithdrawAmount",
          "type": "uint256"
        }
      ],
      "stateMutability": "view",
      "type": "function"
    },
    {
      "inputs": [],
      "name": "withdrawPaused",
      "outputs": [
        {
          "internalType": "bool",
          "name": "",
          "type": "bool"
        }
      ],
      "stateMutability": "view",
      "type": "function"
    }
  ],
  "bytecode": "0x60a06040523073ffffffffffffffffffffffffffffffffffffffff1660809073ffffffffffffffffffffffffffffffffffffffff1681525034801561004357600080fd5b50608051615ca26200006e6000396000818161342a0152818161347f01526137150152615ca26000f3fe60806040526004361061027d5760003560e01c80638dbb1e3a1161014f578063bfc3ebba116100c1578063f35e4a6e1161007a578063f35e4a6e1461091b578063f5485d3214610944578063f6326fb31461096d578063fad07ece14610977578063fe313112146109a0578063ff423357146109e35761027d565b8063bfc3ebba14610835578063c713aa9414610860578063d547741f14610889578063d86c0444146108b2578063de065caa146108db578063e2bbb158146108f25761027d565b8063a72d5bf411610113578063a72d5bf414610737578063ab5e124a14610762578063ad3cb1cc1461078d578063b6d9d919146107b8578063b908afa8146107e1578063bed66c081461080c5761027d565b80638dbb1e3a146106525780638ff095f91461068f57806391d14854146106a65780639e2c8a5b146106e3578063a217fddf1461070c5761027d565b8063379607f5116101f35780635bb6d007116101ac5780635bb6d0071461058c5780635c975abb146105a35780636155e3de146105ce578063630b5ba1146105e557806370ff0173146105fc57806375b238fc146106275761027d565b8063379607f51461049f57806348cd4cb1146104c85780634ec81af1146104f35780634f1ef2861461051c57806351eb05a61461053857806352d1902d146105615761027d565b8063248a9ca311610245578063248a9ca31461037d5780632e1a7d4d146103ba5780632f2ff15d146103e35780632f3ffb9f1461040c57806336568abe1461043757806337849b3c146104605761027d565b806301ffc9a71461028257806302559004146102bf578063081e3eda146102ea578063083c6323146103155780631154823414610340575b600080fd5b34801561028e57600080fd5b506102a960048036038101906102a49190614265565b610a21565b6040516102b691906142ad565b60405180910390f35b3480156102cb57600080fd5b506102d4610a9b565b6040516102e191906142e1565b60405180910390f35b3480156102f657600080fd5b506102ff610aa1565b60405161030c91906142e1565b60405180910390f35b34801561032157600080fd5b5061032a610aae565b60405161033791906142e1565b60405180910390f35b34801561034c57600080fd5b5061036760048036038101906103629190614386565b610ab4565b60405161037491906142e1565b60405180910390f35b34801561038957600080fd5b506103a4600480360381019061039f91906143fc565b610b5b565b6040516103b19190614438565b60405180910390f35b3480156103c657600080fd5b506103e160048036038101906103dc9190614453565b610b89565b005b3480156103ef57600080fd5b5061040a60048036038101906104059190614480565b610f4d565b005b34801561041857600080fd5b50610421610f6f565b60405161042e91906142ad565b60405180910390f35b34801561044357600080fd5b5061045e60048036038101906104599190614480565b610f82565b005b34801561046c57600080fd5b5061048760048036038101906104829190614386565b610ffd565b604051610496939291906144c0565b60405180910390f35b3480156104ab57600080fd5b506104c660048036038101906104c19190614453565b611034565b005b3480156104d457600080fd5b506104dd611243565b6040516104ea91906142e1565b60405180910390f35b3480156104ff57600080fd5b5061051a60048036038101906105159190614535565b611249565b005b610536600480360381019061053191906146e2565b6114b3565b005b34801561054457600080fd5b5061055f600480360381019061055a9190614453565b6114d2565b005b34801561056d57600080fd5b506105766117a3565b6040516105839190614438565b60405180910390f35b34801561059857600080fd5b506105a16117d6565b005b3480156105af57600080fd5b506105b8611899565b6040516105c591906142ad565b60405180910390f35b3480156105da57600080fd5b506105e36118be565b005b3480156105f157600080fd5b506105fa611982565b005b34801561060857600080fd5b506106116119b7565b60405161061e91906142e1565b60405180910390f35b34801561063357600080fd5b5061063c6119bd565b6040516106499190614438565b60405180910390f35b34801561065e57600080fd5b506106796004803603810190610674919061473e565b6119e1565b60405161068691906142e1565b60405180910390f35b34801561069b57600080fd5b506106a4611afa565b005b3480156106b257600080fd5b506106cd60048036038101906106c89190614480565b611bbe565b6040516106da91906142ad565b60405180910390f35b3480156106ef57600080fd5b5061070a6004803603810190610705919061473e565b611c37565b005b34801561071857600080fd5b50610721611f24565b60405161072e9190614438565b60405180910390f35b34801561074357600080fd5b5061074c611f2b565b60405161075991906147dd565b60405180910390f35b34801561076e57600080fd5b50610777611f51565b60405161078491906142ad565b60405180910390f35b34801561079957600080fd5b506107a2611f64565b6040516107af9190614877565b60405180910390f35b3480156107c457600080fd5b506107df60048036038101906107da91906148c5565b611f9d565b005b3480156107ed57600080fd5b506107f66122cf565b6040516108039190614438565b60405180910390f35b34801561081857600080fd5b50610833600480360381019061082e9190614453565b6122f3565b005b34801561084157600080fd5b5061084a612398565b60405161085791906142e1565b60405180910390f35b34801561086c57600080fd5b5061088760048036038101906108829190614453565b61239d565b005b34801561089557600080fd5b506108b060048036038101906108ab9190614480565b612444565b005b3480156108be57600080fd5b506108d960048036038101906108d49190614940565b612466565b005b3480156108e757600080fd5b506108f0612562565b005b3480156108fe57600080fd5b506109196004803603810190610914919061473e565b612625565b005b34801561092757600080fd5b50610942600480360381019061093d9190614453565b61278f565b005b34801561095057600080fd5b5061096b60048036038101906109669190614993565b612836565b005b61097561290a565b005b34801561098357600080fd5b5061099e600480360381019061099991906149c0565b612a27565b005b3480156109ac57600080fd5b506109c760048036038101906109c29190614453565b612b9b565b6040516109da9796959493929190614a22565b60405180910390f35b3480156109ef57600080fd5b50610a0a6004803603810190610a059190614386565b612c0d565b604051610a18929190614a91565b60405180910390f35b60007f7965db0b000000000000000000000000000000000000000000000000000000007bffffffffffffffffffffffffffffffffffffffffffffffffffffffff1916827bffffffffffffffffffffffffffffffffffffffffffffffffffffffff19161480610a945750610a9382612d74565b5b9050919050565b60045481565b6000600580549050905090565b60015481565b6000826005805490508110610afe576040517f08c379a0000000000000000000000000000000000000000000000000000000008152600401610af590614b06565b60405180910390fd5b6006600085815260200190815260200160002060008473ffffffffffffffffffffffffffffffffffffffff1673ffffffffffffffffffffffffffffffffffffffff1681526020019081526020016000206000015491505092915050565b600080610b66612dde565b905080600001600084815260200190815260200160002060010154915050919050565b610b91612e06565b806005805490508110610bd9576040517f08c379a0000000000000000000000000000000000000000000000000000000008152600401610bd090614b06565b60405180910390fd5b600360009054906101000a900460ff1615610c29576040517f08c379a0000000000000000000000000000000000000000000000000000000008152600401610c2090614b72565b60405180910390fd5b600060058381548110610c3f57610c3e614b92565b5b9060005260206000209060070201905060006006600085815260200190815260200160002060003373ffffffffffffffffffffffffffffffffffffffff1673ffffffffffffffffffffffffffffffffffffffff168152602001908152602001600020905060008060005b8360030180549050811015610d3c5743846003018281548110610ccf57610cce614b92565b5b90600052602060002090600202016001015411610d3c57836003018181548110610cfc57610cfb614b92565b5b90600052602060002090600202016000015483610d199190614bf0565b92508180610d2690614c24565b9250508080610d3490614c24565b915050610ca9565b5060005b818460030180549050610d539190614c6c565b811015610dd757836003018282610d6a9190614bf0565b81548110610d7b57610d7a614b92565b5b9060005260206000209060020201846003018281548110610d9f57610d9e614b92565b5b906000526020600020906002020160008201548160000155600182015481600101559050508080610dcf90614c24565b915050610d40565b5060005b81811015610e335783600301805480610df757610df6614ca0565b5b60019003818190600052602060002090600202016000808201600090556001820160009055505090558080610e2b90614c24565b915050610ddb565b506000821115610ef557600073ffffffffffffffffffffffffffffffffffffffff168460000160009054906101000a900473ffffffffffffffffffffffffffffffffffffffff1673ffffffffffffffffffffffffffffffffffffffff1603610ea457610e9f3383612e47565b610ef4565b610ef333838660000160009054906101000a900473ffffffffffffffffffffffffffffffffffffffff1673ffffffffffffffffffffffffffffffffffffffff16612f599092919063ffffffff16565b5b5b43863373ffffffffffffffffffffffffffffffffffffffff167f02f25270a4d87bea75db541cdfe559334a275b4a233520ed6c0a2429667cca9485604051610f3d91906142e1565b60405180910390a4505050505050565b610f5682610b5b565b610f5f81612fd8565b610f698383612fec565b50505050565b600360009054906101000a900460ff1681565b610f8a6130ed565b73ffffffffffffffffffffffffffffffffffffffff168173ffffffffffffffffffffffffffffffffffffffff1614610fee576040517f6697b23200000000000000000000000000000000000000000000000000000000815260040160405180910390fd5b610ff882826130f5565b505050565b6006602052816000526040600020602052806000526040600020600091509150508060000154908060010154908060020154905083565b61103c612e06565b806005805490508110611084576040517f08c379a000000000000000000000000000000000000000000000000000000000815260040161107b90614b06565b60405180910390fd5b600360019054906101000a900460ff16156110d4576040517f08c379a00000000000000000000000000000000000000000000000000000000081526004016110cb90614d1b565b60405180910390fd5b6000600583815481106110ea576110e9614b92565b5b9060005260206000209060070201905060006006600085815260200190815260200160002060003373ffffffffffffffffffffffffffffffffffffffff1673ffffffffffffffffffffffffffffffffffffffff1681526020019081526020016000209050611157846114d2565b600081600201548260010154670de0b6b3a7640000856003015485600001546111809190614d3b565b61118a9190614dac565b6111949190614c6c565b61119e9190614bf0565b905060008111156111be57600082600201819055506111bd33826131f7565b5b670de0b6b3a7640000836003015483600001546111db9190614d3b565b6111e59190614dac565b8260010181905550843373ffffffffffffffffffffffffffffffffffffffff167f34fcbac0073d7c3d388e51312faf357774904998eeb8fca628b9e6f65ee1cbf78360405161123491906142e1565b60405180910390a35050505050565b60005481565b60006112536133ec565b905060008160000160089054906101000a900460ff1615905060008260000160009054906101000a900467ffffffffffffffff1690506000808267ffffffffffffffff161480156112a15750825b9050600060018367ffffffffffffffff161480156112d6575060003073ffffffffffffffffffffffffffffffffffffffff163b145b9050811580156112e4575080155b1561131b576040517ff92ee8a900000000000000000000000000000000000000000000000000000000815260040160405180910390fd5b60018560000160006101000a81548167ffffffffffffffff021916908367ffffffffffffffff160217905550831561136b5760018560000160086101000a81548160ff0219169083151502179055505b86881115801561137b5750600086115b6113ba576040517f08c379a00000000000000000000000000000000000000000000000000000000081526004016113b190614e29565b60405180910390fd5b6113c2613414565b6113ca61341e565b6113d76000801b33612fec565b506114027fcab03bc4dbcc648cd59d6bbe9f848d1e9092f914016aa290ee92e18700d1e6f933612fec565b5061142d7f589d473ba17c0f47d494622893831497bad25919b9afb8e33e9521b8963fccde33612fec565b5061143789612836565b87600081905550866001819055508560028190555083156114a85760008560000160086101000a81548160ff0219169083151502179055507fc7f505b2f371ae2175ee4913f4499e1f2633a7b5936321eed1cdaeb6115181d2600160405161149f9190614e98565b60405180910390a15b505050505050505050565b6114bb613428565b6114c48261350e565b6114ce828261353c565b5050565b80600580549050811061151a576040517f08c379a000000000000000000000000000000000000000000000000000000000815260040161151190614b06565b60405180910390fd5b6000600583815481106115305761152f614b92565b5b9060005260206000209060070201905080600201544311611551575061179f565b600080611578836001015461156a8560020154436119e1565b61365b90919063ffffffff16565b91509150816115bc576040517f08c379a00000000000000000000000000000000000000000000000000000000081526004016115b390614eff565b60405180910390fd5b6115d1600454826136ae90919063ffffffff16565b809250819350505081611619576040517f08c379a000000000000000000000000000000000000000000000000000000000815260040161161090614eff565b60405180910390fd5b600083600401549050600081111561175457600080611649670de0b6b3a76400008561365b90919063ffffffff16565b915091508161168d576040517f08c379a000000000000000000000000000000000000000000000000000000000815260040161168490614eff565b60405180910390fd5b6116a083826136ae90919063ffffffff16565b8092508193505050816116e8576040517f08c379a00000000000000000000000000000000000000000000000000000000081526004016116df90614eff565b60405180910390fd5b6000806117028389600301546136e490919063ffffffff16565b9150915081611746576040517f08c379a000000000000000000000000000000000000000000000000000000000815260040161173d90614eff565b60405180910390fd5b808860030181905550505050505b4384600201819055508360020154867ff5d2d72d9b25d6853afd7d0554a113b705234b6a68bb36b7f1436629946324118460405161179291906142e1565b60405180910390a3505050505b5050565b60006117ad613713565b7f360894a13ba1a3210667c828492db98dca3e2076cc3735a920a3ca505d382bbc60001b905090565b7f589d473ba17c0f47d494622893831497bad25919b9afb8e33e9521b8963fccde61180081612fd8565b600360009054906101000a900460ff1661184f576040517f08c379a000000000000000000000000000000000000000000000000000000000815260040161184690614f91565b60405180910390fd5b6000600360006101000a81548160ff0219169083151502179055507f1c84bcaead48b692cc46b9b12e9a068951a59c99a2e2bf10b00b60b403cf12e260405160405180910390a150565b6000806118a461379a565b90508060000160009054906101000a900460ff1691505090565b7f589d473ba17c0f47d494622893831497bad25919b9afb8e33e9521b8963fccde6118e881612fd8565b600360009054906101000a900460ff1615611938576040517f08c379a000000000000000000000000000000000000000000000000000000000815260040161192f90614ffd565b60405180910390fd5b6001600360006101000a81548160ff0219169083151502179055507f8099f593a6aaecd68b6494933cd71f703376ac3975be83692e1b7d800abf683760405160405180910390a150565b6000600580549050905060005b818110156119b3576119a0816114d2565b80806119ab90614c24565b91505061198f565b5050565b60025481565b7f589d473ba17c0f47d494622893831497bad25919b9afb8e33e9521b8963fccde81565b600081831115611a26576040517f08c379a0000000000000000000000000000000000000000000000000000000008152600401611a1d90615069565b60405180910390fd5b600054831015611a365760005492505b600154821115611a465760015491505b81831115611a89576040517f08c379a0000000000000000000000000000000000000000000000000000000008152600401611a80906150fb565b60405180910390fd5b6000611aab6002548585611a9d9190614c6c565b61365b90919063ffffffff16565b809350819250505080611af3576040517f08c379a0000000000000000000000000000000000000000000000000000000008152600401611aea90615167565b60405180910390fd5b5092915050565b7f589d473ba17c0f47d494622893831497bad25919b9afb8e33e9521b8963fccde611b2481612fd8565b600360019054906101000a900460ff1615611b74576040517f08c379a0000000000000000000000000000000000000000000000000000000008152600401611b6b906151d3565b60405180910390fd5b6001600360016101000a81548160ff0219169083151502179055507f6d73d6b34c378ab3bf6630206d60b7882801b91d03ee20d016ff0d5054db81e160405160405180910390a150565b600080611bc9612dde565b905080600001600085815260200190815260200160002060000160008473ffffffffffffffffffffffffffffffffffffffff1673ffffffffffffffffffffffffffffffffffffffff16815260200190815260200160002060009054906101000a900460ff1691505092915050565b611c3f612e06565b816005805490508110611c87576040517f08c379a0000000000000000000000000000000000000000000000000000000008152600401611c7e90614b06565b60405180910390fd5b600360009054906101000a900460ff1615611cd7576040517f08c379a0000000000000000000000000000000000000000000000000000000008152600401611cce90614b72565b60405180910390fd5b600060058481548110611ced57611cec614b92565b5b9060005260206000209060070201905060006006600086815260200190815260200160002060003373ffffffffffffffffffffffffffffffffffffffff1673ffffffffffffffffffffffffffffffffffffffff16815260200190815260200160002090508381600001541015611d98576040517f08c379a0000000000000000000000000000000000000000000000000000000008152600401611d8f9061523f565b60405180910390fd5b611da1856114d2565b60008160010154670de0b6b3a764000084600301548460000154611dc59190614d3b565b611dcf9190614dac565b611dd99190614c6c565b90506000811115611dfd57808260020154611df49190614bf0565b82600201819055505b6000851115611e8657848260000154611e169190614c6c565b8260000181905550816003016040518060400160405280878152602001856006015443611e439190614bf0565b8152509080600181540180825580915050600190039060005260206000209060020201600090919091909150600082015181600001556020820151816001015550505b848360040154611e969190614c6c565b8360040181905550670de0b6b3a764000083600301548360000154611ebb9190614d3b565b611ec59190614dac565b8260010181905550853373ffffffffffffffffffffffffffffffffffffffff167fc80277265097707f6f12a4ac4c09d46c9926e2eea2536f63616cb04d9fcad7d687604051611f1491906142e1565b60405180910390a3505050505050565b6000801b81565b600360029054906101000a900473ffffffffffffffffffffffffffffffffffffffff1681565b600360019054906101000a900460ff1681565b6040518060400160405280600581526020017f352e302e3000000000000000000000000000000000000000000000000000000081525081565b7f589d473ba17c0f47d494622893831497bad25919b9afb8e33e9521b8963fccde611fc781612fd8565b6000600580549050111561204957600073ffffffffffffffffffffffffffffffffffffffff168673ffffffffffffffffffffffffffffffffffffffff1603612044576040517f08c379a000000000000000000000000000000000000000000000000000000000815260040161203b906152ab565b60405180910390fd5b6120b9565b600073ffffffffffffffffffffffffffffffffffffffff168673ffffffffffffffffffffffffffffffffffffffff16146120b8576040517f08c379a00000000000000000000000000000000000000000000000000000000081526004016120af906152ab565b60405180910390fd5b5b600083116120fc576040517f08c379a00000000000000000000000000000000000000000000000000000000081526004016120f390615317565b60405180910390fd5b6001544310612140576040517f08c379a000000000000000000000000000000000000000000000000000000000815260040161213790615383565b60405180910390fd5b811561214f5761214e611982565b5b60008054431161216157600054612163565b435b9050856004546121739190614bf0565b60048190555060056040518060e001604052808973ffffffffffffffffffffffffffffffffffffffff168152602001888152602001838152602001600081526020016000815260200187815260200186815250908060018154018082558091505060019003906000526020600020906007020160009091909190915060008201518160000160006101000a81548173ffffffffffffffffffffffffffffffffffffffff021916908373ffffffffffffffffffffffffffffffffffffffff1602179055506020820151816001015560408201518160020155606082015181600301556080820151816004015560a0820151816005015560c08201518160060155505080868873ffffffffffffffffffffffffffffffffffffffff167f0fa296fce13e7a0e622b3a892e66220c248337289483a3cfa4130cde0caa134688886040516122be929190614a91565b60405180910390a450505050505050565b7fcab03bc4dbcc648cd59d6bbe9f848d1e9092f914016aa290ee92e18700d1e6f981565b7f589d473ba17c0f47d494622893831497bad25919b9afb8e33e9521b8963fccde61231d81612fd8565b60008211612360576040517f08c379a0000000000000000000000000000000000000000000000000000000008152600401612357906153ef565b60405180910390fd5b81600281905550817f4c70925b625536dd633f6bd2d615c67fddc2e7c63c31164047a981a0df3fee5460405160405180910390a25050565b600081565b7f589d473ba17c0f47d494622893831497bad25919b9afb8e33e9521b8963fccde6123c781612fd8565b81600054111561240c576040517f08c379a000000000000000000000000000000000000000000000000000000000815260040161240390615481565b60405180910390fd5b81600181905550817f1132c5baccb51da3d049fabc819697dc845fa224ad59d9b555507d6446b4085060405160405180910390a25050565b61244d82610b5b565b61245681612fd8565b61246083836130f5565b50505050565b7f589d473ba17c0f47d494622893831497bad25919b9afb8e33e9521b8963fccde61249081612fd8565b8360058054905081106124d8576040517f08c379a00000000000000000000000000000000000000000000000000000000081526004016124cf90614b06565b60405180910390fd5b83600586815481106124ed576124ec614b92565b5b906000526020600020906007020160050181905550826005868154811061251757612516614b92565b5b9060005260206000209060070201600601819055508284867f30dffdedaa3e3b4849298233f7cd71d229956e875ab09270498c96b7cf9181fd60405160405180910390a45050505050565b7f589d473ba17c0f47d494622893831497bad25919b9afb8e33e9521b8963fccde61258c81612fd8565b600360019054906101000a900460ff166125db576040517f08c379a00000000000000000000000000000000000000000000000000000000081526004016125d2906154ed565b60405180910390fd5b6000600360016101000a81548160ff0219169083151502179055507fe72cb12952f056e3e7496019725f20a13108ca420f67f1ee9c9cdab73fb8ce8560405160405180910390a150565b61262d612e06565b816005805490508110612675576040517f08c379a000000000000000000000000000000000000000000000000000000000815260040161266c90614b06565b60405180910390fd5b600083036126b8576040517f08c379a00000000000000000000000000000000000000000000000000000000081526004016126af90615559565b60405180910390fd5b6000600584815481106126ce576126cd614b92565b5b9060005260206000209060070201905080600501548311612724576040517f08c379a000000000000000000000000000000000000000000000000000000000815260040161271b906155c5565b60405180910390fd5b600083111561277f5761277e3330858460000160009054906101000a900473ffffffffffffffffffffffffffffffffffffffff1673ffffffffffffffffffffffffffffffffffffffff166137c2909392919063ffffffff16565b5b6127898484613844565b50505050565b7f589d473ba17c0f47d494622893831497bad25919b9afb8e33e9521b8963fccde6127b981612fd8565b6001548211156127fe576040517f08c379a00000000000000000000000000000000000000000000000000000000081526004016127f590615481565b60405180910390fd5b81600081905550817f63b90b79f11a0f132bcb2c4a4ddd44abda45c1308a83b2919318df7f5f8b7be460405160405180910390a25050565b7f589d473ba17c0f47d494622893831497bad25919b9afb8e33e9521b8963fccde61286081612fd8565b81600360026101000a81548173ffffffffffffffffffffffffffffffffffffffff021916908373ffffffffffffffffffffffffffffffffffffffff160217905550600360029054906101000a900473ffffffffffffffffffffffffffffffffffffffff1673ffffffffffffffffffffffffffffffffffffffff167f153aae53b92218044bd5f43922617c6b253e50ac98a41b44c3acb5625ded348860405160405180910390a25050565b612912612e06565b6000600560008154811061292957612928614b92565b5b90600052602060002090600702019050600073ffffffffffffffffffffffffffffffffffffffff168160000160009054906101000a900473ffffffffffffffffffffffffffffffffffffffff1673ffffffffffffffffffffffffffffffffffffffff16146129cc576040517f08c379a00000000000000000000000000000000000000000000000000000000081526004016129c3906152ab565b60405180910390fd5b60003490508160050154811015612a18576040517f08c379a0000000000000000000000000000000000000000000000000000000008152600401612a0f906155c5565b60405180910390fd5b612a23600082613844565b5050565b7f589d473ba17c0f47d494622893831497bad25919b9afb8e33e9521b8963fccde612a5181612fd8565b836005805490508110612a99576040517f08c379a0000000000000000000000000000000000000000000000000000000008152600401612a9090614b06565b60405180910390fd5b60008411612adc576040517f08c379a0000000000000000000000000000000000000000000000000000000008152600401612ad390615631565b60405180910390fd5b8215612aeb57612aea611982565b5b8360058681548110612b0057612aff614b92565b5b906000526020600020906007020160010154600454612b1f9190614c6c565b612b299190614bf0565b6004819055508360058681548110612b4457612b43614b92565b5b90600052602060002090600702016001018190555083857f4b8fa3d6a87cb21d1bf4978bf60628ae358a28ac7f39de1751a481c6dd957617600454604051612b8c91906142e1565b60405180910390a35050505050565b60058181548110612bab57600080fd5b90600052602060002090600702016000915090508060000160009054906101000a900473ffffffffffffffffffffffffffffffffffffffff16908060010154908060020154908060030154908060040154908060050154908060060154905087565b600080836005805490508110612c58576040517f08c379a0000000000000000000000000000000000000000000000000000000008152600401612c4f90614b06565b60405180910390fd5b60006006600087815260200190815260200160002060008673ffffffffffffffffffffffffffffffffffffffff1673ffffffffffffffffffffffffffffffffffffffff168152602001908152602001600020905060005b8160030180549050811015612d6a5743826003018281548110612cd557612cd4614b92565b5b90600052602060002090600202016001015411612d2257816003018181548110612d0257612d01614b92565b5b90600052602060002090600202016000015484612d1f9190614bf0565b93505b816003018181548110612d3857612d37614b92565b5b90600052602060002090600202016000015485612d559190614bf0565b94508080612d6290614c24565b915050612caf565b5050509250929050565b60007f01ffc9a7000000000000000000000000000000000000000000000000000000007bffffffffffffffffffffffffffffffffffffffffffffffffffffffff1916827bffffffffffffffffffffffffffffffffffffffffffffffffffffffff1916149050919050565b60007f02dd7bc7dec4dceedda775e58dd541e08a116c6c53815c0bd028192f7b626800905090565b612e0e611899565b15612e45576040517fd93c066500000000000000000000000000000000000000000000000000000000815260040160405180910390fd5b565b6000808373ffffffffffffffffffffffffffffffffffffffff1683604051612e6e90615682565b60006040518083038185875af1925050503d8060008114612eab576040519150601f19603f3d011682016040523d82523d6000602084013e612eb0565b606091505b509150915081612ef5576040517f08c379a0000000000000000000000000000000000000000000000000000000008152600401612eec906156e3565b60405180910390fd5b600081511115612f535780806020019051810190612f139190615718565b612f52576040517f08c379a0000000000000000000000000000000000000000000000000000000008152600401612f49906157b7565b60405180910390fd5b5b50505050565b612fd3838473ffffffffffffffffffffffffffffffffffffffff1663a9059cbb8585604051602401612f8c9291906157d7565b604051602081830303815290604052915060e01b6020820180517bffffffffffffffffffffffffffffffffffffffffffffffffffffffff8381831617835250505050613c70565b505050565b612fe981612fe46130ed565b613d07565b50565b600080612ff7612dde565b90506130038484611bbe565b6130e157600181600001600086815260200190815260200160002060000160008573ffffffffffffffffffffffffffffffffffffffff1673ffffffffffffffffffffffffffffffffffffffff16815260200190815260200160002060006101000a81548160ff02191690831515021790555061307d6130ed565b73ffffffffffffffffffffffffffffffffffffffff168373ffffffffffffffffffffffffffffffffffffffff16857f2f8788117e7eff1d82e926ec794901d17c78024a50270940304540a733656f0d60405160405180910390a460019150506130e7565b60009150505b92915050565b600033905090565b600080613100612dde565b905061310c8484611bbe565b156131eb57600081600001600086815260200190815260200160002060000160008573ffffffffffffffffffffffffffffffffffffffff1673ffffffffffffffffffffffffffffffffffffffff16815260200190815260200160002060006101000a81548160ff0219169083151502179055506131876130ed565b73ffffffffffffffffffffffffffffffffffffffff168373ffffffffffffffffffffffffffffffffffffffff16857ff6391f5c32d9c69d2a47ea670b442974b53935d1edc7fd64eb21e047a839171b60405160405180910390a460019150506131f1565b60009150505b92915050565b6000600360029054906101000a900473ffffffffffffffffffffffffffffffffffffffff1673ffffffffffffffffffffffffffffffffffffffff166370a08231306040518263ffffffff1660e01b81526004016132549190615800565b602060405180830381865afa158015613271573d6000803e3d6000fd5b505050506040513d601f19601f820116820180604052508101906132959190615830565b90508082111561334557600360029054906101000a900473ffffffffffffffffffffffffffffffffffffffff1673ffffffffffffffffffffffffffffffffffffffff1663a9059cbb84836040518363ffffffff1660e01b81526004016132fc9291906157d7565b6020604051808303816000875af115801561331b573d6000803e3d6000fd5b505050506040513d601f19601f8201168201806040525081019061333f9190615718565b506133e7565b600360029054906101000a900473ffffffffffffffffffffffffffffffffffffffff1673ffffffffffffffffffffffffffffffffffffffff1663a9059cbb84846040518363ffffffff1660e01b81526004016133a29291906157d7565b6020604051808303816000875af11580156133c1573d6000803e3d6000fd5b505050506040513d601f19601f820116820180604052508101906133e59190615718565b505b505050565b60007ff0c57e16840df040f15088dc2f81fe391c3923bec73e23a9662efc9c229c6a00905090565b61341c613d58565b565b613426613d58565b565b7f000000000000000000000000000000000000000000000000000000000000000073ffffffffffffffffffffffffffffffffffffffff163073ffffffffffffffffffffffffffffffffffffffff1614806134d557507f000000000000000000000000000000000000000000000000000000000000000073ffffffffffffffffffffffffffffffffffffffff166134bc613d98565b73ffffffffffffffffffffffffffffffffffffffff1614155b1561350c576040517fe07c8dba00000000000000000000000000000000000000000000000000000000815260040160405180910390fd5b565b7fcab03bc4dbcc648cd59d6bbe9f848d1e9092f914016aa290ee92e18700d1e6f961353881612fd8565b5050565b8173ffffffffffffffffffffffffffffffffffffffff166352d1902d6040518163ffffffff1660e01b8152600401602060405180830381865afa9250505080156135a457506040513d601f19601f820116820180604052508101906135a19190615872565b60015b6135e557816040517f4c9c8ce30000000000000000000000000000000000000000000000000000000081526004016135dc9190615800565b60405180910390fd5b7f360894a13ba1a3210667c828492db98dca3e2076cc3735a920a3ca505d382bbc60001b811461364c57806040517faa1d49a40000000000000000000000000000000000000000000000000000000081526004016136439190614438565b60405180910390fd5b6136568383613def565b505050565b600080600084036136735760016000915091506136a7565b600083850290508385828161368b5761368a614d7d565b5b041461369e5760008092509250506136a7565b60018192509250505b9250929050565b600080600083036136c557600080915091506136dd565b60018385816136d7576136d6614d7d565b5b04915091505b9250929050565b600080600083850190508481101561370357600080925092505061370c565b60018192509250505b9250929050565b7f000000000000000000000000000000000000000000000000000000000000000073ffffffffffffffffffffffffffffffffffffffff163073ffffffffffffffffffffffffffffffffffffffff1614613798576040517fe07c8dba00000000000000000000000000000000000000000000000000000000815260040160405180910390fd5b565b60007fcd5ed15c6e187e77e9aee88184c21f4f2182ab5827cb3b7e07fbedcd63f03300905090565b61383e848573ffffffffffffffffffffffffffffffffffffffff166323b872dd8686866040516024016137f79392919061589f565b604051602081830303815290604052915060e01b6020820180517bffffffffffffffffffffffffffffffffffffffffffffffffffffffff8381831617835250505050613c70565b50505050565b60006005838154811061385a57613859614b92565b5b9060005260206000209060070201905060006006600085815260200190815260200160002060003373ffffffffffffffffffffffffffffffffffffffff1673ffffffffffffffffffffffffffffffffffffffff16815260200190815260200160002090506138c7846114d2565b600081600001541115613a6f576000806138f28460030154846000015461365b90919063ffffffff16565b9150915081613936576040517f08c379a000000000000000000000000000000000000000000000000000000000815260040161392d90615948565b60405180910390fd5b613951670de0b6b3a7640000826136ae90919063ffffffff16565b809250819350505081613999576040517f08c379a0000000000000000000000000000000000000000000000000000000008152600401613990906159b4565b60405180910390fd5b6000806139b3856001015484613e6290919063ffffffff16565b91509150816139f7576040517f08c379a00000000000000000000000000000000000000000000000000000000081526004016139ee90615a20565b60405180910390fd5b6000811115613a6a57600080613a1a8388600201546136e490919063ffffffff16565b9150915081613a5e576040517f08c379a0000000000000000000000000000000000000000000000000000000008152600401613a5590615a8c565b60405180910390fd5b80876002018190555050505b505050505b6000831115613ae257600080613a928584600001546136e490919063ffffffff16565b9150915081613ad6576040517f08c379a0000000000000000000000000000000000000000000000000000000008152600401613acd90615af8565b60405180910390fd5b80836000018190555050505b600080613afc8585600401546136e490919063ffffffff16565b9150915081613b40576040517f08c379a0000000000000000000000000000000000000000000000000000000008152600401613b3790615b64565b60405180910390fd5b808460040181905550600080613b678660030154866000015461365b90919063ffffffff16565b9150915081613bab576040517f08c379a0000000000000000000000000000000000000000000000000000000008152600401613ba290615948565b60405180910390fd5b613bc6670de0b6b3a7640000826136ae90919063ffffffff16565b809250819350505081613c0e576040517f08c379a0000000000000000000000000000000000000000000000000000000008152600401613c0590615bd0565b60405180910390fd5b808560010181905550873373ffffffffffffffffffffffffffffffffffffffff167f90890809c654f11d6e72a28fa60149770a0d11ec6c92319d6ceb2bb0a4ea1a1589604051613c5e91906142e1565b60405180910390a35050505050505050565b6000613c9b828473ffffffffffffffffffffffffffffffffffffffff16613e8a90919063ffffffff16565b90506000815114158015613cc0575080806020019051810190613cbe9190615718565b155b15613d0257826040517f5274afe7000000000000000000000000000000000000000000000000000000008152600401613cf99190615800565b60405180910390fd5b505050565b613d118282611bbe565b613d545780826040517fe2517d3f000000000000000000000000000000000000000000000000000000008152600401613d4b929190615bf0565b60405180910390fd5b5050565b613d60613ea0565b613d96576040517fd7e6bcf800000000000000000000000000000000000000000000000000000000815260040160405180910390fd5b565b6000613dc67f360894a13ba1a3210667c828492db98dca3e2076cc3735a920a3ca505d382bbc60001b613ec0565b60000160009054906101000a900473ffffffffffffffffffffffffffffffffffffffff16905090565b613df882613eca565b8173ffffffffffffffffffffffffffffffffffffffff167fbc7cd75a20ee27fd9adebab32041f755214dbc6bffa90cc0225b39da2e5c2d3b60405160405180910390a2600081511115613e5557613e4f8282613f97565b50613e5e565b613e5d61401b565b5b5050565b60008083831115613e795760008091509150613e83565b6001838503915091505b9250929050565b6060613e9883836000614058565b905092915050565b6000613eaa6133ec565b60000160089054906101000a900460ff16905090565b6000819050919050565b60008173ffffffffffffffffffffffffffffffffffffffff163b03613f2657806040517f4c9c8ce3000000000000000000000000000000000000000000000000000000008152600401613f1d9190615800565b60405180910390fd5b80613f537f360894a13ba1a3210667c828492db98dca3e2076cc3735a920a3ca505d382bbc60001b613ec0565b60000160006101000a81548173ffffffffffffffffffffffffffffffffffffffff021916908373ffffffffffffffffffffffffffffffffffffffff16021790555050565b60606000808473ffffffffffffffffffffffffffffffffffffffff1684604051613fc19190615c55565b600060405180830381855af49150503d8060008114613ffc576040519150601f19603f3d011682016040523d82523d6000602084013e614001565b606091505b5091509150614011858383614125565b9250505092915050565b6000341115614056576040517fb398979f00000000000000000000000000000000000000000000000000000000815260040160405180910390fd5b565b60608147101561409f57306040517fcd7860590000000000000000000000000000000000000000000000000000000081526004016140969190615800565b60405180910390fd5b6000808573ffffffffffffffffffffffffffffffffffffffff1684866040516140c89190615c55565b60006040518083038185875af1925050503d8060008114614105576040519150601f19603f3d011682016040523d82523d6000602084013e61410a565b606091505b509150915061411a868383614125565b925050509392505050565b60608261413a57614135826141b4565b6141ac565b60008251148015614162575060008473ffffffffffffffffffffffffffffffffffffffff163b145b156141a457836040517f9996b31500000000000000000000000000000000000000000000000000000000815260040161419b9190615800565b60405180910390fd5b8190506141ad565b5b9392505050565b6000815111156141c75780518082602001fd5b6040517f1425ea4200000000000000000000000000000000000000000000000000000000815260040160405180910390fd5b6000604051905090565b600080fd5b600080fd5b60007fffffffff0000000000000000000000000000000000000000000000000000000082169050919050565b6142428161420d565b811461424d57600080fd5b50565b60008135905061425f81614239565b92915050565b60006020828403121561427b5761427a614203565b5b600061428984828501614250565b91505092915050565b60008115159050919050565b6142a781614292565b82525050565b60006020820190506142c2600083018461429e565b92915050565b6000819050919050565b6142db816142c8565b82525050565b60006020820190506142f660008301846142d2565b92915050565b614305816142c8565b811461431057600080fd5b50565b600081359050614322816142fc565b92915050565b600073ffffffffffffffffffffffffffffffffffffffff82169050919050565b600061435382614328565b9050919050565b61436381614348565b811461436e57600080fd5b50565b6000813590506143808161435a565b92915050565b6000806040838503121561439d5761439c614203565b5b60006143ab85828601614313565b92505060206143bc85828601614371565b9150509250929050565b6000819050919050565b6143d9816143c6565b81146143e457600080fd5b50565b6000813590506143f6816143d0565b92915050565b60006020828403121561441257614411614203565b5b6000614420848285016143e7565b91505092915050565b614432816143c6565b82525050565b600060208201905061444d6000830184614429565b92915050565b60006020828403121561446957614468614203565b5b600061447784828501614313565b91505092915050565b6000806040838503121561449757614496614203565b5b60006144a5858286016143e7565b92505060206144b685828601614371565b9150509250929050565b60006060820190506144d560008301866142d2565b6144e260208301856142d2565b6144ef60408301846142d2565b949350505050565b600061450282614348565b9050919050565b614512816144f7565b811461451d57600080fd5b50565b60008135905061452f81614509565b92915050565b6000806000806080858703121561454f5761454e614203565b5b600061455d87828801614520565b945050602061456e87828801614313565b935050604061457f87828801614313565b925050606061459087828801614313565b91505092959194509250565b600080fd5b600080fd5b6000601f19601f8301169050919050565b7f4e487b7100000000000000000000000000000000000000000000000000000000600052604160045260246000fd5b6145ef826145a6565b810181811067ffffffffffffffff8211171561460e5761460d6145b7565b5b80604052505050565b60006146216141f9565b905061462d82826145e6565b919050565b600067ffffffffffffffff82111561464d5761464c6145b7565b5b614656826145a6565b9050602081019050919050565b82818337600083830152505050565b600061468561468084614632565b614617565b9050828152602081018484840111156146a1576146a06145a1565b5b6146ac848285614663565b509392505050565b600082601f8301126146c9576146c861459c565b5b81356146d9848260208601614672565b91505092915050565b600080604083850312156146f9576146f8614203565b5b600061470785828601614371565b925050602083013567ffffffffffffffff81111561472857614727614208565b5b614734858286016146b4565b9150509250929050565b6000806040838503121561475557614754614203565b5b600061476385828601614313565b925050602061477485828601614313565b9150509250929050565b6000819050919050565b60006147a361479e61479984614328565b61477e565b614328565b9050919050565b60006147b582614788565b9050919050565b60006147c7826147aa565b9050919050565b6147d7816147bc565b82525050565b60006020820190506147f260008301846147ce565b92915050565b600081519050919050565b600082825260208201905092915050565b60005b83811015614832578082015181840152602081019050614817565b60008484015250505050565b6000614849826147f8565b6148538185614803565b9350614863818560208601614814565b61486c816145a6565b840191505092915050565b60006020820190508181036000830152614891818461483e565b905092915050565b6148a281614292565b81146148ad57600080fd5b50565b6000813590506148bf81614899565b92915050565b600080600080600060a086880312156148e1576148e0614203565b5b60006148ef88828901614371565b955050602061490088828901614313565b945050604061491188828901614313565b935050606061492288828901614313565b9250506080614933888289016148b0565b9150509295509295909350565b60008060006060848603121561495957614958614203565b5b600061496786828701614313565b935050602061497886828701614313565b925050604061498986828701614313565b9150509250925092565b6000602082840312156149a9576149a8614203565b5b60006149b784828501614520565b91505092915050565b6000806000606084860312156149d9576149d8614203565b5b60006149e786828701614313565b93505060206149f886828701614313565b9250506040614a09868287016148b0565b9150509250925092565b614a1c81614348565b82525050565b600060e082019050614a37600083018a614a13565b614a4460208301896142d2565b614a5160408301886142d2565b614a5e60608301876142d2565b614a6b60808301866142d2565b614a7860a08301856142d2565b614a8560c08301846142d2565b98975050505050505050565b6000604082019050614aa660008301856142d2565b614ab360208301846142d2565b9392505050565b7f696e76616c696420706964000000000000000000000000000000000000000000600082015250565b6000614af0600b83614803565b9150614afb82614aba565b602082019050919050565b60006020820190508181036000830152614b1f81614ae3565b9050919050565b7f7769746864726177206973207061757365640000000000000000000000000000600082015250565b6000614b5c601283614803565b9150614b6782614b26565b602082019050919050565b60006020820190508181036000830152614b8b81614b4f565b9050919050565b7f4e487b7100000000000000000000000000000000000000000000000000000000600052603260045260246000fd5b7f4e487b7100000000000000000000000000000000000000000000000000000000600052601160045260246000fd5b6000614bfb826142c8565b9150614c06836142c8565b9250828201905080821115614c1e57614c1d614bc1565b5b92915050565b6000614c2f826142c8565b91507fffffffffffffffffffffffffffffffffffffffffffffffffffffffffffffffff8203614c6157614c60614bc1565b5b600182019050919050565b6000614c77826142c8565b9150614c82836142c8565b9250828203905081811115614c9a57614c99614bc1565b5b92915050565b7f4e487b7100000000000000000000000000000000000000000000000000000000600052603160045260246000fd5b7f636c61696d206973207061757365640000000000000000000000000000000000600082015250565b6000614d05600f83614803565b9150614d1082614ccf565b602082019050919050565b60006020820190508181036000830152614d3481614cf8565b9050919050565b6000614d46826142c8565b9150614d51836142c8565b9250828202614d5f816142c8565b91508282048414831517614d7657614d75614bc1565b5b5092915050565b7f4e487b7100000000000000000000000000000000000000000000000000000000600052601260045260246000fd5b6000614db7826142c8565b9150614dc2836142c8565b925082614dd257614dd1614d7d565b5b828204905092915050565b7f696e76616c696420706172616d65746572730000000000000000000000000000600082015250565b6000614e13601283614803565b9150614e1e82614ddd565b602082019050919050565b60006020820190508181036000830152614e4281614e06565b9050919050565b6000819050919050565b600067ffffffffffffffff82169050919050565b6000614e82614e7d614e7884614e49565b61477e565b614e53565b9050919050565b614e9281614e67565b82525050565b6000602082019050614ead6000830184614e89565b92915050565b7f6f766572666c6f77000000000000000000000000000000000000000000000000600082015250565b6000614ee9600883614803565b9150614ef482614eb3565b602082019050919050565b60006020820190508181036000830152614f1881614edc565b9050919050565b7f776974686472617720686173206265656e20616c726561647920756e7061757360008201527f6564000000000000000000000000000000000000000000000000000000000000602082015250565b6000614f7b602283614803565b9150614f8682614f1f565b604082019050919050565b60006020820190508181036000830152614faa81614f6e565b9050919050565b7f776974686472617720686173206265656e20616c726561647920706175736564600082015250565b6000614fe7602083614803565b9150614ff282614fb1565b602082019050919050565b6000602082019050818103600083015261501681614fda565b9050919050565b7f696e76616c696420626c6f636b00000000000000000000000000000000000000600082015250565b6000615053600d83614803565b915061505e8261501d565b602082019050919050565b6000602082019050818103600083015261508281615046565b9050919050565b7f656e6420626c6f636b206d7573742062652067726561746572207468616e207360008201527f7461727420626c6f636b00000000000000000000000000000000000000000000602082015250565b60006150e5602a83614803565b91506150f082615089565b604082019050919050565b60006020820190508181036000830152615114816150d8565b9050919050565b7f6d756c7469706c696572206f766572666c6f7700000000000000000000000000600082015250565b6000615151601383614803565b915061515c8261511b565b602082019050919050565b6000602082019050818103600083015261518081615144565b9050919050565b7f636c61696d20686173206265656e20616c726561647920706175736564000000600082015250565b60006151bd601d83614803565b91506151c882615187565b602082019050919050565b600060208201905081810360008301526151ec816151b0565b9050919050565b7f4e6f7420656e6f756768207374616b696e6720746f6b656e2062616c616e6365600082015250565b6000615229602083614803565b9150615234826151f3565b602082019050919050565b600060208201905081810360008301526152588161521c565b9050919050565b7f696e76616c6964207374616b696e6720746f6b656e2061646472657373000000600082015250565b6000615295601d83614803565b91506152a08261525f565b602082019050919050565b600060208201905081810360008301526152c481615288565b9050919050565b7f696e76616c6964207769746864726177206c6f636b656420626c6f636b730000600082015250565b6000615301601e83614803565b915061530c826152cb565b602082019050919050565b60006020820190508181036000830152615330816152f4565b9050919050565b7f416c726561647920656e64656400000000000000000000000000000000000000600082015250565b600061536d600d83614803565b915061537882615337565b602082019050919050565b6000602082019050818103600083015261539c81615360565b9050919050565b7f696e76616c696420706172616d65746572000000000000000000000000000000600082015250565b60006153d9601183614803565b91506153e4826153a3565b602082019050919050565b60006020820190508181036000830152615408816153cc565b9050919050565b7f737461727420626c6f636b206d75737420626520736d616c6c6572207468616e60008201527f20656e6420626c6f636b00000000000000000000000000000000000000000000602082015250565b600061546b602a83614803565b91506154768261540f565b604082019050919050565b6000602082019050818103600083015261549a8161545e565b9050919050565b7f636c61696d20686173206265656e20616c726561647920756e70617573656400600082015250565b60006154d7601f83614803565b91506154e2826154a1565b602082019050919050565b60006020820190508181036000830152615506816154ca565b9050919050565b7f6465706f736974206e6f7420737570706f727420455448207374616b696e6700600082015250565b6000615543601f83614803565b915061554e8261550d565b602082019050919050565b6000602082019050818103600083015261557281615536565b9050919050565b7f6465706f73697420616d6f756e7420697320746f6f20736d616c6c0000000000600082015250565b60006155af601b83614803565b91506155ba82615579565b602082019050919050565b600060208201905081810360008301526155de816155a2565b9050919050565b7f696e76616c696420706f6f6c2077656967687400000000000000000000000000600082015250565b600061561b601383614803565b9150615626826155e5565b602082019050919050565b6000602082019050818103600083015261564a8161560e565b9050919050565b600081905092915050565b50565b600061566c600083615651565b91506156778261565c565b600082019050919050565b600061568d8261565f565b9150819050919050565b7f455448207472616e736665722063616c6c206661696c65640000000000000000600082015250565b60006156cd601883614803565b91506156d882615697565b602082019050919050565b600060208201905081810360008301526156fc816156c0565b9050919050565b60008151905061571281614899565b92915050565b60006020828403121561572e5761572d614203565b5b600061573c84828501615703565b91505092915050565b7f455448207472616e73666572206f7065726174696f6e20646964206e6f74207360008201527f7563636565640000000000000000000000000000000000000000000000000000602082015250565b60006157a1602683614803565b91506157ac82615745565b604082019050919050565b600060208201905081810360008301526157d081615794565b9050919050565b60006040820190506157ec6000830185614a13565b6157f960208301846142d2565b9392505050565b60006020820190506158156000830184614a13565b92915050565b60008151905061582a816142fc565b92915050565b60006020828403121561584657615845614203565b5b60006158548482850161581b565b91505092915050565b60008151905061586c816143d0565b92915050565b60006020828403121561588857615887614203565b5b60006158968482850161585d565b91505092915050565b60006060820190506158b46000830186614a13565b6158c16020830185614a13565b6158ce60408301846142d2565b949350505050565b7f75736572207374416d6f756e74206d756c206163635243435065725354206f7660008201527f6572666c6f770000000000000000000000000000000000000000000000000000602082015250565b6000615932602683614803565b915061593d826158d6565b604082019050919050565b6000602082019050818103600083015261596181615925565b9050919050565b7f6163635354206469762031206574686572206f766572666c6f77000000000000600082015250565b600061599e601a83614803565b91506159a982615968565b602082019050919050565b600060208201905081810360008301526159cd81615991565b9050919050565b7f6163635354207375622066696e6973686564524343206f766572666c6f770000600082015250565b6000615a0a601e83614803565b9150615a15826159d4565b602082019050919050565b60006020820190508181036000830152615a39816159fd565b9050919050565b7f757365722070656e64696e67524343206f766572666c6f770000000000000000600082015250565b6000615a76601883614803565b9150615a8182615a40565b602082019050919050565b60006020820190508181036000830152615aa581615a69565b9050919050565b7f75736572207374416d6f756e74206f766572666c6f7700000000000000000000600082015250565b6000615ae2601683614803565b9150615aed82615aac565b602082019050919050565b60006020820190508181036000830152615b1181615ad5565b9050919050565b7f706f6f6c207374546f6b656e416d6f756e74206f766572666c6f770000000000600082015250565b6000615b4e601b83614803565b9150615b5982615b18565b602082019050919050565b60006020820190508181036000830152615b7d81615b41565b9050919050565b7f66696e6973686564524343206469762031206574686572206f766572666c6f77600082015250565b6000615bba602083614803565b9150615bc582615b84565b602082019050919050565b60006020820190508181036000830152615be981615bad565b9050919050565b6000604082019050615c056000830185614a13565b615c126020830184614429565b9392505050565b600081519050919050565b6000615c2f82615c19565b615c398185615651565b9350615c49818560208601614814565b80840191505092915050565b6000615c618284615c24565b91508190509291505056fea2646970667358221220012da1790ddb0e59551d61f644550e704eaf1a237aa01dcd95468681408d21a064736f6c63430008140033",
  "linkReferences": {},
  "deployedLinkReferences": {}
}