{
  "_format": "hh-sol-artifact-1",
  "contractName": "RCCStake",
  "sourceName": "contracts/RCCStake.sol",
  "abi": [
    {
      "inputs": [],
      "name": "AccessControlBadConfirmation",
      "type": "error"
    },
    {
      "inputs": [
        {
          "internalType": "address",
          "name": "account",
          "type": "address"
        },
        {
          "internalType": "bytes32",
          "name": "neededRole",
          "type": "bytes32"
        }
      ],
      "name": "AccessControlUnauthorizedAccount",
      "type": "error"
    },
    {
      "inputs": [
        {
          "internalType": "address",
          "name": "target",
          "type": "address"
        }
      ],
      "name": "AddressEmptyCode",
      "type": "error"
    },
    {
      "inputs": [
        {
          "internalType": "address",
          "name": "account",
          "type": "address"
        }
      ],
      "name": "AddressInsufficientBalance",
      "type": "error"
    },
    {
      "inputs": [
        {
          "internalType": "address",
          "name": "implementation",
          "type": "address"
        }
      ],
      "name": "ERC1967InvalidImplementation",
      "type": "error"
    },
    {
      "inputs": [],
      "name": "ERC1967NonPayable",
      "type": "error"
    },
    {
      "inputs": [],
      "name": "EnforcedPause",
      "type": "error"
    },
    {
      "inputs": [],
      "name": "ExpectedPause",
      "type": "error"
    },
    {
      "inputs": [],
      "name": "FailedInnerCall",
      "type": "error"
    },
    {
      "inputs": [],
      "name": "InvalidInitialization",
      "type": "error"
    },
    {
      "inputs": [],
      "name": "NotInitializing",
      "type": "error"
    },
    {
      "inputs": [
        {
          "internalType": "address",
          "name": "token",
          "type": "address"
        }
      ],
      "name": "SafeERC20FailedOperation",
      "type": "error"
    },
    {
      "inputs": [],
      "name": "UUPSUnauthorizedCallContext",
      "type": "error"
    },
    {
      "inputs": [
        {
          "internalType": "bytes32",
          "name": "slot",
          "type": "bytes32"
        }
      ],
      "name": "UUPSUnsupportedProxiableUUID",
      "type": "error"
    },
    {
      "anonymous": false,
      "inputs": [
        {
          "indexed": true,
          "internalType": "address",
          "name": "stTokenAddress",
          "type": "address"
        },
        {
          "indexed": true,
          "internalType": "uint256",
          "name": "poolWeight",
          "type": "uint256"
        },
        {
          "indexed": true,
          "internalType": "uint256",
          "name": "lastRewardBlock",
          "type": "uint256"
        },
        {
          "indexed": false,
          "internalType": "uint256",
          "name": "minDepositAmount",
          "type": "uint256"
        },
        {
          "indexed": false,
          "internalType": "uint256",
          "name": "unstakeLockedBlocks",
          "type": "uint256"
        }
      ],
      "name": "AddPool",
      "type": "event"
    },
    {
      "anonymous": false,
      "inputs": [
        {
          "indexed": true,
          "internalType": "address",
          "name": "user",
          "type": "address"
        },
        {
          "indexed": true,
          "internalType": "uint256",
          "name": "poolId",
          "type": "uint256"
        },
        {
          "indexed": false,
          "internalType": "uint256",
          "name": "rccReward",
          "type": "uint256"
        }
      ],
      "name": "Claim",
      "type": "event"
    },
    {
      "anonymous": false,
      "inputs": [
        {
          "indexed": true,
          "internalType": "address",
          "name": "user",
          "type": "address"
        },
        {
          "indexed": true,
          "internalType": "uint256",
          "name": "poolId",
          "type": "uint256"
        },
        {
          "indexed": false,
          "internalType": "uint256",
          "name": "amount",
          "type": "uint256"
        }
      ],
      "name": "Deposit",
      "type": "event"
    },
    {
      "anonymous": false,
      "inputs": [
        {
          "indexed": false,
          "internalType": "uint64",
          "name": "version",
          "type": "uint64"
        }
      ],
      "name": "Initialized",
      "type": "event"
    },
    {
      "anonymous": false,
      "inputs": [],
      "name": "PauseClaim",
      "type": "event"
    },
    {
      "anonymous": false,
      "inputs": [],
      "name": "PauseWithdraw",
      "type": "event"
    },
    {
      "anonymous": false,
      "inputs": [
        {
          "indexed": false,
          "internalType": "address",
          "name": "account",
          "type": "address"
        }
      ],
      "name": "Paused",
      "type": "event"
    },
    {
      "anonymous": false,
      "inputs": [
        {
          "indexed": true,
          "internalType": "address",
          "name": "user",
          "type": "address"
        },
        {
          "indexed": true,
          "internalType": "uint256",
          "name": "poolId",
          "type": "uint256"
        },
        {
          "indexed": false,
          "internalType": "uint256",
          "name": "amount",
          "type": "uint256"
        }
      ],
      "name": "RequestUnstake",
      "type": "event"
    },
    {
      "anonymous": false,
      "inputs": [
        {
          "indexed": true,
          "internalType": "bytes32",
          "name": "role",
          "type": "bytes32"
        },
        {
          "indexed": true,
          "internalType": "bytes32",
          "name": "previousAdminRole",
          "type": "bytes32"
        },
        {
          "indexed": true,
          "internalType": "bytes32",
          "name": "newAdminRole",
          "type": "bytes32"
        }
      ],
      "name": "RoleAdminChanged",
      "type": "event"
    },
    {
      "anonymous": false,
      "inputs": [
        {
          "indexed": true,
          "internalType": "bytes32",
          "name": "role",
          "type": "bytes32"
        },
        {
          "indexed": true,
          "internalType": "address",
          "name": "account",
          "type": "address"
        },
        {
          "indexed": true,
          "internalType": "address",
          "name": "sender",
          "type": "address"
        }
      ],
      "name": "RoleGranted",
      "type": "event"
    },
    {
      "anonymous": false,
      "inputs": [
        {
          "indexed": true,
          "internalType": "bytes32",
          "name": "role",
          "type": "bytes32"
        },
        {
          "indexed": true,
          "internalType": "address",
          "name": "account",
          "type": "address"
        },
        {
          "indexed": true,
          "internalType": "address",
          "name": "sender",
          "type": "address"
        }
      ],
      "name": "RoleRevoked",
      "type": "event"
    },
    {
      "anonymous": false,
      "inputs": [
        {
          "indexed": true,
          "internalType": "uint256",
          "name": "endBlock",
          "type": "uint256"
        }
      ],
      "name": "SetEndBlock",
      "type": "event"
    },
    {
      "anonymous": false,
      "inputs": [
        {
          "indexed": true,
          "internalType": "uint256",
          "name": "poolId",
          "type": "uint256"
        },
        {
          "indexed": true,
          "internalType": "uint256",
          "name": "poolWeight",
          "type": "uint256"
        },
        {
          "indexed": false,
          "internalType": "uint256",
          "name": "totalPoolWeight",
          "type": "uint256"
        }
      ],
      "name": "SetPoolWeight",
      "type": "event"
    },
    {
      "anonymous": false,
      "inputs": [
        {
          "indexed": true,
          "internalType": "contract IERC20",
          "name": "RCC",
          "type": "address"
        }
      ],
      "name": "SetRCC",
      "type": "event"
    },
    {
      "anonymous": false,
      "inputs": [
        {
          "indexed": true,
          "internalType": "uint256",
          "name": "rccPerBlock",
          "type": "uint256"
        }
      ],
      "name": "SetRCCPerBlock",
      "type": "event"
    },
    {
      "anonymous": false,
      "inputs": [
        {
          "indexed": true,
          "internalType": "uint256",
          "name": "startBlock",
          "type": "uint256"
        }
      ],
      "name": "SetStartBlock",
      "type": "event"
    },
    {
      "anonymous": false,
      "inputs": [],
      "name": "UnpauseClaim",
      "type": "event"
    },
    {
      "anonymous": false,
      "inputs": [],
      "name": "UnpauseWithdraw",
      "type": "event"
    },
    {
      "anonymous": false,
      "inputs": [
        {
          "indexed": false,
          "internalType": "address",
          "name": "account",
          "type": "address"
        }
      ],
      "name": "Unpaused",
      "type": "event"
    },
    {
      "anonymous": false,
      "inputs": [
        {
          "indexed": true,
          "internalType": "uint256",
          "name": "poolId",
          "type": "uint256"
        },
        {
          "indexed": true,
          "internalType": "uint256",
          "name": "lastRewardBlock",
          "type": "uint256"
        },
        {
          "indexed": false,
          "internalType": "uint256",
          "name": "totalRCC",
          "type": "uint256"
        }
      ],
      "name": "UpdatePool",
      "type": "event"
    },
    {
      "anonymous": false,
      "inputs": [
        {
          "indexed": true,
          "internalType": "uint256",
          "name": "poolId",
          "type": "uint256"
        },
        {
          "indexed": true,
          "internalType": "uint256",
          "name": "minDepositAmount",
          "type": "uint256"
        },
        {
          "indexed": true,
          "internalType": "uint256",
          "name": "unstakeLockedBlocks",
          "type": "uint256"
        }
      ],
      "name": "UpdatePoolInfo",
      "type": "event"
    },
    {
      "anonymous": false,
      "inputs": [
        {
          "indexed": true,
          "internalType": "address",
          "name": "implementation",
          "type": "address"
        }
      ],
      "name": "Upgraded",
      "type": "event"
    },
    {
      "anonymous": false,
      "inputs": [
        {
          "indexed": true,
          "internalType": "address",
          "name": "user",
          "type": "address"
        },
        {
          "indexed": true,
          "internalType": "uint256",
          "name": "poolId",
          "type": "uint256"
        },
        {
          "indexed": false,
          "internalType": "uint256",
          "name": "amount",
          "type": "uint256"
        },
        {
          "indexed": true,
          "internalType": "uint256",
          "name": "blockNumber",
          "type": "uint256"
        }
      ],
      "name": "Withdraw",
      "type": "event"
    },
    {
      "inputs": [],
      "name": "ADMIN_ROLE",
      "outputs": [
        {
          "internalType": "bytes32",
          "name": "",
          "type": "bytes32"
        }
      ],
      "stateMutability": "view",
      "type": "function"
    },
    {
      "inputs": [],
      "name": "DEFAULT_ADMIN_ROLE",
      "outputs": [
        {
          "internalType": "bytes32",
          "name": "",
          "type": "bytes32"
        }
      ],
      "stateMutability": "view",
      "type": "function"
    },
    {
      "inputs": [],
      "name": "ETH_PID",
      "outputs": [
        {
          "internalType": "uint256",
          "name": "",
          "type": "uint256"
        }
      ],
      "stateMutability": "view",
      "type": "function"
    },
    {
      "inputs": [],
      "name": "RCC",
      "outputs": [
        {
          "internalType": "contract IERC20",
          "name": "",
          "type": "address"
        }
      ],
      "stateMutability": "view",
      "type": "function"
    },
    {
      "inputs": [],
      "name": "UPGRADE_INTERFACE_VERSION",
      "outputs": [
        {
          "internalType": "string",
          "name": "",
          "type": "string"
        }
      ],
      "stateMutability": "view",
      "type": "function"
    },
    {
      "inputs": [],
      "name": "UPGRADE_ROLE",
      "outputs": [
        {
          "internalType": "bytes32",
          "name": "",
          "type": "bytes32"
        }
      ],
      "stateMutability": "view",
      "type": "function"
    },
    {
      "inputs": [
        {
          "internalType": "address",
          "name": "_stTokenAddress",
          "type": "address"
        },
        {
          "internalType": "uint256",
          "name": "_poolWeight",
          "type": "uint256"
        },
        {
          "internalType": "uint256",
          "name": "_minDepositAmount",
          "type": "uint256"
        },
        {
          "internalType": "uint256",
          "name": "_unstakeLockedBlocks",
          "type": "uint256"
        },
        {
          "internalType": "bool",
          "name": "_withUpdate",
          "type": "bool"
        }
      ],
      "name": "addPool",
      "outputs": [],
      "stateMutability": "nonpayable",
      "type": "function"
    },
    {
      "inputs": [
        {
          "internalType": "uint256",
          "name": "_pid",
          "type": "uint256"
        }
      ],
      "name": "claim",
      "outputs": [],
      "stateMutability": "nonpayable",
      "type": "function"
    },
    {
      "inputs": [],
      "name": "claimPaused",
      "outputs": [
        {
          "internalType": "bool",
          "name": "",
          "type": "bool"
        }
      ],
      "stateMutability": "view",
      "type": "function"
    },
    {
      "inputs": [
        {
          "internalType": "uint256",
          "name": "_pid",
          "type": "uint256"
        },
        {
          "internalType": "uint256",
          "name": "_amount",
          "type": "uint256"
        }
      ],
      "name": "deposit",
      "outputs": [],
      "stateMutability": "nonpayable",
      "type": "function"
    },
    {
      "inputs": [],
      "name": "depositETH",
      "outputs": [],
      "stateMutability": "payable",
      "type": "function"
    },
    {
      "inputs": [],
      "name": "endBlock",
      "outputs": [
        {
          "internalType": "uint256",
          "name": "",
          "type": "uint256"
        }
      ],
      "stateMutability": "view",
      "type": "function"
    },
    {
      "inputs": [
        {
          "internalType": "uint256",
          "name": "_from",
          "type": "uint256"
        },
        {
          "internalType": "uint256",
          "name": "_to",
          "type": "uint256"
        }
      ],
      "name": "getMultiplier",
      "outputs": [
        {
          "internalType": "uint256",
          "name": "multiplier",
          "type": "uint256"
        }
      ],
      "stateMutability": "view",
      "type": "function"
    },
    {
      "inputs": [
        {
          "internalType": "bytes32",
          "name": "role",
          "type": "bytes32"
        }
      ],
      "name": "getRoleAdmin",
      "outputs": [
        {
          "internalType": "bytes32",
          "name": "",
          "type": "bytes32"
        }
      ],
      "stateMutability": "view",
      "type": "function"
    },
    {
      "inputs": [
        {
          "internalType": "bytes32",
          "name": "role",
          "type": "bytes32"
        },
        {
          "internalType": "address",
          "name": "account",
          "type": "address"
        }
      ],
      "name": "grantRole",
      "outputs": [],
      "stateMutability": "nonpayable",
      "type": "function"
    },
    {
      "inputs": [
        {
          "internalType": "bytes32",
          "name": "role",
          "type": "bytes32"
        },
        {
          "internalType": "address",
          "name": "account",
          "type": "address"
        }
      ],
      "name": "hasRole",
      "outputs": [
        {
          "internalType": "bool",
          "name": "",
          "type": "bool"
        }
      ],
      "stateMutability": "view",
      "type": "function"
    },
    {
      "inputs": [
        {
          "internalType": "contract IERC20",
          "name": "_RCC",
          "type": "address"
        },
        {
          "internalType": "uint256",
          "name": "_startBlock",
          "type": "uint256"
        },
        {
          "internalType": "uint256",
          "name": "_endBlock",
          "type": "uint256"
        },
        {
          "internalType": "uint256",
          "name": "_rccPerBlock",
          "type": "uint256"
        }
      ],
      "name": "initialize",
      "outputs": [],
      "stateMutability": "nonpayable",
      "type": "function"
    },
    {
      "inputs": [],
      "name": "massUpdatePools",
      "outputs": [],
      "stateMutability": "nonpayable",
      "type": "function"
    },
    {
      "inputs": [],
      "name": "pauseClaim",
      "outputs": [],
      "stateMutability": "nonpayable",
      "type": "function"
    },
    {
      "inputs": [],
      "name": "pauseWithdraw",
      "outputs": [],
      "stateMutability": "nonpayable",
      "type": "function"
    },
    {
      "inputs": [],
      "name": "paused",
      "outputs": [
        {
          "internalType": "bool",
          "name": "",
          "type": "bool"
        }
      ],
      "stateMutability": "view",
      "type": "function"
    },
    {
      "inputs": [
        {
          "internalType": "uint256",
          "name": "_pid",
          "type": "uint256"
        },
        {
          "internalType": "address",
          "name": "_user",
          "type": "address"
        }
      ],
      "name": "pendingRCC",
      "outputs": [
        {
          "internalType": "uint256",
          "name": "",
          "type": "uint256"
        }
      ],
      "stateMutability": "view",
      "type": "function"
    },
    {
      "inputs": [
        {
          "internalType": "uint256",
          "name": "_pid",
          "type": "uint256"
        },
        {
          "internalType": "address",
          "name": "_user",
          "type": "address"
        },
        {
          "internalType": "uint256",
          "name": "_blockNumber",
          "type": "uint256"
        }
      ],
      "name": "pendingRCCByBlockNumber",
      "outputs": [
        {
          "internalType": "uint256",
          "name": "",
          "type": "uint256"
        }
      ],
      "stateMutability": "view",
      "type": "function"
    },
    {
      "inputs": [
        {
          "internalType": "uint256",
          "name": "",
          "type": "uint256"
        }
      ],
      "name": "pool",
      "outputs": [
        {
          "internalType": "address",
          "name": "stTokenAddress",
          "type": "address"
        },
        {
          "internalType": "uint256",
          "name": "poolWeight",
          "type": "uint256"
        },
        {
          "internalType": "uint256",
          "name": "lastRewardBlock",
          "type": "uint256"
        },
        {
          "internalType": "uint256",
          "name": "accRCCPerST",
          "type": "uint256"
        },
        {
          "internalType": "uint256",
          "name": "stTokenAmount",
          "type": "uint256"
        },
        {
          "internalType": "uint256",
          "name": "minDepositAmount",
          "type": "uint256"
        },
        {
          "internalType": "uint256",
          "name": "unstakeLockedBlocks",
          "type": "uint256"
        }
      ],
      "stateMutability": "view",
      "type": "function"
    },
    {
      "inputs": [],
      "name": "poolLength",
      "outputs": [
        {
          "internalType": "uint256",
          "name": "",
          "type": "uint256"
        }
      ],
      "stateMutability": "view",
      "type": "function"
    },
    {
      "inputs": [],
      "name": "proxiableUUID",
      "outputs": [
        {
          "internalType": "bytes32",
          "name": "",
          "type": "bytes32"
        }
      ],
      "stateMutability": "view",
      "type": "function"
    },
    {
      "inputs": [],
      "name": "rccPerBlock",
      "outputs": [
        {
          "internalType": "uint256",
          "name": "",
          "type": "uint256"
        }
      ],
      "stateMutability": "view",
      "type": "function"
    },
    {
      "inputs": [
        {
          "internalType": "bytes32",
          "name": "role",
          "type": "bytes32"
        },
        {
          "internalType": "address",
          "name": "callerConfirmation",
          "type": "address"
        }
      ],
      "name": "renounceRole",
      "outputs": [],
      "stateMutability": "nonpayable",
      "type": "function"
    },
    {
      "inputs": [
        {
          "internalType": "bytes32",
          "name": "role",
          "type": "bytes32"
        },
        {
          "internalType": "address",
          "name": "account",
          "type": "address"
        }
      ],
      "name": "revokeRole",
      "outputs": [],
      "stateMutability": "nonpayable",
      "type": "function"
    },
    {
      "inputs": [
        {
          "internalType": "uint256",
          "name": "_endBlock",
          "type": "uint256"
        }
      ],
      "name": "setEndBlock",
      "outputs": [],
      "stateMutability": "nonpayable",
      "type": "function"
    },
    {
      "inputs": [
        {
          "internalType": "uint256",
          "name": "_pid",
          "type": "uint256"
        },
        {
          "internalType": "uint256",
          "name": "_poolWeight",
          "type": "uint256"
        },
        {
          "internalType": "bool",
          "name": "_withUpdate",
          "type": "bool"
        }
      ],
      "name": "setPoolWeight",
      "outputs": [],
      "stateMutability": "nonpayable",
      "type": "function"
    },
    {
      "inputs": [
        {
          "internalType": "contract IERC20",
          "name": "_RCC",
          "type": "address"
        }
      ],
      "name": "setRCC",
      "outputs": [],
      "stateMutability": "nonpayable",
      "type": "function"
    },
    {
      "inputs": [
        {
          "internalType": "uint256",
          "name": "_rccPerBlock",
          "type": "uint256"
        }
      ],
      "name": "setRCCPerBlock",
      "outputs": [],
      "stateMutability": "nonpayable",
      "type": "function"
    },
    {
      "inputs": [
        {
          "internalType": "uint256",
          "name": "_startBlock",
          "type": "uint256"
        }
      ],
      "name": "setStartBlock",
      "outputs": [],
      "stateMutability": "nonpayable",
      "type": "function"
    },
    {
      "inputs": [
        {
          "internalType": "uint256",
          "name": "_pid",
          "type": "uint256"
        },
        {
          "internalType": "address",
          "name": "_user",
          "type": "address"
        }
      ],
      "name": "stakingBalance",
      "outputs": [
        {
          "internalType": "uint256",
          "name": "",
          "type": "uint256"
        }
      ],
      "stateMutability": "view",
      "type": "function"
    },
    {
      "inputs": [],
      "name": "startBlock",
      "outputs": [
        {
          "internalType": "uint256",
          "name": "",
          "type": "uint256"
        }
      ],
      "stateMutability": "view",
      "type": "function"
    },
    {
      "inputs": [
        {
          "internalType": "bytes4",
          "name": "interfaceId",
          "type": "bytes4"
        }
      ],
      "name": "supportsInterface",
      "outputs": [
        {
          "internalType": "bool",
          "name": "",
          "type": "bool"
        }
      ],
      "stateMutability": "view",
      "type": "function"
    },
    {
      "inputs": [],
      "name": "totalPoolWeight",
      "outputs": [
        {
          "internalType": "uint256",
          "name": "",
          "type": "uint256"
        }
      ],
      "stateMutability": "view",
      "type": "function"
    },
    {
      "inputs": [],
      "name": "unpauseClaim",
      "outputs": [],
      "stateMutability": "nonpayable",
      "type": "function"
    },
    {
      "inputs": [],
      "name": "unpauseWithdraw",
      "outputs": [],
      "stateMutability": "nonpayable",
      "type": "function"
    },
    {
      "inputs": [
        {
          "internalType": "uint256",
          "name": "_pid",
          "type": "uint256"
        },
        {
          "internalType": "uint256",
          "name": "_amount",
          "type": "uint256"
        }
      ],
      "name": "unstake",
      "outputs": [],
      "stateMutability": "nonpayable",
      "type": "function"
    },
    {
      "inputs": [
        {
          "internalType": "uint256",
          "name": "_pid",
          "type": "uint256"
        }
      ],
      "name": "updatePool",
      "outputs": [],
      "stateMutability": "nonpayable",
      "type": "function"
    },
    {
      "inputs": [
        {
          "internalType": "uint256",
          "name": "_pid",
          "type": "uint256"
        },
        {
          "internalType": "uint256",
          "name": "_minDepositAmount",
          "type": "uint256"
        },
        {
          "internalType": "uint256",
          "name": "_unstakeLockedBlocks",
          "type": "uint256"
        }
      ],
      "name": "updatePool",
      "outputs": [],
      "stateMutability": "nonpayable",
      "type": "function"
    },
    {
      "inputs": [
        {
          "internalType": "address",
          "name": "newImplementation",
          "type": "address"
        },
        {
          "internalType": "bytes",
          "name": "data",
          "type": "bytes"
        }
      ],
      "name": "upgradeToAndCall",
      "outputs": [],
      "stateMutability": "payable",
      "type": "function"
    },
    {
      "inputs": [
        {
          "internalType": "uint256",
          "name": "",
          "type": "uint256"
        },
        {
          "internalType": "address",
          "name": "",
          "type": "address"
        }
      ],
      "name": "user",
      "outputs": [
        {
          "internalType": "uint256",
          "name": "stAmount",
          "type": "uint256"
        },
        {
          "internalType": "uint256",
          "name": "finishedRCC",
          "type": "uint256"
        },
        {
          "internalType": "uint256",
          "name": "pendingRCC",
          "type": "uint256"
        }
      ],
      "stateMutability": "view",
      "type": "function"
    },
    {
      "inputs": [
        {
          "internalType": "uint256",
          "name": "_pid",
          "type": "uint256"
        }
      ],
      "name": "withdraw",
      "outputs": [],
      "stateMutability": "nonpayable",
      "type": "function"
    },
    {
      "inputs": [
        {
          "internalType": "uint256",
          "name": "_pid",
          "type": "uint256"
        },
        {
          "internalType": "address",
          "name": "_user",
          "type": "address"
        }
      ],
      "name": "withdrawAmount",
      "outputs": [
        {
          "internalType": "uint256",
          "name": "requestAmount",
          "type": "uint256"
        },
        {
          "internalType": "uint256",
          "name": "pendingWithdrawAmount",
          "type": "uint256"
        }
      ],
      "stateMutability": "view",
      "type": "function"
    },
    {
      "inputs": [],
      "name": "withdrawPaused",
      "outputs": [
        {
          "internalType": "bool",
          "name": "",
          "type": "bool"
        }
      ],
      "stateMutability": "view",
      "type": "function"
    }
  ],
  "bytecode": "0x60a06040523073ffffffffffffffffffffffffffffffffffffffff1660809073ffffffffffffffffffffffffffffffffffffffff1681525034801561004357600080fd5b50608051615f836200006e600039600081816136b80152818161370d01526139a30152615f836000f3fe6080604052600436106102935760003560e01c806375b238fc1161015a578063bfc3ebba116100c1578063f35e4a6e1161007a578063f35e4a6e146109ab578063f5485d32146109d4578063f6326fb3146109fd578063fad07ece14610a07578063fe31311214610a30578063ff42335714610a7357610293565b8063bfc3ebba146108c5578063c713aa94146108f0578063d547741f14610919578063d86c044414610942578063de065caa1461096b578063e2bbb1581461098257610293565b8063a72d5bf411610113578063a72d5bf4146107c7578063ab5e124a146107f2578063ad3cb1cc1461081d578063b6d9d91914610848578063b908afa814610871578063bed66c081461089c57610293565b806375b238fc146106b75780638dbb1e3a146106e25780638ff095f91461071f57806391d14854146107365780639e2c8a5b14610773578063a217fddf1461079c57610293565b80633b82783e116101fe57806352d1902d116101b757806352d1902d146105f15780635bb6d0071461061c5780635c975abb146106335780636155e3de1461065e578063630b5ba11461067557806370ff01731461068c57610293565b80633b82783e146104de57806341721ab71461051b57806348cd4cb1146105585780634ec81af1146105835780634f1ef286146105ac57806351eb05a6146105c857610293565b80632e1a7d4d116102505780632e1a7d4d146103d05780632f2ff15d146103f95780632f3ffb9f1461042257806336568abe1461044d57806337849b3c14610476578063379607f5146104b557610293565b806301ffc9a71461029857806302559004146102d5578063081e3eda14610300578063083c63231461032b5780631154823414610356578063248a9ca314610393575b600080fd5b3480156102a457600080fd5b506102bf60048036038101906102ba91906144f3565b610ab1565b6040516102cc919061453b565b60405180910390f35b3480156102e157600080fd5b506102ea610b2b565b6040516102f7919061456f565b60405180910390f35b34801561030c57600080fd5b50610315610b31565b604051610322919061456f565b60405180910390f35b34801561033757600080fd5b50610340610b3e565b60405161034d919061456f565b60405180910390f35b34801561036257600080fd5b5061037d60048036038101906103789190614614565b610b44565b60405161038a919061456f565b60405180910390f35b34801561039f57600080fd5b506103ba60048036038101906103b5919061468a565b610beb565b6040516103c791906146c6565b60405180910390f35b3480156103dc57600080fd5b506103f760048036038101906103f291906146e1565b610c19565b005b34801561040557600080fd5b50610420600480360381019061041b919061470e565b610fdd565b005b34801561042e57600080fd5b50610437610fff565b604051610444919061453b565b60405180910390f35b34801561045957600080fd5b50610474600480360381019061046f919061470e565b611012565b005b34801561048257600080fd5b5061049d60048036038101906104989190614614565b61108d565b6040516104ac9392919061474e565b60405180910390f35b3480156104c157600080fd5b506104dc60048036038101906104d791906146e1565b6110c4565b005b3480156104ea57600080fd5b5061050560048036038101906105009190614614565b6112d3565b604051610512919061456f565b60405180910390f35b34801561052757600080fd5b50610542600480360381019061053d9190614785565b611331565b60405161054f919061456f565b60405180910390f35b34801561056457600080fd5b5061056d6114d1565b60405161057a919061456f565b60405180910390f35b34801561058f57600080fd5b506105aa60048036038101906105a59190614816565b6114d7565b005b6105c660048036038101906105c191906149c3565b611741565b005b3480156105d457600080fd5b506105ef60048036038101906105ea91906146e1565b611760565b005b3480156105fd57600080fd5b50610606611a31565b60405161061391906146c6565b60405180910390f35b34801561062857600080fd5b50610631611a64565b005b34801561063f57600080fd5b50610648611b27565b604051610655919061453b565b60405180910390f35b34801561066a57600080fd5b50610673611b4c565b005b34801561068157600080fd5b5061068a611c10565b005b34801561069857600080fd5b506106a1611c45565b6040516106ae919061456f565b60405180910390f35b3480156106c357600080fd5b506106cc611c4b565b6040516106d991906146c6565b60405180910390f35b3480156106ee57600080fd5b5061070960048036038101906107049190614a1f565b611c6f565b604051610716919061456f565b60405180910390f35b34801561072b57600080fd5b50610734611d88565b005b34801561074257600080fd5b5061075d6004803603810190610758919061470e565b611e4c565b60405161076a919061453b565b60405180910390f35b34801561077f57600080fd5b5061079a60048036038101906107959190614a1f565b611ec5565b005b3480156107a857600080fd5b506107b16121b2565b6040516107be91906146c6565b60405180910390f35b3480156107d357600080fd5b506107dc6121b9565b6040516107e99190614abe565b60405180910390f35b3480156107fe57600080fd5b506108076121df565b604051610814919061453b565b60405180910390f35b34801561082957600080fd5b506108326121f2565b60405161083f9190614b58565b60405180910390f35b34801561085457600080fd5b5061086f600480360381019061086a9190614ba6565b61222b565b005b34801561087d57600080fd5b5061088661255d565b60405161089391906146c6565b60405180910390f35b3480156108a857600080fd5b506108c360048036038101906108be91906146e1565b612581565b005b3480156108d157600080fd5b506108da612626565b6040516108e7919061456f565b60405180910390f35b3480156108fc57600080fd5b50610917600480360381019061091291906146e1565b61262b565b005b34801561092557600080fd5b50610940600480360381019061093b919061470e565b6126d2565b005b34801561094e57600080fd5b5061096960048036038101906109649190614c21565b6126f4565b005b34801561097757600080fd5b506109806127f0565b005b34801561098e57600080fd5b506109a960048036038101906109a49190614a1f565b6128b3565b005b3480156109b757600080fd5b506109d260048036038101906109cd91906146e1565b612a1d565b005b3480156109e057600080fd5b506109fb60048036038101906109f69190614c74565b612ac4565b005b610a05612b98565b005b348015610a1357600080fd5b50610a2e6004803603810190610a299190614ca1565b612cb5565b005b348015610a3c57600080fd5b50610a576004803603810190610a5291906146e1565b612e29565b604051610a6a9796959493929190614d03565b60405180910390f35b348015610a7f57600080fd5b50610a9a6004803603810190610a959190614614565b612e9b565b604051610aa8929190614d72565b60405180910390f35b60007f7965db0b000000000000000000000000000000000000000000000000000000007bffffffffffffffffffffffffffffffffffffffffffffffffffffffff1916827bffffffffffffffffffffffffffffffffffffffffffffffffffffffff19161480610b245750610b2382613002565b5b9050919050565b60045481565b6000600580549050905090565b60015481565b6000826005805490508110610b8e576040517f08c379a0000000000000000000000000000000000000000000000000000000008152600401610b8590614de7565b60405180910390fd5b6006600085815260200190815260200160002060008473ffffffffffffffffffffffffffffffffffffffff1673ffffffffffffffffffffffffffffffffffffffff1681526020019081526020016000206000015491505092915050565b600080610bf661306c565b905080600001600084815260200190815260200160002060010154915050919050565b610c21613094565b806005805490508110610c69576040517f08c379a0000000000000000000000000000000000000000000000000000000008152600401610c6090614de7565b60405180910390fd5b600360009054906101000a900460ff1615610cb9576040517f08c379a0000000000000000000000000000000000000000000000000000000008152600401610cb090614e53565b60405180910390fd5b600060058381548110610ccf57610cce614e73565b5b9060005260206000209060070201905060006006600085815260200190815260200160002060003373ffffffffffffffffffffffffffffffffffffffff1673ffffffffffffffffffffffffffffffffffffffff168152602001908152602001600020905060008060005b8360030180549050811015610dcc5743846003018281548110610d5f57610d5e614e73565b5b90600052602060002090600202016001015411610dcc57836003018181548110610d8c57610d8b614e73565b5b90600052602060002090600202016000015483610da99190614ed1565b92508180610db690614f05565b9250508080610dc490614f05565b915050610d39565b5060005b818460030180549050610de39190614f4d565b811015610e6757836003018282610dfa9190614ed1565b81548110610e0b57610e0a614e73565b5b9060005260206000209060020201846003018281548110610e2f57610e2e614e73565b5b906000526020600020906002020160008201548160000155600182015481600101559050508080610e5f90614f05565b915050610dd0565b5060005b81811015610ec35783600301805480610e8757610e86614f81565b5b60019003818190600052602060002090600202016000808201600090556001820160009055505090558080610ebb90614f05565b915050610e6b565b506000821115610f8557600073ffffffffffffffffffffffffffffffffffffffff168460000160009054906101000a900473ffffffffffffffffffffffffffffffffffffffff1673ffffffffffffffffffffffffffffffffffffffff1603610f3457610f2f33836130d5565b610f84565b610f8333838660000160009054906101000a900473ffffffffffffffffffffffffffffffffffffffff1673ffffffffffffffffffffffffffffffffffffffff166131e79092919063ffffffff16565b5b5b43863373ffffffffffffffffffffffffffffffffffffffff167f02f25270a4d87bea75db541cdfe559334a275b4a233520ed6c0a2429667cca9485604051610fcd919061456f565b60405180910390a4505050505050565b610fe682610beb565b610fef81613266565b610ff9838361327a565b50505050565b600360009054906101000a900460ff1681565b61101a61337b565b73ffffffffffffffffffffffffffffffffffffffff168173ffffffffffffffffffffffffffffffffffffffff161461107e576040517f6697b23200000000000000000000000000000000000000000000000000000000815260040160405180910390fd5b6110888282613383565b505050565b6006602052816000526040600020602052806000526040600020600091509150508060000154908060010154908060020154905083565b6110cc613094565b806005805490508110611114576040517f08c379a000000000000000000000000000000000000000000000000000000000815260040161110b90614de7565b60405180910390fd5b600360019054906101000a900460ff1615611164576040517f08c379a000000000000000000000000000000000000000000000000000000000815260040161115b90614ffc565b60405180910390fd5b60006005838154811061117a57611179614e73565b5b9060005260206000209060070201905060006006600085815260200190815260200160002060003373ffffffffffffffffffffffffffffffffffffffff1673ffffffffffffffffffffffffffffffffffffffff16815260200190815260200160002090506111e784611760565b600081600201548260010154670de0b6b3a764000085600301548560000154611210919061501c565b61121a919061508d565b6112249190614f4d565b61122e9190614ed1565b9050600081111561124e576000826002018190555061124d3382613485565b5b670de0b6b3a76400008360030154836000015461126b919061501c565b611275919061508d565b8260010181905550843373ffffffffffffffffffffffffffffffffffffffff167f34fcbac0073d7c3d388e51312faf357774904998eeb8fca628b9e6f65ee1cbf7836040516112c4919061456f565b60405180910390a35050505050565b600082600580549050811061131d576040517f08c379a000000000000000000000000000000000000000000000000000000000815260040161131490614de7565b60405180910390fd5b611328848443611331565b91505092915050565b600083600580549050811061137b576040517f08c379a000000000000000000000000000000000000000000000000000000000815260040161137290614de7565b60405180910390fd5b60006005868154811061139157611390614e73565b5b9060005260206000209060070201905060006006600088815260200190815260200160002060008773ffffffffffffffffffffffffffffffffffffffff1673ffffffffffffffffffffffffffffffffffffffff168152602001908152602001600020905060008260030154905060008360040154905083600201548711801561141b575060008114155b15611482576000611430856002015489611c6f565b90506000600454866001015483611447919061501c565b611451919061508d565b905082670de0b6b3a764000082611468919061501c565b611472919061508d565b8461147d9190614ed1565b935050505b82600201548360010154670de0b6b3a76400008486600001546114a5919061501c565b6114af919061508d565b6114b99190614f4d565b6114c39190614ed1565b955050505050509392505050565b60005481565b60006114e161367a565b905060008160000160089054906101000a900460ff1615905060008260000160009054906101000a900467ffffffffffffffff1690506000808267ffffffffffffffff1614801561152f5750825b9050600060018367ffffffffffffffff16148015611564575060003073ffffffffffffffffffffffffffffffffffffffff163b145b905081158015611572575080155b156115a9576040517ff92ee8a900000000000000000000000000000000000000000000000000000000815260040160405180910390fd5b60018560000160006101000a81548167ffffffffffffffff021916908367ffffffffffffffff16021790555083156115f95760018560000160086101000a81548160ff0219169083151502179055505b8688111580156116095750600086115b611648576040517f08c379a000000000000000000000000000000000000000000000000000000000815260040161163f9061510a565b60405180910390fd5b6116506136a2565b6116586136ac565b6116656000801b3361327a565b506116907fcab03bc4dbcc648cd59d6bbe9f848d1e9092f914016aa290ee92e18700d1e6f93361327a565b506116bb7f589d473ba17c0f47d494622893831497bad25919b9afb8e33e9521b8963fccde3361327a565b506116c589612ac4565b87600081905550866001819055508560028190555083156117365760008560000160086101000a81548160ff0219169083151502179055507fc7f505b2f371ae2175ee4913f4499e1f2633a7b5936321eed1cdaeb6115181d2600160405161172d9190615179565b60405180910390a15b505050505050505050565b6117496136b6565b6117528261379c565b61175c82826137ca565b5050565b8060058054905081106117a8576040517f08c379a000000000000000000000000000000000000000000000000000000000815260040161179f90614de7565b60405180910390fd5b6000600583815481106117be576117bd614e73565b5b90600052602060002090600702019050806002015443116117df5750611a2d565b60008061180683600101546117f8856002015443611c6f565b6138e990919063ffffffff16565b915091508161184a576040517f08c379a0000000000000000000000000000000000000000000000000000000008152600401611841906151e0565b60405180910390fd5b61185f6004548261393c90919063ffffffff16565b8092508193505050816118a7576040517f08c379a000000000000000000000000000000000000000000000000000000000815260040161189e906151e0565b60405180910390fd5b60008360040154905060008111156119e2576000806118d7670de0b6b3a7640000856138e990919063ffffffff16565b915091508161191b576040517f08c379a0000000000000000000000000000000000000000000000000000000008152600401611912906151e0565b60405180910390fd5b61192e838261393c90919063ffffffff16565b809250819350505081611976576040517f08c379a000000000000000000000000000000000000000000000000000000000815260040161196d906151e0565b60405180910390fd5b60008061199083896003015461397290919063ffffffff16565b91509150816119d4576040517f08c379a00000000000000000000000000000000000000000000000000000000081526004016119cb906151e0565b60405180910390fd5b808860030181905550505050505b4384600201819055508360020154867ff5d2d72d9b25d6853afd7d0554a113b705234b6a68bb36b7f14366299463241184604051611a20919061456f565b60405180910390a3505050505b5050565b6000611a3b6139a1565b7f360894a13ba1a3210667c828492db98dca3e2076cc3735a920a3ca505d382bbc60001b905090565b7f589d473ba17c0f47d494622893831497bad25919b9afb8e33e9521b8963fccde611a8e81613266565b600360009054906101000a900460ff16611add576040517f08c379a0000000000000000000000000000000000000000000000000000000008152600401611ad490615272565b60405180910390fd5b6000600360006101000a81548160ff0219169083151502179055507f1c84bcaead48b692cc46b9b12e9a068951a59c99a2e2bf10b00b60b403cf12e260405160405180910390a150565b600080611b32613a28565b90508060000160009054906101000a900460ff1691505090565b7f589d473ba17c0f47d494622893831497bad25919b9afb8e33e9521b8963fccde611b7681613266565b600360009054906101000a900460ff1615611bc6576040517f08c379a0000000000000000000000000000000000000000000000000000000008152600401611bbd906152de565b60405180910390fd5b6001600360006101000a81548160ff0219169083151502179055507f8099f593a6aaecd68b6494933cd71f703376ac3975be83692e1b7d800abf683760405160405180910390a150565b6000600580549050905060005b81811015611c4157611c2e81611760565b8080611c3990614f05565b915050611c1d565b5050565b60025481565b7f589d473ba17c0f47d494622893831497bad25919b9afb8e33e9521b8963fccde81565b600081831115611cb4576040517f08c379a0000000000000000000000000000000000000000000000000000000008152600401611cab9061534a565b60405180910390fd5b600054831015611cc45760005492505b600154821115611cd45760015491505b81831115611d17576040517f08c379a0000000000000000000000000000000000000000000000000000000008152600401611d0e906153dc565b60405180910390fd5b6000611d396002548585611d2b9190614f4d565b6138e990919063ffffffff16565b809350819250505080611d81576040517f08c379a0000000000000000000000000000000000000000000000000000000008152600401611d7890615448565b60405180910390fd5b5092915050565b7f589d473ba17c0f47d494622893831497bad25919b9afb8e33e9521b8963fccde611db281613266565b600360019054906101000a900460ff1615611e02576040517f08c379a0000000000000000000000000000000000000000000000000000000008152600401611df9906154b4565b60405180910390fd5b6001600360016101000a81548160ff0219169083151502179055507f6d73d6b34c378ab3bf6630206d60b7882801b91d03ee20d016ff0d5054db81e160405160405180910390a150565b600080611e5761306c565b905080600001600085815260200190815260200160002060000160008473ffffffffffffffffffffffffffffffffffffffff1673ffffffffffffffffffffffffffffffffffffffff16815260200190815260200160002060009054906101000a900460ff1691505092915050565b611ecd613094565b816005805490508110611f15576040517f08c379a0000000000000000000000000000000000000000000000000000000008152600401611f0c90614de7565b60405180910390fd5b600360009054906101000a900460ff1615611f65576040517f08c379a0000000000000000000000000000000000000000000000000000000008152600401611f5c90614e53565b60405180910390fd5b600060058481548110611f7b57611f7a614e73565b5b9060005260206000209060070201905060006006600086815260200190815260200160002060003373ffffffffffffffffffffffffffffffffffffffff1673ffffffffffffffffffffffffffffffffffffffff16815260200190815260200160002090508381600001541015612026576040517f08c379a000000000000000000000000000000000000000000000000000000000815260040161201d90615520565b60405180910390fd5b61202f85611760565b60008160010154670de0b6b3a764000084600301548460000154612053919061501c565b61205d919061508d565b6120679190614f4d565b9050600081111561208b578082600201546120829190614ed1565b82600201819055505b6000851115612114578482600001546120a49190614f4d565b82600001819055508160030160405180604001604052808781526020018560060154436120d19190614ed1565b8152509080600181540180825580915050600190039060005260206000209060020201600090919091909150600082015181600001556020820151816001015550505b8483600401546121249190614f4d565b8360040181905550670de0b6b3a764000083600301548360000154612149919061501c565b612153919061508d565b8260010181905550853373ffffffffffffffffffffffffffffffffffffffff167fc80277265097707f6f12a4ac4c09d46c9926e2eea2536f63616cb04d9fcad7d6876040516121a2919061456f565b60405180910390a3505050505050565b6000801b81565b600360029054906101000a900473ffffffffffffffffffffffffffffffffffffffff1681565b600360019054906101000a900460ff1681565b6040518060400160405280600581526020017f352e302e3000000000000000000000000000000000000000000000000000000081525081565b7f589d473ba17c0f47d494622893831497bad25919b9afb8e33e9521b8963fccde61225581613266565b600060058054905011156122d757600073ffffffffffffffffffffffffffffffffffffffff168673ffffffffffffffffffffffffffffffffffffffff16036122d2576040517f08c379a00000000000000000000000000000000000000000000000000000000081526004016122c99061558c565b60405180910390fd5b612347565b600073ffffffffffffffffffffffffffffffffffffffff168673ffffffffffffffffffffffffffffffffffffffff1614612346576040517f08c379a000000000000000000000000000000000000000000000000000000000815260040161233d9061558c565b60405180910390fd5b5b6000831161238a576040517f08c379a0000000000000000000000000000000000000000000000000000000008152600401612381906155f8565b60405180910390fd5b60015443106123ce576040517f08c379a00000000000000000000000000000000000000000000000000000000081526004016123c590615664565b60405180910390fd5b81156123dd576123dc611c10565b5b6000805443116123ef576000546123f1565b435b9050856004546124019190614ed1565b60048190555060056040518060e001604052808973ffffffffffffffffffffffffffffffffffffffff168152602001888152602001838152602001600081526020016000815260200187815260200186815250908060018154018082558091505060019003906000526020600020906007020160009091909190915060008201518160000160006101000a81548173ffffffffffffffffffffffffffffffffffffffff021916908373ffffffffffffffffffffffffffffffffffffffff1602179055506020820151816001015560408201518160020155606082015181600301556080820151816004015560a0820151816005015560c08201518160060155505080868873ffffffffffffffffffffffffffffffffffffffff167f0fa296fce13e7a0e622b3a892e66220c248337289483a3cfa4130cde0caa1346888860405161254c929190614d72565b60405180910390a450505050505050565b7fcab03bc4dbcc648cd59d6bbe9f848d1e9092f914016aa290ee92e18700d1e6f981565b7f589d473ba17c0f47d494622893831497bad25919b9afb8e33e9521b8963fccde6125ab81613266565b600082116125ee576040517f08c379a00000000000000000000000000000000000000000000000000000000081526004016125e5906156d0565b60405180910390fd5b81600281905550817f4c70925b625536dd633f6bd2d615c67fddc2e7c63c31164047a981a0df3fee5460405160405180910390a25050565b600081565b7f589d473ba17c0f47d494622893831497bad25919b9afb8e33e9521b8963fccde61265581613266565b81600054111561269a576040517f08c379a000000000000000000000000000000000000000000000000000000000815260040161269190615762565b60405180910390fd5b81600181905550817f1132c5baccb51da3d049fabc819697dc845fa224ad59d9b555507d6446b4085060405160405180910390a25050565b6126db82610beb565b6126e481613266565b6126ee8383613383565b50505050565b7f589d473ba17c0f47d494622893831497bad25919b9afb8e33e9521b8963fccde61271e81613266565b836005805490508110612766576040517f08c379a000000000000000000000000000000000000000000000000000000000815260040161275d90614de7565b60405180910390fd5b836005868154811061277b5761277a614e73565b5b90600052602060002090600702016005018190555082600586815481106127a5576127a4614e73565b5b9060005260206000209060070201600601819055508284867f30dffdedaa3e3b4849298233f7cd71d229956e875ab09270498c96b7cf9181fd60405160405180910390a45050505050565b7f589d473ba17c0f47d494622893831497bad25919b9afb8e33e9521b8963fccde61281a81613266565b600360019054906101000a900460ff16612869576040517f08c379a0000000000000000000000000000000000000000000000000000000008152600401612860906157ce565b60405180910390fd5b6000600360016101000a81548160ff0219169083151502179055507fe72cb12952f056e3e7496019725f20a13108ca420f67f1ee9c9cdab73fb8ce8560405160405180910390a150565b6128bb613094565b816005805490508110612903576040517f08c379a00000000000000000000000000000000000000000000000000000000081526004016128fa90614de7565b60405180910390fd5b60008303612946576040517f08c379a000000000000000000000000000000000000000000000000000000000815260040161293d9061583a565b60405180910390fd5b60006005848154811061295c5761295b614e73565b5b90600052602060002090600702019050806005015483116129b2576040517f08c379a00000000000000000000000000000000000000000000000000000000081526004016129a9906158a6565b60405180910390fd5b6000831115612a0d57612a0c3330858460000160009054906101000a900473ffffffffffffffffffffffffffffffffffffffff1673ffffffffffffffffffffffffffffffffffffffff16613a50909392919063ffffffff16565b5b612a178484613ad2565b50505050565b7f589d473ba17c0f47d494622893831497bad25919b9afb8e33e9521b8963fccde612a4781613266565b600154821115612a8c576040517f08c379a0000000000000000000000000000000000000000000000000000000008152600401612a8390615762565b60405180910390fd5b81600081905550817f63b90b79f11a0f132bcb2c4a4ddd44abda45c1308a83b2919318df7f5f8b7be460405160405180910390a25050565b7f589d473ba17c0f47d494622893831497bad25919b9afb8e33e9521b8963fccde612aee81613266565b81600360026101000a81548173ffffffffffffffffffffffffffffffffffffffff021916908373ffffffffffffffffffffffffffffffffffffffff160217905550600360029054906101000a900473ffffffffffffffffffffffffffffffffffffffff1673ffffffffffffffffffffffffffffffffffffffff167f153aae53b92218044bd5f43922617c6b253e50ac98a41b44c3acb5625ded348860405160405180910390a25050565b612ba0613094565b60006005600081548110612bb757612bb6614e73565b5b90600052602060002090600702019050600073ffffffffffffffffffffffffffffffffffffffff168160000160009054906101000a900473ffffffffffffffffffffffffffffffffffffffff1673ffffffffffffffffffffffffffffffffffffffff1614612c5a576040517f08c379a0000000000000000000000000000000000000000000000000000000008152600401612c519061558c565b60405180910390fd5b60003490508160050154811015612ca6576040517f08c379a0000000000000000000000000000000000000000000000000000000008152600401612c9d906158a6565b60405180910390fd5b612cb1600082613ad2565b5050565b7f589d473ba17c0f47d494622893831497bad25919b9afb8e33e9521b8963fccde612cdf81613266565b836005805490508110612d27576040517f08c379a0000000000000000000000000000000000000000000000000000000008152600401612d1e90614de7565b60405180910390fd5b60008411612d6a576040517f08c379a0000000000000000000000000000000000000000000000000000000008152600401612d6190615912565b60405180910390fd5b8215612d7957612d78611c10565b5b8360058681548110612d8e57612d8d614e73565b5b906000526020600020906007020160010154600454612dad9190614f4d565b612db79190614ed1565b6004819055508360058681548110612dd257612dd1614e73565b5b90600052602060002090600702016001018190555083857f4b8fa3d6a87cb21d1bf4978bf60628ae358a28ac7f39de1751a481c6dd957617600454604051612e1a919061456f565b60405180910390a35050505050565b60058181548110612e3957600080fd5b90600052602060002090600702016000915090508060000160009054906101000a900473ffffffffffffffffffffffffffffffffffffffff16908060010154908060020154908060030154908060040154908060050154908060060154905087565b600080836005805490508110612ee6576040517f08c379a0000000000000000000000000000000000000000000000000000000008152600401612edd90614de7565b60405180910390fd5b60006006600087815260200190815260200160002060008673ffffffffffffffffffffffffffffffffffffffff1673ffffffffffffffffffffffffffffffffffffffff168152602001908152602001600020905060005b8160030180549050811015612ff85743826003018281548110612f6357612f62614e73565b5b90600052602060002090600202016001015411612fb057816003018181548110612f9057612f8f614e73565b5b90600052602060002090600202016000015484612fad9190614ed1565b93505b816003018181548110612fc657612fc5614e73565b5b90600052602060002090600202016000015485612fe39190614ed1565b94508080612ff090614f05565b915050612f3d565b5050509250929050565b60007f01ffc9a7000000000000000000000000000000000000000000000000000000007bffffffffffffffffffffffffffffffffffffffffffffffffffffffff1916827bffffffffffffffffffffffffffffffffffffffffffffffffffffffff1916149050919050565b60007f02dd7bc7dec4dceedda775e58dd541e08a116c6c53815c0bd028192f7b626800905090565b61309c611b27565b156130d3576040517fd93c066500000000000000000000000000000000000000000000000000000000815260040160405180910390fd5b565b6000808373ffffffffffffffffffffffffffffffffffffffff16836040516130fc90615963565b60006040518083038185875af1925050503d8060008114613139576040519150601f19603f3d011682016040523d82523d6000602084013e61313e565b606091505b509150915081613183576040517f08c379a000000000000000000000000000000000000000000000000000000000815260040161317a906159c4565b60405180910390fd5b6000815111156131e157808060200190518101906131a191906159f9565b6131e0576040517f08c379a00000000000000000000000000000000000000000000000000000000081526004016131d790615a98565b60405180910390fd5b5b50505050565b613261838473ffffffffffffffffffffffffffffffffffffffff1663a9059cbb858560405160240161321a929190615ab8565b604051602081830303815290604052915060e01b6020820180517bffffffffffffffffffffffffffffffffffffffffffffffffffffffff8381831617835250505050613efe565b505050565b6132778161327261337b565b613f95565b50565b60008061328561306c565b90506132918484611e4c565b61336f57600181600001600086815260200190815260200160002060000160008573ffffffffffffffffffffffffffffffffffffffff1673ffffffffffffffffffffffffffffffffffffffff16815260200190815260200160002060006101000a81548160ff02191690831515021790555061330b61337b565b73ffffffffffffffffffffffffffffffffffffffff168373ffffffffffffffffffffffffffffffffffffffff16857f2f8788117e7eff1d82e926ec794901d17c78024a50270940304540a733656f0d60405160405180910390a46001915050613375565b60009150505b92915050565b600033905090565b60008061338e61306c565b905061339a8484611e4c565b1561347957600081600001600086815260200190815260200160002060000160008573ffffffffffffffffffffffffffffffffffffffff1673ffffffffffffffffffffffffffffffffffffffff16815260200190815260200160002060006101000a81548160ff02191690831515021790555061341561337b565b73ffffffffffffffffffffffffffffffffffffffff168373ffffffffffffffffffffffffffffffffffffffff16857ff6391f5c32d9c69d2a47ea670b442974b53935d1edc7fd64eb21e047a839171b60405160405180910390a4600191505061347f565b60009150505b92915050565b6000600360029054906101000a900473ffffffffffffffffffffffffffffffffffffffff1673ffffffffffffffffffffffffffffffffffffffff166370a08231306040518263ffffffff1660e01b81526004016134e29190615ae1565b602060405180830381865afa1580156134ff573d6000803e3d6000fd5b505050506040513d601f19601f820116820180604052508101906135239190615b11565b9050808211156135d357600360029054906101000a900473ffffffffffffffffffffffffffffffffffffffff1673ffffffffffffffffffffffffffffffffffffffff1663a9059cbb84836040518363ffffffff1660e01b815260040161358a929190615ab8565b6020604051808303816000875af11580156135a9573d6000803e3d6000fd5b505050506040513d601f19601f820116820180604052508101906135cd91906159f9565b50613675565b600360029054906101000a900473ffffffffffffffffffffffffffffffffffffffff1673ffffffffffffffffffffffffffffffffffffffff1663a9059cbb84846040518363ffffffff1660e01b8152600401613630929190615ab8565b6020604051808303816000875af115801561364f573d6000803e3d6000fd5b505050506040513d601f19601f8201168201806040525081019061367391906159f9565b505b505050565b60007ff0c57e16840df040f15088dc2f81fe391c3923bec73e23a9662efc9c229c6a00905090565b6136aa613fe6565b565b6136b4613fe6565b565b7f000000000000000000000000000000000000000000000000000000000000000073ffffffffffffffffffffffffffffffffffffffff163073ffffffffffffffffffffffffffffffffffffffff16148061376357507f000000000000000000000000000000000000000000000000000000000000000073ffffffffffffffffffffffffffffffffffffffff1661374a614026565b73ffffffffffffffffffffffffffffffffffffffff1614155b1561379a576040517fe07c8dba00000000000000000000000000000000000000000000000000000000815260040160405180910390fd5b565b7fcab03bc4dbcc648cd59d6bbe9f848d1e9092f914016aa290ee92e18700d1e6f96137c681613266565b5050565b8173ffffffffffffffffffffffffffffffffffffffff166352d1902d6040518163ffffffff1660e01b8152600401602060405180830381865afa92505050801561383257506040513d601f19601f8201168201806040525081019061382f9190615b53565b60015b61387357816040517f4c9c8ce300000000000000000000000000000000000000000000000000000000815260040161386a9190615ae1565b60405180910390fd5b7f360894a13ba1a3210667c828492db98dca3e2076cc3735a920a3ca505d382bbc60001b81146138da57806040517faa1d49a40000000000000000000000000000000000000000000000000000000081526004016138d191906146c6565b60405180910390fd5b6138e4838361407d565b505050565b60008060008403613901576001600091509150613935565b60008385029050838582816139195761391861505e565b5b041461392c576000809250925050613935565b60018192509250505b9250929050565b60008060008303613953576000809150915061396b565b60018385816139655761396461505e565b5b04915091505b9250929050565b600080600083850190508481101561399157600080925092505061399a565b60018192509250505b9250929050565b7f000000000000000000000000000000000000000000000000000000000000000073ffffffffffffffffffffffffffffffffffffffff163073ffffffffffffffffffffffffffffffffffffffff1614613a26576040517fe07c8dba00000000000000000000000000000000000000000000000000000000815260040160405180910390fd5b565b60007fcd5ed15c6e187e77e9aee88184c21f4f2182ab5827cb3b7e07fbedcd63f03300905090565b613acc848573ffffffffffffffffffffffffffffffffffffffff166323b872dd868686604051602401613a8593929190615b80565b604051602081830303815290604052915060e01b6020820180517bffffffffffffffffffffffffffffffffffffffffffffffffffffffff8381831617835250505050613efe565b50505050565b600060058381548110613ae857613ae7614e73565b5b9060005260206000209060070201905060006006600085815260200190815260200160002060003373ffffffffffffffffffffffffffffffffffffffff1673ffffffffffffffffffffffffffffffffffffffff1681526020019081526020016000209050613b5584611760565b600081600001541115613cfd57600080613b80846003015484600001546138e990919063ffffffff16565b9150915081613bc4576040517f08c379a0000000000000000000000000000000000000000000000000000000008152600401613bbb90615c29565b60405180910390fd5b613bdf670de0b6b3a76400008261393c90919063ffffffff16565b809250819350505081613c27576040517f08c379a0000000000000000000000000000000000000000000000000000000008152600401613c1e90615c95565b60405180910390fd5b600080613c418560010154846140f090919063ffffffff16565b9150915081613c85576040517f08c379a0000000000000000000000000000000000000000000000000000000008152600401613c7c90615d01565b60405180910390fd5b6000811115613cf857600080613ca883886002015461397290919063ffffffff16565b9150915081613cec576040517f08c379a0000000000000000000000000000000000000000000000000000000008152600401613ce390615d6d565b60405180910390fd5b80876002018190555050505b505050505b6000831115613d7057600080613d2085846000015461397290919063ffffffff16565b9150915081613d64576040517f08c379a0000000000000000000000000000000000000000000000000000000008152600401613d5b90615dd9565b60405180910390fd5b80836000018190555050505b600080613d8a85856004015461397290919063ffffffff16565b9150915081613dce576040517f08c379a0000000000000000000000000000000000000000000000000000000008152600401613dc590615e45565b60405180910390fd5b808460040181905550600080613df5866003015486600001546138e990919063ffffffff16565b9150915081613e39576040517f08c379a0000000000000000000000000000000000000000000000000000000008152600401613e3090615c29565b60405180910390fd5b613e54670de0b6b3a76400008261393c90919063ffffffff16565b809250819350505081613e9c576040517f08c379a0000000000000000000000000000000000000000000000000000000008152600401613e9390615eb1565b60405180910390fd5b808560010181905550873373ffffffffffffffffffffffffffffffffffffffff167f90890809c654f11d6e72a28fa60149770a0d11ec6c92319d6ceb2bb0a4ea1a1589604051613eec919061456f565b60405180910390a35050505050505050565b6000613f29828473ffffffffffffffffffffffffffffffffffffffff1661411890919063ffffffff16565b90506000815114158015613f4e575080806020019051810190613f4c91906159f9565b155b15613f9057826040517f5274afe7000000000000000000000000000000000000000000000000000000008152600401613f879190615ae1565b60405180910390fd5b505050565b613f9f8282611e4c565b613fe25780826040517fe2517d3f000000000000000000000000000000000000000000000000000000008152600401613fd9929190615ed1565b60405180910390fd5b5050565b613fee61412e565b614024576040517fd7e6bcf800000000000000000000000000000000000000000000000000000000815260040160405180910390fd5b565b60006140547f360894a13ba1a3210667c828492db98dca3e2076cc3735a920a3ca505d382bbc60001b61414e565b60000160009054906101000a900473ffffffffffffffffffffffffffffffffffffffff16905090565b61408682614158565b8173ffffffffffffffffffffffffffffffffffffffff167fbc7cd75a20ee27fd9adebab32041f755214dbc6bffa90cc0225b39da2e5c2d3b60405160405180910390a26000815111156140e3576140dd8282614225565b506140ec565b6140eb6142a9565b5b5050565b600080838311156141075760008091509150614111565b6001838503915091505b9250929050565b6060614126838360006142e6565b905092915050565b600061413861367a565b60000160089054906101000a900460ff16905090565b6000819050919050565b60008173ffffffffffffffffffffffffffffffffffffffff163b036141b457806040517f4c9c8ce30000000000000000000000000000000000000000000000000000000081526004016141ab9190615ae1565b60405180910390fd5b806141e17f360894a13ba1a3210667c828492db98dca3e2076cc3735a920a3ca505d382bbc60001b61414e565b60000160006101000a81548173ffffffffffffffffffffffffffffffffffffffff021916908373ffffffffffffffffffffffffffffffffffffffff16021790555050565b60606000808473ffffffffffffffffffffffffffffffffffffffff168460405161424f9190615f36565b600060405180830381855af49150503d806000811461428a576040519150601f19603f3d011682016040523d82523d6000602084013e61428f565b606091505b509150915061429f8583836143b3565b9250505092915050565b60003411156142e4576040517fb398979f00000000000000000000000000000000000000000000000000000000815260040160405180910390fd5b565b60608147101561432d57306040517fcd7860590000000000000000000000000000000000000000000000000000000081526004016143249190615ae1565b60405180910390fd5b6000808573ffffffffffffffffffffffffffffffffffffffff1684866040516143569190615f36565b60006040518083038185875af1925050503d8060008114614393576040519150601f19603f3d011682016040523d82523d6000602084013e614398565b606091505b50915091506143a88683836143b3565b925050509392505050565b6060826143c8576143c382614442565b61443a565b600082511480156143f0575060008473ffffffffffffffffffffffffffffffffffffffff163b145b1561443257836040517f9996b3150000000000000000000000000000000000000000000000000000000081526004016144299190615ae1565b60405180910390fd5b81905061443b565b5b9392505050565b6000815111156144555780518082602001fd5b6040517f1425ea4200000000000000000000000000000000000000000000000000000000815260040160405180910390fd5b6000604051905090565b600080fd5b600080fd5b60007fffffffff0000000000000000000000000000000000000000000000000000000082169050919050565b6144d08161449b565b81146144db57600080fd5b50565b6000813590506144ed816144c7565b92915050565b60006020828403121561450957614508614491565b5b6000614517848285016144de565b91505092915050565b60008115159050919050565b61453581614520565b82525050565b6000602082019050614550600083018461452c565b92915050565b6000819050919050565b61456981614556565b82525050565b60006020820190506145846000830184614560565b92915050565b61459381614556565b811461459e57600080fd5b50565b6000813590506145b08161458a565b92915050565b600073ffffffffffffffffffffffffffffffffffffffff82169050919050565b60006145e1826145b6565b9050919050565b6145f1816145d6565b81146145fc57600080fd5b50565b60008135905061460e816145e8565b92915050565b6000806040838503121561462b5761462a614491565b5b6000614639858286016145a1565b925050602061464a858286016145ff565b9150509250929050565b6000819050919050565b61466781614654565b811461467257600080fd5b50565b6000813590506146848161465e565b92915050565b6000602082840312156146a05761469f614491565b5b60006146ae84828501614675565b91505092915050565b6146c081614654565b82525050565b60006020820190506146db60008301846146b7565b92915050565b6000602082840312156146f7576146f6614491565b5b6000614705848285016145a1565b91505092915050565b6000806040838503121561472557614724614491565b5b600061473385828601614675565b9250506020614744858286016145ff565b9150509250929050565b60006060820190506147636000830186614560565b6147706020830185614560565b61477d6040830184614560565b949350505050565b60008060006060848603121561479e5761479d614491565b5b60006147ac868287016145a1565b93505060206147bd868287016145ff565b92505060406147ce868287016145a1565b9150509250925092565b60006147e3826145d6565b9050919050565b6147f3816147d8565b81146147fe57600080fd5b50565b600081359050614810816147ea565b92915050565b600080600080608085870312156148305761482f614491565b5b600061483e87828801614801565b945050602061484f878288016145a1565b9350506040614860878288016145a1565b9250506060614871878288016145a1565b91505092959194509250565b600080fd5b600080fd5b6000601f19601f8301169050919050565b7f4e487b7100000000000000000000000000000000000000000000000000000000600052604160045260246000fd5b6148d082614887565b810181811067ffffffffffffffff821117156148ef576148ee614898565b5b80604052505050565b6000614902614487565b905061490e82826148c7565b919050565b600067ffffffffffffffff82111561492e5761492d614898565b5b61493782614887565b9050602081019050919050565b82818337600083830152505050565b600061496661496184614913565b6148f8565b90508281526020810184848401111561498257614981614882565b5b61498d848285614944565b509392505050565b600082601f8301126149aa576149a961487d565b5b81356149ba848260208601614953565b91505092915050565b600080604083850312156149da576149d9614491565b5b60006149e8858286016145ff565b925050602083013567ffffffffffffffff811115614a0957614a08614496565b5b614a1585828601614995565b9150509250929050565b60008060408385031215614a3657614a35614491565b5b6000614a44858286016145a1565b9250506020614a55858286016145a1565b9150509250929050565b6000819050919050565b6000614a84614a7f614a7a846145b6565b614a5f565b6145b6565b9050919050565b6000614a9682614a69565b9050919050565b6000614aa882614a8b565b9050919050565b614ab881614a9d565b82525050565b6000602082019050614ad36000830184614aaf565b92915050565b600081519050919050565b600082825260208201905092915050565b60005b83811015614b13578082015181840152602081019050614af8565b60008484015250505050565b6000614b2a82614ad9565b614b348185614ae4565b9350614b44818560208601614af5565b614b4d81614887565b840191505092915050565b60006020820190508181036000830152614b728184614b1f565b905092915050565b614b8381614520565b8114614b8e57600080fd5b50565b600081359050614ba081614b7a565b92915050565b600080600080600060a08688031215614bc257614bc1614491565b5b6000614bd0888289016145ff565b9550506020614be1888289016145a1565b9450506040614bf2888289016145a1565b9350506060614c03888289016145a1565b9250506080614c1488828901614b91565b9150509295509295909350565b600080600060608486031215614c3a57614c39614491565b5b6000614c48868287016145a1565b9350506020614c59868287016145a1565b9250506040614c6a868287016145a1565b9150509250925092565b600060208284031215614c8a57614c89614491565b5b6000614c9884828501614801565b91505092915050565b600080600060608486031215614cba57614cb9614491565b5b6000614cc8868287016145a1565b9350506020614cd9868287016145a1565b9250506040614cea86828701614b91565b9150509250925092565b614cfd816145d6565b82525050565b600060e082019050614d18600083018a614cf4565b614d256020830189614560565b614d326040830188614560565b614d3f6060830187614560565b614d4c6080830186614560565b614d5960a0830185614560565b614d6660c0830184614560565b98975050505050505050565b6000604082019050614d876000830185614560565b614d946020830184614560565b9392505050565b7f696e76616c696420706964000000000000000000000000000000000000000000600082015250565b6000614dd1600b83614ae4565b9150614ddc82614d9b565b602082019050919050565b60006020820190508181036000830152614e0081614dc4565b9050919050565b7f7769746864726177206973207061757365640000000000000000000000000000600082015250565b6000614e3d601283614ae4565b9150614e4882614e07565b602082019050919050565b60006020820190508181036000830152614e6c81614e30565b9050919050565b7f4e487b7100000000000000000000000000000000000000000000000000000000600052603260045260246000fd5b7f4e487b7100000000000000000000000000000000000000000000000000000000600052601160045260246000fd5b6000614edc82614556565b9150614ee783614556565b9250828201905080821115614eff57614efe614ea2565b5b92915050565b6000614f1082614556565b91507fffffffffffffffffffffffffffffffffffffffffffffffffffffffffffffffff8203614f4257614f41614ea2565b5b600182019050919050565b6000614f5882614556565b9150614f6383614556565b9250828203905081811115614f7b57614f7a614ea2565b5b92915050565b7f4e487b7100000000000000000000000000000000000000000000000000000000600052603160045260246000fd5b7f636c61696d206973207061757365640000000000000000000000000000000000600082015250565b6000614fe6600f83614ae4565b9150614ff182614fb0565b602082019050919050565b6000602082019050818103600083015261501581614fd9565b9050919050565b600061502782614556565b915061503283614556565b925082820261504081614556565b9150828204841483151761505757615056614ea2565b5b5092915050565b7f4e487b7100000000000000000000000000000000000000000000000000000000600052601260045260246000fd5b600061509882614556565b91506150a383614556565b9250826150b3576150b261505e565b5b828204905092915050565b7f696e76616c696420706172616d65746572730000000000000000000000000000600082015250565b60006150f4601283614ae4565b91506150ff826150be565b602082019050919050565b60006020820190508181036000830152615123816150e7565b9050919050565b6000819050919050565b600067ffffffffffffffff82169050919050565b600061516361515e6151598461512a565b614a5f565b615134565b9050919050565b61517381615148565b82525050565b600060208201905061518e600083018461516a565b92915050565b7f6f766572666c6f77000000000000000000000000000000000000000000000000600082015250565b60006151ca600883614ae4565b91506151d582615194565b602082019050919050565b600060208201905081810360008301526151f9816151bd565b9050919050565b7f776974686472617720686173206265656e20616c726561647920756e7061757360008201527f6564000000000000000000000000000000000000000000000000000000000000602082015250565b600061525c602283614ae4565b915061526782615200565b604082019050919050565b6000602082019050818103600083015261528b8161524f565b9050919050565b7f776974686472617720686173206265656e20616c726561647920706175736564600082015250565b60006152c8602083614ae4565b91506152d382615292565b602082019050919050565b600060208201905081810360008301526152f7816152bb565b9050919050565b7f696e76616c696420626c6f636b00000000000000000000000000000000000000600082015250565b6000615334600d83614ae4565b915061533f826152fe565b602082019050919050565b6000602082019050818103600083015261536381615327565b9050919050565b7f656e6420626c6f636b206d7573742062652067726561746572207468616e207360008201527f7461727420626c6f636b00000000000000000000000000000000000000000000602082015250565b60006153c6602a83614ae4565b91506153d18261536a565b604082019050919050565b600060208201905081810360008301526153f5816153b9565b9050919050565b7f6d756c7469706c696572206f766572666c6f7700000000000000000000000000600082015250565b6000615432601383614ae4565b915061543d826153fc565b602082019050919050565b6000602082019050818103600083015261546181615425565b9050919050565b7f636c61696d20686173206265656e20616c726561647920706175736564000000600082015250565b600061549e601d83614ae4565b91506154a982615468565b602082019050919050565b600060208201905081810360008301526154cd81615491565b9050919050565b7f4e6f7420656e6f756768207374616b696e6720746f6b656e2062616c616e6365600082015250565b600061550a602083614ae4565b9150615515826154d4565b602082019050919050565b60006020820190508181036000830152615539816154fd565b9050919050565b7f696e76616c6964207374616b696e6720746f6b656e2061646472657373000000600082015250565b6000615576601d83614ae4565b915061558182615540565b602082019050919050565b600060208201905081810360008301526155a581615569565b9050919050565b7f696e76616c6964207769746864726177206c6f636b656420626c6f636b730000600082015250565b60006155e2601e83614ae4565b91506155ed826155ac565b602082019050919050565b60006020820190508181036000830152615611816155d5565b9050919050565b7f416c726561647920656e64656400000000000000000000000000000000000000600082015250565b600061564e600d83614ae4565b915061565982615618565b602082019050919050565b6000602082019050818103600083015261567d81615641565b9050919050565b7f696e76616c696420706172616d65746572000000000000000000000000000000600082015250565b60006156ba601183614ae4565b91506156c582615684565b602082019050919050565b600060208201905081810360008301526156e9816156ad565b9050919050565b7f737461727420626c6f636b206d75737420626520736d616c6c6572207468616e60008201527f20656e6420626c6f636b00000000000000000000000000000000000000000000602082015250565b600061574c602a83614ae4565b9150615757826156f0565b604082019050919050565b6000602082019050818103600083015261577b8161573f565b9050919050565b7f636c61696d20686173206265656e20616c726561647920756e70617573656400600082015250565b60006157b8601f83614ae4565b91506157c382615782565b602082019050919050565b600060208201905081810360008301526157e7816157ab565b9050919050565b7f6465706f736974206e6f7420737570706f727420455448207374616b696e6700600082015250565b6000615824601f83614ae4565b915061582f826157ee565b602082019050919050565b6000602082019050818103600083015261585381615817565b9050919050565b7f6465706f73697420616d6f756e7420697320746f6f20736d616c6c0000000000600082015250565b6000615890601b83614ae4565b915061589b8261585a565b602082019050919050565b600060208201905081810360008301526158bf81615883565b9050919050565b7f696e76616c696420706f6f6c2077656967687400000000000000000000000000600082015250565b60006158fc601383614ae4565b9150615907826158c6565b602082019050919050565b6000602082019050818103600083015261592b816158ef565b9050919050565b600081905092915050565b50565b600061594d600083615932565b91506159588261593d565b600082019050919050565b600061596e82615940565b9150819050919050565b7f455448207472616e736665722063616c6c206661696c65640000000000000000600082015250565b60006159ae601883614ae4565b91506159b982615978565b602082019050919050565b600060208201905081810360008301526159dd816159a1565b9050919050565b6000815190506159f381614b7a565b92915050565b600060208284031215615a0f57615a0e614491565b5b6000615a1d848285016159e4565b91505092915050565b7f455448207472616e73666572206f7065726174696f6e20646964206e6f74207360008201527f7563636565640000000000000000000000000000000000000000000000000000602082015250565b6000615a82602683614ae4565b9150615a8d82615a26565b604082019050919050565b60006020820190508181036000830152615ab181615a75565b9050919050565b6000604082019050615acd6000830185614cf4565b615ada6020830184614560565b9392505050565b6000602082019050615af66000830184614cf4565b92915050565b600081519050615b0b8161458a565b92915050565b600060208284031215615b2757615b26614491565b5b6000615b3584828501615afc565b91505092915050565b600081519050615b4d8161465e565b92915050565b600060208284031215615b6957615b68614491565b5b6000615b7784828501615b3e565b91505092915050565b6000606082019050615b956000830186614cf4565b615ba26020830185614cf4565b615baf6040830184614560565b949350505050565b7f75736572207374416d6f756e74206d756c206163635243435065725354206f7660008201527f6572666c6f770000000000000000000000000000000000000000000000000000602082015250565b6000615c13602683614ae4565b9150615c1e82615bb7565b604082019050919050565b60006020820190508181036000830152615c4281615c06565b9050919050565b7f6163635354206469762031206574686572206f766572666c6f77000000000000600082015250565b6000615c7f601a83614ae4565b9150615c8a82615c49565b602082019050919050565b60006020820190508181036000830152615cae81615c72565b9050919050565b7f6163635354207375622066696e6973686564524343206f766572666c6f770000600082015250565b6000615ceb601e83614ae4565b9150615cf682615cb5565b602082019050919050565b60006020820190508181036000830152615d1a81615cde565b9050919050565b7f757365722070656e64696e67524343206f766572666c6f770000000000000000600082015250565b6000615d57601883614ae4565b9150615d6282615d21565b602082019050919050565b60006020820190508181036000830152615d8681615d4a565b9050919050565b7f75736572207374416d6f756e74206f766572666c6f7700000000000000000000600082015250565b6000615dc3601683614ae4565b9150615dce82615d8d565b602082019050919050565b60006020820190508181036000830152615df281615db6565b9050919050565b7f706f6f6c207374546f6b656e416d6f756e74206f766572666c6f770000000000600082015250565b6000615e2f601b83614ae4565b9150615e3a82615df9565b602082019050919050565b60006020820190508181036000830152615e5e81615e22565b9050919050565b7f66696e6973686564524343206469762031206574686572206f766572666c6f77600082015250565b6000615e9b602083614ae4565b9150615ea682615e65565b602082019050919050565b60006020820190508181036000830152615eca81615e8e565b9050919050565b6000604082019050615ee66000830185614cf4565b615ef360208301846146b7565b9392505050565b600081519050919050565b6000615f1082615efa565b615f1a8185615932565b9350615f2a818560208601614af5565b80840191505092915050565b6000615f428284615f05565b91508190509291505056fea26469706673582212208380a45b985b1b06458a748de9704390b1bb8c4afe6d75d4e2861d952798369d64736f6c63430008140033",
  "linkReferences": {},
  "deployedLinkReferences": {}
}