{
  "_format": "hh-sol-artifact-1",
  "contractName": "NFTSwap",
  "sourceName": "contracts/learnTest/NFTSwap.sol",
  "abi": [
    {
      "anonymous": false,
      "inputs": [
        {
          "indexed": true,
          "internalType": "address",
          "name": "seller",
          "type": "address"
        },
        {
          "indexed": true,
          "internalType": "address",
          "name": "nftAddr",
          "type": "address"
        },
        {
          "indexed": true,
          "internalType": "uint256",
          "name": "tokenId",
          "type": "uint256"
        },
        {
          "indexed": false,
          "internalType": "uint256",
          "name": "price",
          "type": "uint256"
        }
      ],
      "name": "List",
      "type": "event"
    },
    {
      "anonymous": false,
      "inputs": [
        {
          "indexed": true,
          "internalType": "address",
          "name": "buyer",
          "type": "address"
        },
        {
          "indexed": true,
          "internalType": "address",
          "name": "nftAddr",
          "type": "address"
        },
        {
          "indexed": true,
          "internalType": "uint256",
          "name": "tokenId",
          "type": "uint256"
        },
        {
          "indexed": false,
          "internalType": "uint256",
          "name": "price",
          "type": "uint256"
        }
      ],
      "name": "Purchase",
      "type": "event"
    },
    {
      "anonymous": false,
      "inputs": [
        {
          "indexed": true,
          "internalType": "address",
          "name": "seller",
          "type": "address"
        },
        {
          "indexed": true,
          "internalType": "address",
          "name": "nftAddr",
          "type": "address"
        },
        {
          "indexed": true,
          "internalType": "uint256",
          "name": "tokenId",
          "type": "uint256"
        }
      ],
      "name": "Revoke",
      "type": "event"
    },
    {
      "anonymous": false,
      "inputs": [
        {
          "indexed": true,
          "internalType": "address",
          "name": "seller",
          "type": "address"
        },
        {
          "indexed": true,
          "internalType": "address",
          "name": "nftAddr",
          "type": "address"
        },
        {
          "indexed": true,
          "internalType": "uint256",
          "name": "tokenId",
          "type": "uint256"
        },
        {
          "indexed": false,
          "internalType": "uint256",
          "name": "newPrice",
          "type": "uint256"
        }
      ],
      "name": "Update",
      "type": "event"
    },
    {
      "stateMutability": "payable",
      "type": "fallback"
    },
    {
      "inputs": [
        {
          "internalType": "address",
          "name": "_nftAddr",
          "type": "address"
        },
        {
          "internalType": "uint256",
          "name": "_tokenId",
          "type": "uint256"
        },
        {
          "internalType": "uint256",
          "name": "_price",
          "type": "uint256"
        }
      ],
      "name": "list",
      "outputs": [],
      "stateMutability": "nonpayable",
      "type": "function"
    },
    {
      "inputs": [
        {
          "internalType": "address",
          "name": "",
          "type": "address"
        },
        {
          "internalType": "uint256",
          "name": "",
          "type": "uint256"
        }
      ],
      "name": "nftList",
      "outputs": [
        {
          "internalType": "address",
          "name": "owner",
          "type": "address"
        },
        {
          "internalType": "uint256",
          "name": "price",
          "type": "uint256"
        }
      ],
      "stateMutability": "view",
      "type": "function"
    },
    {
      "inputs": [
        {
          "internalType": "address",
          "name": "operator",
          "type": "address"
        },
        {
          "internalType": "address",
          "name": "from",
          "type": "address"
        },
        {
          "internalType": "uint256",
          "name": "tokenId",
          "type": "uint256"
        },
        {
          "internalType": "bytes",
          "name": "data",
          "type": "bytes"
        }
      ],
      "name": "onERC721Received",
      "outputs": [
        {
          "internalType": "bytes4",
          "name": "",
          "type": "bytes4"
        }
      ],
      "stateMutability": "nonpayable",
      "type": "function"
    },
    {
      "inputs": [
        {
          "internalType": "address",
          "name": "_nftAddr",
          "type": "address"
        },
        {
          "internalType": "uint256",
          "name": "_tokenId",
          "type": "uint256"
        }
      ],
      "name": "purchase",
      "outputs": [],
      "stateMutability": "payable",
      "type": "function"
    },
    {
      "inputs": [
        {
          "internalType": "address",
          "name": "_nftAddr",
          "type": "address"
        },
        {
          "internalType": "uint256",
          "name": "_tokenId",
          "type": "uint256"
        }
      ],
      "name": "revoke",
      "outputs": [],
      "stateMutability": "nonpayable",
      "type": "function"
    },
    {
      "inputs": [
        {
          "internalType": "address",
          "name": "_nftAddr",
          "type": "address"
        },
        {
          "internalType": "uint256",
          "name": "_tokenId",
          "type": "uint256"
        },
        {
          "internalType": "uint256",
          "name": "_newPrice",
          "type": "uint256"
        }
      ],
      "name": "update",
      "outputs": [],
      "stateMutability": "nonpayable",
      "type": "function"
    },
    {
      "stateMutability": "payable",
      "type": "receive"
    }
  ],
  "bytecode": "0x60808060405234610016576108dc908161001c8239f35b600080fdfe6080604081815260048036101561001e575b505050361561001c57005b005b600092833560e01c908163150b7a0214610721575080638de9322214610500578063ba5f4fb2146104ae578063d09b6d4314610361578063dda342bb146102035763eac449d90361001157346101ff57816003193601126101ff57610081610798565b916024359260018060a01b0380911692838652602091868352838720868852835280848820541633036101c55783516331a9108f60e11b815280830187905287929184826024818a5afa9182156101bb57906100e89291859261018c575b5016301461086a565b843b156101885781866101119286519384928392632142170760e11b8452339030908501610848565b038183895af1801561017e57610166575b50916001918460009452868152818720908688525285208281550155337fb698e31a2abee5824d0d7bcfd2339aead7f9e9ae413fba50bf554ff3fa470b7b8480a480f35b61016f906107dd565b61017a578438610122565b8480fd5b84513d84823e3d90fd5b5080fd5b6101ad919250863d88116101b4575b6101a58183610807565b810190610829565b90386100df565b503d61019b565b86513d86823e3d90fd5b50915162461bcd60e51b81529182015260156024820152746f6e6c79206f776e65722063616e207265766f6b6560581b6044820152606490fd5b8280fd5b50346101ff57610212366107b3565b845163020604bf60e21b815280850183905291946001600160a01b0393841694919390926020929183826024818a5afa918215610357578992610338575b5030911603610308578690841561018857858252818352838220878352835283822080546001600160a01b03191633178155600101859055853b156101885781876102b19286519384928392632142170760e11b8452309033908501610848565b0381838a5af1801561017e576102f0575b50507fedbdf022944a3291f4b30148903a84720506f48e10478ec5812e5caf30e1fab091519283523392a480f35b6102f9906107dd565b6103045785386102c2565b8580fd5b915162461bcd60e51b815291820152600c60248201526b4e65656420417070726f766560a01b6044820152606490fd5b610350919250843d86116101b4576101a58183610807565b9038610250565b85513d8b823e3d90fd5b50346101ff57610370366107b3565b91929093821561046b5760018060a01b038094169384875260209287845282882087895284528288209180835416330361042f5783516331a9108f60e11b815291820188905284826024818a5afa918215610425579261040187936001937fb7f0ca7cd5b24651672216886135b99ff40342bcf549009a4c6fc74f059fb9a09897968d9261040d575016301461086a565b0155519283523392a480f35b6101ad919250883d8a116101b4576101a58183610807565b84513d8b823e3d90fd5b835162461bcd60e51b815280830186905260166024820152756f6e6c792073656c6c65722063616e2075706461746560501b6044820152606490fd5b906020606492519162461bcd60e51b8352820152601c60248201527f7072696365206d7573742062652067726561746572207468616e2030000000006044820152fd5b8284346104fd57816003193601126104fd576001600160a01b03906001908390836104d7610798565b168152806020528181206024358252602052209182541691015482519182526020820152f35b80fd5b5090806003193601126101ff57610515610798565b906024359260018060a01b03809316928386526020918683528387208688528352838720916001830192835480156106ee5734106106ba5785516331a9108f60e11b815283810189905285816024818b5afa90811561068f5790610584918b9161069d575b508316301461086a565b863b15610699578551632142170760e11b81528981806105a88c33308a8501610848565b0381838c5af1801561068f5761067a575b508880809381935416865490828215610671575bf1156106675781548034039134831161065457508780809381938290341461064b575b3390f11561064157907f46661dab58311a6838247afecbee792192b4f27fc8b3e7168c66bc55ec2e404e9184875286825283872086885282526000600185892082815501555492519283523392a480f35b82513d87823e3d90fd5b506108fc6105f0565b634e487b7160e01b895260119052602488fd5b83513d88823e3d90fd5b506108fc6105cd565b61068790999192996107dd565b9790386105b9565b87513d8c823e3d90fd5b8880fd5b6106b49150873d89116101b4576101a58183610807565b3861057a565b855162461bcd60e51b8152808401869052600e60248201526d496e63726561736520707269636560901b6044820152606490fd5b865162461bcd60e51b8152808501879052600d60248201526c496e76616c696420507269636560981b6044820152606490fd5b925050346101ff5760803660031901126101ff5761073d610798565b506024356001600160a01b038116036101ff576064359067ffffffffffffffff9081831161017a573660238401121561017a57820135908111610794573691016024011161018857630a85bd0160e11b8152602090f35b8380fd5b600435906001600160a01b03821682036107ae57565b600080fd5b60609060031901126107ae576004356001600160a01b03811681036107ae57906024359060443590565b67ffffffffffffffff81116107f157604052565b634e487b7160e01b600052604160045260246000fd5b90601f8019910116810190811067ffffffffffffffff8211176107f157604052565b908160209103126107ae57516001600160a01b03811681036107ae5790565b6001600160a01b03918216815291166020820152604081019190915260600190565b1561087157565b60405162461bcd60e51b815260206004820152600d60248201526c24b73b30b634b21027b93232b960991b6044820152606490fdfea2646970667358221220d120106461a0740da07d40f2879e261474ec4bf393b4dc6136aad7dd2a1c395064736f6c63430008140033",
  "linkReferences": {},
  "deployedLinkReferences": {}
}