{
  "_format": "hh-sol-artifact-1",
  "contractName": "EasySwapOrderBook",
  "sourceName": "contracts/EasySwapOrderBook.sol",
  "abi": [
    {
      "inputs": [],
      "name": "CannotFindNextEmptyKey",
      "type": "error"
    },
    {
      "inputs": [],
      "name": "CannotFindPrevEmptyKey",
      "type": "error"
    },
    {
      "inputs": [
        {
          "internalType": "OrderKey",
          "name": "orderKey",
          "type": "bytes32"
        }
      ],
      "name": "CannotInsertDuplicateOrder",
      "type": "error"
    },
    {
      "inputs": [],
      "name": "CannotInsertEmptyKey",
      "type": "error"
    },
    {
      "inputs": [],
      "name": "CannotInsertExistingKey",
      "type": "error"
    },
    {
      "inputs": [],
      "name": "CannotRemoveEmptyKey",
      "type": "error"
    },
    {
      "inputs": [],
      "name": "CannotRemoveMissingKey",
      "type": "error"
    },
    {
      "inputs": [],
      "name": "EnforcedPause",
      "type": "error"
    },
    {
      "inputs": [],
      "name": "ExpectedPause",
      "type": "error"
    },
    {
      "inputs": [],
      "name": "InvalidInitialization",
      "type": "error"
    },
    {
      "inputs": [],
      "name": "NotInitializing",
      "type": "error"
    },
    {
      "inputs": [
        {
          "internalType": "address",
          "name": "owner",
          "type": "address"
        }
      ],
      "name": "OwnableInvalidOwner",
      "type": "error"
    },
    {
      "inputs": [
        {
          "internalType": "address",
          "name": "account",
          "type": "address"
        }
      ],
      "name": "OwnableUnauthorizedAccount",
      "type": "error"
    },
    {
      "inputs": [],
      "name": "ReentrancyGuardReentrantCall",
      "type": "error"
    },
    {
      "anonymous": false,
      "inputs": [
        {
          "indexed": false,
          "internalType": "uint256",
          "name": "offset",
          "type": "uint256"
        },
        {
          "indexed": false,
          "internalType": "bytes",
          "name": "msg",
          "type": "bytes"
        }
      ],
      "name": "BatchMatchInnerError",
      "type": "event"
    },
    {
      "anonymous": false,
      "inputs": [],
      "name": "EIP712DomainChanged",
      "type": "event"
    },
    {
      "anonymous": false,
      "inputs": [
        {
          "indexed": false,
          "internalType": "uint64",
          "name": "version",
          "type": "uint64"
        }
      ],
      "name": "Initialized",
      "type": "event"
    },
    {
      "anonymous": false,
      "inputs": [
        {
          "indexed": true,
          "internalType": "OrderKey",
          "name": "orderKey",
          "type": "bytes32"
        },
        {
          "indexed": true,
          "internalType": "address",
          "name": "maker",
          "type": "address"
        }
      ],
      "name": "LogCancel",
      "type": "event"
    },
    {
      "anonymous": false,
      "inputs": [
        {
          "indexed": false,
          "internalType": "OrderKey",
          "name": "orderKey",
          "type": "bytes32"
        },
        {
          "indexed": true,
          "internalType": "enum LibOrder.Side",
          "name": "side",
          "type": "uint8"
        },
        {
          "indexed": true,
          "internalType": "enum LibOrder.SaleKind",
          "name": "saleKind",
          "type": "uint8"
        },
        {
          "indexed": true,
          "internalType": "address",
          "name": "maker",
          "type": "address"
        },
        {
          "components": [
            {
              "internalType": "uint256",
              "name": "tokenId",
              "type": "uint256"
            },
            {
              "internalType": "address",
              "name": "collection",
              "type": "address"
            },
            {
              "internalType": "uint96",
              "name": "amount",
              "type": "uint96"
            }
          ],
          "indexed": false,
          "internalType": "struct LibOrder.Asset",
          "name": "nft",
          "type": "tuple"
        },
        {
          "indexed": false,
          "internalType": "Price",
          "name": "price",
          "type": "uint128"
        },
        {
          "indexed": false,
          "internalType": "uint64",
          "name": "expiry",
          "type": "uint64"
        },
        {
          "indexed": false,
          "internalType": "uint64",
          "name": "salt",
          "type": "uint64"
        }
      ],
      "name": "LogMake",
      "type": "event"
    },
    {
      "anonymous": false,
      "inputs": [
        {
          "indexed": true,
          "internalType": "OrderKey",
          "name": "makeOrderKey",
          "type": "bytes32"
        },
        {
          "indexed": true,
          "internalType": "OrderKey",
          "name": "takeOrderKey",
          "type": "bytes32"
        },
        {
          "components": [
            {
              "internalType": "enum LibOrder.Side",
              "name": "side",
              "type": "uint8"
            },
            {
              "internalType": "enum LibOrder.SaleKind",
              "name": "saleKind",
              "type": "uint8"
            },
            {
              "internalType": "address",
              "name": "maker",
              "type": "address"
            },
            {
              "components": [
                {
                  "internalType": "uint256",
                  "name": "tokenId",
                  "type": "uint256"
                },
                {
                  "internalType": "address",
                  "name": "collection",
                  "type": "address"
                },
                {
                  "internalType": "uint96",
                  "name": "amount",
                  "type": "uint96"
                }
              ],
              "internalType": "struct LibOrder.Asset",
              "name": "nft",
              "type": "tuple"
            },
            {
              "internalType": "Price",
              "name": "price",
              "type": "uint128"
            },
            {
              "internalType": "uint64",
              "name": "expiry",
              "type": "uint64"
            },
            {
              "internalType": "uint64",
              "name": "salt",
              "type": "uint64"
            }
          ],
          "indexed": false,
          "internalType": "struct LibOrder.Order",
          "name": "makeOrder",
          "type": "tuple"
        },
        {
          "components": [
            {
              "internalType": "enum LibOrder.Side",
              "name": "side",
              "type": "uint8"
            },
            {
              "internalType": "enum LibOrder.SaleKind",
              "name": "saleKind",
              "type": "uint8"
            },
            {
              "internalType": "address",
              "name": "maker",
              "type": "address"
            },
            {
              "components": [
                {
                  "internalType": "uint256",
                  "name": "tokenId",
                  "type": "uint256"
                },
                {
                  "internalType": "address",
                  "name": "collection",
                  "type": "address"
                },
                {
                  "internalType": "uint96",
                  "name": "amount",
                  "type": "uint96"
                }
              ],
              "internalType": "struct LibOrder.Asset",
              "name": "nft",
              "type": "tuple"
            },
            {
              "internalType": "Price",
              "name": "price",
              "type": "uint128"
            },
            {
              "internalType": "uint64",
              "name": "expiry",
              "type": "uint64"
            },
            {
              "internalType": "uint64",
              "name": "salt",
              "type": "uint64"
            }
          ],
          "indexed": false,
          "internalType": "struct LibOrder.Order",
          "name": "takeOrder",
          "type": "tuple"
        },
        {
          "indexed": false,
          "internalType": "uint128",
          "name": "fillPrice",
          "type": "uint128"
        }
      ],
      "name": "LogMatch",
      "type": "event"
    },
    {
      "anonymous": false,
      "inputs": [
        {
          "indexed": false,
          "internalType": "OrderKey",
          "name": "orderKey",
          "type": "bytes32"
        },
        {
          "indexed": false,
          "internalType": "uint64",
          "name": "salt",
          "type": "uint64"
        }
      ],
      "name": "LogSkipOrder",
      "type": "event"
    },
    {
      "anonymous": false,
      "inputs": [
        {
          "indexed": true,
          "internalType": "uint128",
          "name": "newProtocolShare",
          "type": "uint128"
        }
      ],
      "name": "LogUpdatedProtocolShare",
      "type": "event"
    },
    {
      "anonymous": false,
      "inputs": [
        {
          "indexed": false,
          "internalType": "address",
          "name": "recipient",
          "type": "address"
        },
        {
          "indexed": false,
          "internalType": "uint256",
          "name": "amount",
          "type": "uint256"
        }
      ],
      "name": "LogWithdrawETH",
      "type": "event"
    },
    {
      "anonymous": false,
      "inputs": [
        {
          "indexed": true,
          "internalType": "address",
          "name": "previousOwner",
          "type": "address"
        },
        {
          "indexed": true,
          "internalType": "address",
          "name": "newOwner",
          "type": "address"
        }
      ],
      "name": "OwnershipTransferred",
      "type": "event"
    },
    {
      "anonymous": false,
      "inputs": [
        {
          "indexed": false,
          "internalType": "address",
          "name": "account",
          "type": "address"
        }
      ],
      "name": "Paused",
      "type": "event"
    },
    {
      "anonymous": false,
      "inputs": [
        {
          "indexed": false,
          "internalType": "address",
          "name": "account",
          "type": "address"
        }
      ],
      "name": "Unpaused",
      "type": "event"
    },
    {
      "inputs": [
        {
          "internalType": "OrderKey[]",
          "name": "orderKeys",
          "type": "bytes32[]"
        }
      ],
      "name": "cancelOrders",
      "outputs": [
        {
          "internalType": "bool[]",
          "name": "successes",
          "type": "bool[]"
        }
      ],
      "stateMutability": "nonpayable",
      "type": "function"
    },
    {
      "inputs": [
        {
          "components": [
            {
              "internalType": "OrderKey",
              "name": "oldOrderKey",
              "type": "bytes32"
            },
            {
              "components": [
                {
                  "internalType": "enum LibOrder.Side",
                  "name": "side",
                  "type": "uint8"
                },
                {
                  "internalType": "enum LibOrder.SaleKind",
                  "name": "saleKind",
                  "type": "uint8"
                },
                {
                  "internalType": "address",
                  "name": "maker",
                  "type": "address"
                },
                {
                  "components": [
                    {
                      "internalType": "uint256",
                      "name": "tokenId",
                      "type": "uint256"
                    },
                    {
                      "internalType": "address",
                      "name": "collection",
                      "type": "address"
                    },
                    {
                      "internalType": "uint96",
                      "name": "amount",
                      "type": "uint96"
                    }
                  ],
                  "internalType": "struct LibOrder.Asset",
                  "name": "nft",
                  "type": "tuple"
                },
                {
                  "internalType": "Price",
                  "name": "price",
                  "type": "uint128"
                },
                {
                  "internalType": "uint64",
                  "name": "expiry",
                  "type": "uint64"
                },
                {
                  "internalType": "uint64",
                  "name": "salt",
                  "type": "uint64"
                }
              ],
              "internalType": "struct LibOrder.Order",
              "name": "newOrder",
              "type": "tuple"
            }
          ],
          "internalType": "struct LibOrder.EditDetail[]",
          "name": "editDetails",
          "type": "tuple[]"
        }
      ],
      "name": "editOrders",
      "outputs": [
        {
          "internalType": "OrderKey[]",
          "name": "newOrderKeys",
          "type": "bytes32[]"
        }
      ],
      "stateMutability": "payable",
      "type": "function"
    },
    {
      "inputs": [],
      "name": "eip712Domain",
      "outputs": [
        {
          "internalType": "bytes1",
          "name": "fields",
          "type": "bytes1"
        },
        {
          "internalType": "string",
          "name": "name",
          "type": "string"
        },
        {
          "internalType": "string",
          "name": "version",
          "type": "string"
        },
        {
          "internalType": "uint256",
          "name": "chainId",
          "type": "uint256"
        },
        {
          "internalType": "address",
          "name": "verifyingContract",
          "type": "address"
        },
        {
          "internalType": "bytes32",
          "name": "salt",
          "type": "bytes32"
        },
        {
          "internalType": "uint256[]",
          "name": "extensions",
          "type": "uint256[]"
        }
      ],
      "stateMutability": "view",
      "type": "function"
    },
    {
      "inputs": [
        {
          "internalType": "OrderKey",
          "name": "",
          "type": "bytes32"
        }
      ],
      "name": "filledAmount",
      "outputs": [
        {
          "internalType": "uint256",
          "name": "",
          "type": "uint256"
        }
      ],
      "stateMutability": "view",
      "type": "function"
    },
    {
      "inputs": [
        {
          "internalType": "address",
          "name": "collection",
          "type": "address"
        },
        {
          "internalType": "uint256",
          "name": "tokenId",
          "type": "uint256"
        },
        {
          "internalType": "enum LibOrder.Side",
          "name": "side",
          "type": "uint8"
        },
        {
          "internalType": "enum LibOrder.SaleKind",
          "name": "saleKind",
          "type": "uint8"
        }
      ],
      "name": "getBestOrder",
      "outputs": [
        {
          "components": [
            {
              "internalType": "enum LibOrder.Side",
              "name": "side",
              "type": "uint8"
            },
            {
              "internalType": "enum LibOrder.SaleKind",
              "name": "saleKind",
              "type": "uint8"
            },
            {
              "internalType": "address",
              "name": "maker",
              "type": "address"
            },
            {
              "components": [
                {
                  "internalType": "uint256",
                  "name": "tokenId",
                  "type": "uint256"
                },
                {
                  "internalType": "address",
                  "name": "collection",
                  "type": "address"
                },
                {
                  "internalType": "uint96",
                  "name": "amount",
                  "type": "uint96"
                }
              ],
              "internalType": "struct LibOrder.Asset",
              "name": "nft",
              "type": "tuple"
            },
            {
              "internalType": "Price",
              "name": "price",
              "type": "uint128"
            },
            {
              "internalType": "uint64",
              "name": "expiry",
              "type": "uint64"
            },
            {
              "internalType": "uint64",
              "name": "salt",
              "type": "uint64"
            }
          ],
          "internalType": "struct LibOrder.Order",
          "name": "orderResult",
          "type": "tuple"
        }
      ],
      "stateMutability": "view",
      "type": "function"
    },
    {
      "inputs": [
        {
          "internalType": "address",
          "name": "collection",
          "type": "address"
        },
        {
          "internalType": "enum LibOrder.Side",
          "name": "side",
          "type": "uint8"
        }
      ],
      "name": "getBestPrice",
      "outputs": [
        {
          "internalType": "Price",
          "name": "price",
          "type": "uint128"
        }
      ],
      "stateMutability": "view",
      "type": "function"
    },
    {
      "inputs": [
        {
          "internalType": "address",
          "name": "collection",
          "type": "address"
        },
        {
          "internalType": "enum LibOrder.Side",
          "name": "side",
          "type": "uint8"
        },
        {
          "internalType": "Price",
          "name": "price",
          "type": "uint128"
        }
      ],
      "name": "getNextBestPrice",
      "outputs": [
        {
          "internalType": "Price",
          "name": "nextBestPrice",
          "type": "uint128"
        }
      ],
      "stateMutability": "view",
      "type": "function"
    },
    {
      "inputs": [
        {
          "internalType": "address",
          "name": "collection",
          "type": "address"
        },
        {
          "internalType": "uint256",
          "name": "tokenId",
          "type": "uint256"
        },
        {
          "internalType": "enum LibOrder.Side",
          "name": "side",
          "type": "uint8"
        },
        {
          "internalType": "enum LibOrder.SaleKind",
          "name": "saleKind",
          "type": "uint8"
        },
        {
          "internalType": "uint256",
          "name": "count",
          "type": "uint256"
        },
        {
          "internalType": "Price",
          "name": "price",
          "type": "uint128"
        },
        {
          "internalType": "OrderKey",
          "name": "firstOrderKey",
          "type": "bytes32"
        }
      ],
      "name": "getOrders",
      "outputs": [
        {
          "components": [
            {
              "internalType": "enum LibOrder.Side",
              "name": "side",
              "type": "uint8"
            },
            {
              "internalType": "enum LibOrder.SaleKind",
              "name": "saleKind",
              "type": "uint8"
            },
            {
              "internalType": "address",
              "name": "maker",
              "type": "address"
            },
            {
              "components": [
                {
                  "internalType": "uint256",
                  "name": "tokenId",
                  "type": "uint256"
                },
                {
                  "internalType": "address",
                  "name": "collection",
                  "type": "address"
                },
                {
                  "internalType": "uint96",
                  "name": "amount",
                  "type": "uint96"
                }
              ],
              "internalType": "struct LibOrder.Asset",
              "name": "nft",
              "type": "tuple"
            },
            {
              "internalType": "Price",
              "name": "price",
              "type": "uint128"
            },
            {
              "internalType": "uint64",
              "name": "expiry",
              "type": "uint64"
            },
            {
              "internalType": "uint64",
              "name": "salt",
              "type": "uint64"
            }
          ],
          "internalType": "struct LibOrder.Order[]",
          "name": "resultOrders",
          "type": "tuple[]"
        },
        {
          "internalType": "OrderKey",
          "name": "nextOrderKey",
          "type": "bytes32"
        }
      ],
      "stateMutability": "view",
      "type": "function"
    },
    {
      "inputs": [
        {
          "internalType": "uint128",
          "name": "newProtocolShare",
          "type": "uint128"
        },
        {
          "internalType": "address",
          "name": "newVault",
          "type": "address"
        },
        {
          "internalType": "string",
          "name": "EIP712Name",
          "type": "string"
        },
        {
          "internalType": "string",
          "name": "EIP712Version",
          "type": "string"
        }
      ],
      "name": "initialize",
      "outputs": [],
      "stateMutability": "nonpayable",
      "type": "function"
    },
    {
      "inputs": [
        {
          "components": [
            {
              "internalType": "enum LibOrder.Side",
              "name": "side",
              "type": "uint8"
            },
            {
              "internalType": "enum LibOrder.SaleKind",
              "name": "saleKind",
              "type": "uint8"
            },
            {
              "internalType": "address",
              "name": "maker",
              "type": "address"
            },
            {
              "components": [
                {
                  "internalType": "uint256",
                  "name": "tokenId",
                  "type": "uint256"
                },
                {
                  "internalType": "address",
                  "name": "collection",
                  "type": "address"
                },
                {
                  "internalType": "uint96",
                  "name": "amount",
                  "type": "uint96"
                }
              ],
              "internalType": "struct LibOrder.Asset",
              "name": "nft",
              "type": "tuple"
            },
            {
              "internalType": "Price",
              "name": "price",
              "type": "uint128"
            },
            {
              "internalType": "uint64",
              "name": "expiry",
              "type": "uint64"
            },
            {
              "internalType": "uint64",
              "name": "salt",
              "type": "uint64"
            }
          ],
          "internalType": "struct LibOrder.Order[]",
          "name": "newOrders",
          "type": "tuple[]"
        }
      ],
      "name": "makeOrders",
      "outputs": [
        {
          "internalType": "OrderKey[]",
          "name": "newOrderKeys",
          "type": "bytes32[]"
        }
      ],
      "stateMutability": "payable",
      "type": "function"
    },
    {
      "inputs": [
        {
          "components": [
            {
              "internalType": "enum LibOrder.Side",
              "name": "side",
              "type": "uint8"
            },
            {
              "internalType": "enum LibOrder.SaleKind",
              "name": "saleKind",
              "type": "uint8"
            },
            {
              "internalType": "address",
              "name": "maker",
              "type": "address"
            },
            {
              "components": [
                {
                  "internalType": "uint256",
                  "name": "tokenId",
                  "type": "uint256"
                },
                {
                  "internalType": "address",
                  "name": "collection",
                  "type": "address"
                },
                {
                  "internalType": "uint96",
                  "name": "amount",
                  "type": "uint96"
                }
              ],
              "internalType": "struct LibOrder.Asset",
              "name": "nft",
              "type": "tuple"
            },
            {
              "internalType": "Price",
              "name": "price",
              "type": "uint128"
            },
            {
              "internalType": "uint64",
              "name": "expiry",
              "type": "uint64"
            },
            {
              "internalType": "uint64",
              "name": "salt",
              "type": "uint64"
            }
          ],
          "internalType": "struct LibOrder.Order",
          "name": "sellOrder",
          "type": "tuple"
        },
        {
          "components": [
            {
              "internalType": "enum LibOrder.Side",
              "name": "side",
              "type": "uint8"
            },
            {
              "internalType": "enum LibOrder.SaleKind",
              "name": "saleKind",
              "type": "uint8"
            },
            {
              "internalType": "address",
              "name": "maker",
              "type": "address"
            },
            {
              "components": [
                {
                  "internalType": "uint256",
                  "name": "tokenId",
                  "type": "uint256"
                },
                {
                  "internalType": "address",
                  "name": "collection",
                  "type": "address"
                },
                {
                  "internalType": "uint96",
                  "name": "amount",
                  "type": "uint96"
                }
              ],
              "internalType": "struct LibOrder.Asset",
              "name": "nft",
              "type": "tuple"
            },
            {
              "internalType": "Price",
              "name": "price",
              "type": "uint128"
            },
            {
              "internalType": "uint64",
              "name": "expiry",
              "type": "uint64"
            },
            {
              "internalType": "uint64",
              "name": "salt",
              "type": "uint64"
            }
          ],
          "internalType": "struct LibOrder.Order",
          "name": "buyOrder",
          "type": "tuple"
        }
      ],
      "name": "matchOrder",
      "outputs": [],
      "stateMutability": "payable",
      "type": "function"
    },
    {
      "inputs": [
        {
          "components": [
            {
              "internalType": "enum LibOrder.Side",
              "name": "side",
              "type": "uint8"
            },
            {
              "internalType": "enum LibOrder.SaleKind",
              "name": "saleKind",
              "type": "uint8"
            },
            {
              "internalType": "address",
              "name": "maker",
              "type": "address"
            },
            {
              "components": [
                {
                  "internalType": "uint256",
                  "name": "tokenId",
                  "type": "uint256"
                },
                {
                  "internalType": "address",
                  "name": "collection",
                  "type": "address"
                },
                {
                  "internalType": "uint96",
                  "name": "amount",
                  "type": "uint96"
                }
              ],
              "internalType": "struct LibOrder.Asset",
              "name": "nft",
              "type": "tuple"
            },
            {
              "internalType": "Price",
              "name": "price",
              "type": "uint128"
            },
            {
              "internalType": "uint64",
              "name": "expiry",
              "type": "uint64"
            },
            {
              "internalType": "uint64",
              "name": "salt",
              "type": "uint64"
            }
          ],
          "internalType": "struct LibOrder.Order",
          "name": "sellOrder",
          "type": "tuple"
        },
        {
          "components": [
            {
              "internalType": "enum LibOrder.Side",
              "name": "side",
              "type": "uint8"
            },
            {
              "internalType": "enum LibOrder.SaleKind",
              "name": "saleKind",
              "type": "uint8"
            },
            {
              "internalType": "address",
              "name": "maker",
              "type": "address"
            },
            {
              "components": [
                {
                  "internalType": "uint256",
                  "name": "tokenId",
                  "type": "uint256"
                },
                {
                  "internalType": "address",
                  "name": "collection",
                  "type": "address"
                },
                {
                  "internalType": "uint96",
                  "name": "amount",
                  "type": "uint96"
                }
              ],
              "internalType": "struct LibOrder.Asset",
              "name": "nft",
              "type": "tuple"
            },
            {
              "internalType": "Price",
              "name": "price",
              "type": "uint128"
            },
            {
              "internalType": "uint64",
              "name": "expiry",
              "type": "uint64"
            },
            {
              "internalType": "uint64",
              "name": "salt",
              "type": "uint64"
            }
          ],
          "internalType": "struct LibOrder.Order",
          "name": "buyOrder",
          "type": "tuple"
        },
        {
          "internalType": "uint256",
          "name": "msgValue",
          "type": "uint256"
        }
      ],
      "name": "matchOrderWithoutPayback",
      "outputs": [
        {
          "internalType": "uint128",
          "name": "costValue",
          "type": "uint128"
        }
      ],
      "stateMutability": "payable",
      "type": "function"
    },
    {
      "inputs": [
        {
          "components": [
            {
              "components": [
                {
                  "internalType": "enum LibOrder.Side",
                  "name": "side",
                  "type": "uint8"
                },
                {
                  "internalType": "enum LibOrder.SaleKind",
                  "name": "saleKind",
                  "type": "uint8"
                },
                {
                  "internalType": "address",
                  "name": "maker",
                  "type": "address"
                },
                {
                  "components": [
                    {
                      "internalType": "uint256",
                      "name": "tokenId",
                      "type": "uint256"
                    },
                    {
                      "internalType": "address",
                      "name": "collection",
                      "type": "address"
                    },
                    {
                      "internalType": "uint96",
                      "name": "amount",
                      "type": "uint96"
                    }
                  ],
                  "internalType": "struct LibOrder.Asset",
                  "name": "nft",
                  "type": "tuple"
                },
                {
                  "internalType": "Price",
                  "name": "price",
                  "type": "uint128"
                },
                {
                  "internalType": "uint64",
                  "name": "expiry",
                  "type": "uint64"
                },
                {
                  "internalType": "uint64",
                  "name": "salt",
                  "type": "uint64"
                }
              ],
              "internalType": "struct LibOrder.Order",
              "name": "sellOrder",
              "type": "tuple"
            },
            {
              "components": [
                {
                  "internalType": "enum LibOrder.Side",
                  "name": "side",
                  "type": "uint8"
                },
                {
                  "internalType": "enum LibOrder.SaleKind",
                  "name": "saleKind",
                  "type": "uint8"
                },
                {
                  "internalType": "address",
                  "name": "maker",
                  "type": "address"
                },
                {
                  "components": [
                    {
                      "internalType": "uint256",
                      "name": "tokenId",
                      "type": "uint256"
                    },
                    {
                      "internalType": "address",
                      "name": "collection",
                      "type": "address"
                    },
                    {
                      "internalType": "uint96",
                      "name": "amount",
                      "type": "uint96"
                    }
                  ],
                  "internalType": "struct LibOrder.Asset",
                  "name": "nft",
                  "type": "tuple"
                },
                {
                  "internalType": "Price",
                  "name": "price",
                  "type": "uint128"
                },
                {
                  "internalType": "uint64",
                  "name": "expiry",
                  "type": "uint64"
                },
                {
                  "internalType": "uint64",
                  "name": "salt",
                  "type": "uint64"
                }
              ],
              "internalType": "struct LibOrder.Order",
              "name": "buyOrder",
              "type": "tuple"
            }
          ],
          "internalType": "struct LibOrder.MatchDetail[]",
          "name": "matchDetails",
          "type": "tuple[]"
        }
      ],
      "name": "matchOrders",
      "outputs": [
        {
          "internalType": "bool[]",
          "name": "successes",
          "type": "bool[]"
        }
      ],
      "stateMutability": "payable",
      "type": "function"
    },
    {
      "inputs": [
        {
          "internalType": "address",
          "name": "",
          "type": "address"
        },
        {
          "internalType": "enum LibOrder.Side",
          "name": "",
          "type": "uint8"
        },
        {
          "internalType": "Price",
          "name": "",
          "type": "uint128"
        }
      ],
      "name": "orderQueues",
      "outputs": [
        {
          "internalType": "OrderKey",
          "name": "head",
          "type": "bytes32"
        },
        {
          "internalType": "OrderKey",
          "name": "tail",
          "type": "bytes32"
        }
      ],
      "stateMutability": "view",
      "type": "function"
    },
    {
      "inputs": [
        {
          "internalType": "OrderKey",
          "name": "",
          "type": "bytes32"
        }
      ],
      "name": "orders",
      "outputs": [
        {
          "components": [
            {
              "internalType": "enum LibOrder.Side",
              "name": "side",
              "type": "uint8"
            },
            {
              "internalType": "enum LibOrder.SaleKind",
              "name": "saleKind",
              "type": "uint8"
            },
            {
              "internalType": "address",
              "name": "maker",
              "type": "address"
            },
            {
              "components": [
                {
                  "internalType": "uint256",
                  "name": "tokenId",
                  "type": "uint256"
                },
                {
                  "internalType": "address",
                  "name": "collection",
                  "type": "address"
                },
                {
                  "internalType": "uint96",
                  "name": "amount",
                  "type": "uint96"
                }
              ],
              "internalType": "struct LibOrder.Asset",
              "name": "nft",
              "type": "tuple"
            },
            {
              "internalType": "Price",
              "name": "price",
              "type": "uint128"
            },
            {
              "internalType": "uint64",
              "name": "expiry",
              "type": "uint64"
            },
            {
              "internalType": "uint64",
              "name": "salt",
              "type": "uint64"
            }
          ],
          "internalType": "struct LibOrder.Order",
          "name": "order",
          "type": "tuple"
        },
        {
          "internalType": "OrderKey",
          "name": "next",
          "type": "bytes32"
        }
      ],
      "stateMutability": "view",
      "type": "function"
    },
    {
      "inputs": [],
      "name": "owner",
      "outputs": [
        {
          "internalType": "address",
          "name": "",
          "type": "address"
        }
      ],
      "stateMutability": "view",
      "type": "function"
    },
    {
      "inputs": [],
      "name": "pause",
      "outputs": [],
      "stateMutability": "nonpayable",
      "type": "function"
    },
    {
      "inputs": [],
      "name": "paused",
      "outputs": [
        {
          "internalType": "bool",
          "name": "",
          "type": "bool"
        }
      ],
      "stateMutability": "view",
      "type": "function"
    },
    {
      "inputs": [
        {
          "internalType": "address",
          "name": "",
          "type": "address"
        },
        {
          "internalType": "enum LibOrder.Side",
          "name": "",
          "type": "uint8"
        }
      ],
      "name": "priceTrees",
      "outputs": [
        {
          "internalType": "Price",
          "name": "root",
          "type": "uint128"
        }
      ],
      "stateMutability": "view",
      "type": "function"
    },
    {
      "inputs": [],
      "name": "protocolShare",
      "outputs": [
        {
          "internalType": "uint128",
          "name": "",
          "type": "uint128"
        }
      ],
      "stateMutability": "view",
      "type": "function"
    },
    {
      "inputs": [],
      "name": "renounceOwnership",
      "outputs": [],
      "stateMutability": "nonpayable",
      "type": "function"
    },
    {
      "inputs": [
        {
          "internalType": "uint128",
          "name": "newProtocolShare",
          "type": "uint128"
        }
      ],
      "name": "setProtocolShare",
      "outputs": [],
      "stateMutability": "nonpayable",
      "type": "function"
    },
    {
      "inputs": [
        {
          "internalType": "address",
          "name": "newVault",
          "type": "address"
        }
      ],
      "name": "setVault",
      "outputs": [],
      "stateMutability": "nonpayable",
      "type": "function"
    },
    {
      "inputs": [
        {
          "internalType": "address",
          "name": "newOwner",
          "type": "address"
        }
      ],
      "name": "transferOwnership",
      "outputs": [],
      "stateMutability": "nonpayable",
      "type": "function"
    },
    {
      "inputs": [],
      "name": "unpause",
      "outputs": [],
      "stateMutability": "nonpayable",
      "type": "function"
    },
    {
      "inputs": [
        {
          "internalType": "address",
          "name": "recipient",
          "type": "address"
        },
        {
          "internalType": "uint256",
          "name": "amount",
          "type": "uint256"
        }
      ],
      "name": "withdrawETH",
      "outputs": [],
      "stateMutability": "nonpayable",
      "type": "function"
    },
    {
      "stateMutability": "payable",
      "type": "receive"
    }
  ],
  "bytecode": "0x60a080604052346100245730608052615a8c90816200002a8239608051816104cd0152f35b600080fdfe6080604052600436101561001b575b361561001957600080fd5b005b60003560e01c80630b20b7bc146101bb5780631103f315146101b657806321c77c96146101b1578063307725d9146101ac578063366c39ed146101a75780633f4ba83a146101a2578063436a5ed61461019d5780634782f779146101985780635c975abb146101935780635d52957e1461018e5780635dcc7f9c146101895780636817031b14610184578063715018a61461017f5780637d910dac1461017a578063813e7c2a146101755780638456cb591461017057806384b0196e1461016b578063877edbff14610166578063882849c9146101615780638da5cb5b1461015c5780639c3f1e90146101575780639e09126c14610152578063e471ba461461014d578063e8f27e9514610148578063f2fde38b146101435763fe971c980361000e576117c8565b61179b565b61168d565b611643565b611613565b6115cc565b6114e3565b611465565b61113b565b61101c565b610eef565b610e3a565b610df6565b610d17565b610c95565b610a5e565b61081a565b6106a1565b61061b565b610602565b61051d565b6104a3565b610301565b61025d565b6101f7565b346101e75760203660031901126101e75760043560005260686020526020604060002054604051908152f35b600080fd5b60009103126101e757565b346101e75760003660031901126101e7576035546040516001600160801b039091168152602090f35b6020908160408183019282815285518094520193019160005b828110610247575050505090565b8351151585529381019392810192600101610239565b346101e75760203660031901126101e7576001600160401b036004358181116101e757366023820112156101e75780600401359182116101e7573660248360051b830101116101e7576102c29160246102b69201611e83565b60405191829182610220565b0390f35b6020908160408183019282815285518094520193019160005b8281106102ed575050505090565b8351855293810193928101926001016102df565b60203660031901126101e7576001600160401b036004358181116101e757366023820112156101e75780600401359182116101e75760248101906024369161012085020101116101e757610353611e28565b61035b611e53565b61036482611d20565b90600090815b8481106103b5576102c2846001600160801b03851634811061039c575b50610390611d0c565b604051918291826102c6565b6103a96103af9134611e1b565b33614a68565b82610387565b600060016103cc6103c7848987611d8d565b611da3565b6103d581610989565b14610424575b6103ef816103ea848987611d8d565b61251f565b806103fa8488611dee565b5261040f575b5061040a90611d68565b61036a565b61041d9061040a9294611e02565b9290610400565b5061047861044d61044160c061043b858a88611d8d565b01611dad565b6001600160801b031690565b61047261046660a0610460868b89611d8d565b01611dc8565b6001600160601b031690565b90611dd2565b6103db565b6101209060031901126101e757600490565b610120906101231901126101e75761012490565b6102603660031901126101e7576104b93661047d565b6104c23661048f565b6104ca611e28565b307f00000000000000000000000000000000000000000000000000000000000000006001600160a01b0316146101e75760209161050b916102443591612fd0565b6040516001600160801b039091168152f35b346101e75760003660031901126101e757610536611983565b6000805160206159f7833981519152805460ff8116156105825760ff191690557f5db9ee0a495bf2e6ff9c91a7834c1ba4fdd244a5e8aa4e537bd38aeae4b073aa6020604051338152a1005b604051638dfc202b60e01b8152600490fd5b6001600160a01b038116036101e757565b600211156101e757565b6001600160801b038116036101e757565b35906105cb826105af565b565b60609060031901126101e7576004356105e581610594565b906024356105f2816105a5565b906044356105ff816105af565b90565b346101e757602061050b610615366105cd565b91613930565b346101e75760403660031901126101e7577fab0f46966ebb6f17d26b8f6add4624e39fcfdeaccfeaba589d57f81cb5cb6666604060043561065b81610594565b602435610666611e53565b61066e611983565b6106788183614a68565b82516001600160a01b0390921682526020820152a16001600080516020615a1783398151915255005b346101e75760003660031901126101e757602060ff6000805160206159f783398151915254166040519015158152f35b634e487b7160e01b600052604160045260246000fd5b606081019081106001600160401b0382111761070257604052565b6106d1565b60e081019081106001600160401b0382111761070257604052565b6001600160401b03811161070257604052565b604081019081106001600160401b0382111761070257604052565b60a081019081106001600160401b0382111761070257604052565b90601f801991011681019081106001600160401b0382111761070257604052565b604051906105cb82610735565b60405190608082018281106001600160401b0382111761070257604052565b6001600160401b03811161070257601f01601f191660200190565b81601f820112156101e7578035906107ea826107b8565b926107f8604051948561076b565b828452602083830101116101e757816000926020809301838601378301015290565b346101e75760803660031901126101e757600435610837816105af565b6024359061084482610594565b6001600160401b03916044358381116101e7576108659036906004016107d3565b6064358481116101e75761087d9036906004016107d3565b91600080516020615a37833981519152549460ff8660401c1615951680159081610981575b6001149081610977575b15908161096e575b5061095c57600080516020615a37833981519152805467ffffffffffffffff191660011790556108e8938561093757611beb565b6108ee57005b600080516020615a37833981519152805460ff60401b19169055604051600181527fc7f505b2f371ae2175ee4913f4499e1f2633a7b5936321eed1cdaeb6115181d290602090a1005b600080516020615a37833981519152805460ff60401b1916600160401b179055611beb565b60405163f92ee8a960e01b8152600490fd5b905015386108b4565b303b1591506108ac565b8691506108a2565b6002111561099357565b634e487b7160e01b600052602160045260246000fd5b9061010060c06105cb9380516109be81610989565b845260208101516109ce81610989565b6020858101919091526040828101516001600160a01b039081168288015260608085015180519189019190915292830151166080808801919091529101516001600160601b031660a08601528101516001600160801b03168285015260a08101516001600160401b031660e085015201516001600160401b0316910152565b610120810192916105cb91906109a9565b346101e7576080806003193601126101e75760043590610a7d82610594565b6024359160443590610a8e826105a5565b60643592610a9b846105a5565b610aa36141ed565b94610aae84846138cb565b600190818614905b6001600160801b038116610ad3575b604051806102c28b82610a4d565b610af6610af182610aec8a610ae78b610daa565b610dde565b61162c565b61428f565b51805b610b30575b5088850151610b1790610441906001600160801b031681565b610b2b57610b26908787613930565b610ab6565b610ac5565b610b4a610b4f919992996000526000602052604060002090565b613e43565b610b5888610989565b8280610c83575b610c25575b610b6d88610989565b8280610c14575b610bcc575b80516001600160401b03610b9760a08301516001600160401b031690565b168015908115610bc2575b50610bb6575060200151805b989198610af9565b91989950509738610afe565b9050421038610ba2565b83610bd78251612865565b610be081610989565b1480610bf6575b15610b79576020015180610bae565b5083610c056020835101612865565b610c0e81610989565b14610be7565b50610c1e82610989565b8115610b74565b83610c308251612865565b610c3981610989565b1480610c65575b80610c55575b15610b64576020015180610bae565b5060608151015151851415610c46565b5083610c746020835101612865565b610c7d81610989565b14610c40565b50610c8d82610989565b838214610b5f565b346101e75760203660031901126101e757600435610cb281610594565b610cba611983565b6001600160a01b03168015610cdf57609b80546001600160a01b031916919091179055005b60405162461bcd60e51b815260206004820152601060248201526f48443a207a65726f206164647265737360801b6044820152606490fd5b346101e757600080600319360112610d8257610d31611983565b60008051602061597783398151915280546001600160a01b0319811690915581906001600160a01b03167f8be0079c531659141344cd1fd0a4f28419497f9722a3daafe3b4186f6b6457e08280a380f35b80fd5b60409060031901126101e757600435610d9d81610594565b906024356105ff816105a5565b6001600160a01b0316600090815260026020526040902090565b6001600160a01b0316600090815260016020526040902090565b90610de881610989565b600052602052604060002090565b346101e7576020610e0636610d85565b6001600160a01b03909116600090815260018352604090206001600160801b0391610e3091610dde565b5416604051908152f35b346101e75760203660031901126101e757600435610e57816105af565b610e5f611983565b6001600160801b03166103e88111610eaa57603580546001600160801b031916821790557f0b52884d4590055c8791518c34458834f75feed662340ef0b5af2898e7a9be9f600080a2005b60405162461bcd60e51b815260206004820152601d60248201527f504d3a20657863656564206d61782070726f746f636f6c2073686172650000006044820152606490fd5b346101e75760003660031901126101e757610f08611983565b610f10611e28565b6000805160206159f7833981519152600160ff198254161790557f62e78cea01bee320cd4e420270b5ea74000d11b0c9f74754ebdbfc544b05a2586020604051338152a1005b919082519283825260005b848110610f82575050826000602080949584010152601f8019910116010190565b602081830181015184830182015201610f61565b91610fc990949194600f60f81b8452610fbb60209660e08887015260e0860190610f56565b908482036040860152610f56565b92606083015260018060a01b03166080820152600060a082015260c081830391015281808451928381520193019160005b828110611008575050505090565b835185529381019392810192600101610ffa565b346101e75760003660031901126101e7577fa16a46d94261c7517cc8ff89f61c0ce93598e3c849801011dee649a6a557d1005415806110c4575b1561108757611063611aa9565b61106b611b5c565b906102c2611077611a47565b6040519384933091469186610f96565b60405162461bcd60e51b81526020600482015260156024820152741152540dcc4c8e88155b9a5b9a5d1a585b1a5e9959605a1b6044820152606490fd5b507fa16a46d94261c7517cc8ff89f61c0ce93598e3c849801011dee649a6a557d1015415611056565b92919060408401604085528151809152606085019060208093019060005b8482821061111c5750505050930152565b6101208561113086976001959697516109a9565b01940192910161110b565b346101e75760e03660031901126101e75760043561115881610594565b60443590602435611168836105a5565b60643592611175846105a5565b6084359060a43593611186856105af565b60c435928596849560009861119a8461423f565b986001600160801b039788821661143d575050506111b885856138cb565b909192965b899760019787891493895b6111dc575b604051806102c28f8f836110ed565b818116151580611434575b1561142f57611200610af182610aec8c610ae78d610daa565b518a856113ce575b61122c575b50906112208a9796959493928a8a613930565b909192939495966111c8565b809c9b9c1515806113c5575b156113bd57610b4a611254916000526000602052604060002090565b602090818101908151926001600160401b0361127b60a0845101516001600160401b031690565b1680151590816113b3575b50611379576112948d610989565b88806113a2575b611358575b6112a98d610989565b8880611346575b6112dd575b508e9f508d9e8d9e6112d292516112cc8383611dee565b52611dee565b50519d8b019b611208565b8d806112e98451612865565b6112f281610989565b149182611327575b505080611317575b61130c578f6112b5565b50508a9c9b9c611208565b5060608151015151891415611302565b611335919250835101612865565b61133e81610989565b148d386112fa565b506113508b610989565b8d8b146112b0565b8d6113638351612865565b61136c81610989565b1480611385575b156112a0575b5050508a9c9b9c611208565b508d61139382845101612865565b61139c81610989565b14611373565b506113ac8b610989565b8a1561129b565b9050421138611286565b9b9a9b61120d565b50838d10611238565b94855b6113df575b50600094611208565b90809592939495151580611425575b1561141a5761140c610b4a6020926000526000602052604060002090565b0151919493929190856113d1565b9094939291946113d6565b50818114156113ee565b6111cd565b50828b106111e7565b97919715611451575b5095909192966111bd565b61145e9197508686613930565b9538611446565b6102403660031901126101e75761147b3661047d565b6114a86114873661048f565b91611490611e28565b611498611e53565b6001600160801b03923491612fd0565b168034116114c5575b6001600080516020615a1783398151915255005b34033481116114de576114d89033614a68565b386114b1565b611d52565b346101e75760003660031901126101e757600080516020615977833981519152546040516001600160a01b039091168152602090f35b906105cb60405161152981610707565b60c060038295805460ff811661153e81610989565b855260ff8160081c1661155081610989565b602086015260101c6001600160a01b039081166040808701919091525190611577826106e7565b600183015482526002830154908116602083015260a01c6040820152606085015201546001600160801b0381166080840152608081901c6001600160401b031660a0840152811c6001600160401b0316910152565b346101e75760203660031901126101e7576004356000526000602052610140604060002060046115fb82611519565b91015461160b60405180936109a9565b610120820152f35b346101e757602061050b61162636610d85565b906138cb565b9060018060801b0316600052602052604060002090565b346101e757611673610aec611657366105cd565b929160018060a01b031660005260026020526040600020610dde565b805460019091015460408051928352602083019190915290f35b6020806003193601126101e7576001600160401b03906004358281116101e757366023820112156101e75780600401359283116101e75760248101906024369161014086020101116101e757916116e2611e28565b6116ea611e53565b6116f381611d20565b9260009283915b83831061174857858580341161172b575b6001600080516020615a1783398151915255604051806102c284826102c6565b3403903482116114de576117426102c29233614a68565b9061170b565b909192949361176f61175b8588856121f3565b3584611768878a876121f3565b01906128ae565b82959195018092116114de57611790919461178a8288611dee565b52611d68565b9190949293946116fa565b346101e75760203660031901126101e7576100196004356117bb81610594565b6117c3611983565b6119bc565b6020806003193601126101e7576001600160401b03906004358281116101e757366023820112156101e75780600401359283116101e75760248082019181369161024087020101116101e75761181c611e28565b611824611e53565b61182d84611d20565b92600094855b81811061186c576102c2866001600160801b038916348110611859575b506102b6611d0c565b6103a96118669134611e1b565b82611850565b611877818387612212565b61188a6001600160801b03891634611e1b565b9060008060409384516118c5816118b78b82019463366c39ed60e01b86528d89610120810191850161232a565b03601f19810183528261076b565b5190305af46118d2612352565b92811561194257506118fc916118f6610160926118ef878d611dee565b9015159052565b01612399565b6001600160a01b0316331461191b575b5061191690611d68565b611833565b611916919761193582868061193b955183010191016123a3565b90611e02565b969061190c565b7f050f709fb65709f10a27682788a9d67fe74de81b310b5c34e3d32f0e2c3ac557925061197b9150926119169493519182918583612382565b0390a1611d68565b600080516020615977833981519152546001600160a01b031633036119a457565b60405163118cdaa760e01b8152336004820152602490fd5b6001600160a01b03908116908115611a175760008051602061597783398151915280546001600160a01b031981168417909155167f8be0079c531659141344cd1fd0a4f28419497f9722a3daafe3b4186f6b6457e0600080a3565b604051631e4fbdf760e01b815260006004820152602490fd5b6001600160401b0381116107025760051b60200190565b604051602081018181106001600160401b038211176107025760405260008152906000368137565b90600182811c92168015611a9f575b6020831014611a8957565b634e487b7160e01b600052602260045260246000fd5b91607f1691611a7e565b6040519060008260008051602061595783398151915291825492611acc84611a6f565b908184526001948581169081600014611b395750600114611af6575b50506105cb9250038361076b565b9093915060005260209081600020936000915b818310611b215750506105cb93508201013880611ae8565b85548884018501529485019487945091830191611b09565b9150506105cb94506020925060ff191682840152151560051b8201013880611ae8565b6040519060008260008051602061599783398151915291825492611b7f84611a6f565b908184526001948581169081600014611b395750600114611ba85750506105cb9250038361076b565b9093915060005260209081600020936000915b818310611bd35750506105cb93508201013880611ae8565b85548884018501529485019487945091830191611bbb565b92909192611bf7611cdd565b611bff611cdd565b611c07611cdd565b611c0f611cdd565b611c17611cdd565b611c20336119bc565b611c28611cdd565b611c30611cdd565b6001600080516020615a1783398151915255611c4a611cdd565b611c52611cdd565b6000805160206159f7833981519152805460ff19169055611c71611cdd565b611c79611cdd565b611c81611cdd565b6001600160801b0316906103e88211610eaa57603580546001600160801b031916831790556105cb93611cd8927f0b52884d4590055c8791518c34458834f75feed662340ef0b5af2898e7a9be9f600080a26142ad565b61389e565b60ff600080516020615a378339815191525460401c1615611cfa57565b604051631afcd79f60e31b8152600490fd5b6001600080516020615a1783398151915255565b90611d2a82611a30565b611d37604051918261076b565b8281528092611d48601f1991611a30565b0190602036910137565b634e487b7160e01b600052601160045260246000fd5b60001981146114de5760010190565b634e487b7160e01b600052603260045260246000fd5b9190811015611d9e57610120020190565b611d77565b356105ff816105a5565b356105ff816105af565b6001600160601b038116036101e757565b356105ff81611db7565b6001600160801b0391821690821602908116919082036114de57565b8051821015611d9e5760209160051b010190565b6001600160801b0391821690821601919082116114de57565b919082039182116114de57565b60ff6000805160206159f78339815191525416611e4157565b60405163d93c066560e01b8152600490fd5b600080516020615a178339815191526002815414611e715760029055565b604051633ee5aeb560e01b8152600490fd5b90611e8c611e28565b611e94611e53565b611e9d81611d20565b9160005b828110611eb3575050506105ff611d0c565b8060051b820135906000611ed9611ed4846000526000602052604060002090565b611519565b6040818101805191956001600160a01b03949193909285163314806121bd575b1561217757611f0781614977565b90611f1181613e68565b508051611f1d81610989565b611f2681610989565b61203a57609b54611f4d90611f41906001600160a01b031681565b6001600160a01b031690565b85519091906060906001600160a01b031691015160208101519093906001600160a01b0316935199833b156120365790611f9d8692519b8c9687958694635243975360e01b8652600486016124b5565b03925af1928315612031576120139561200e94612018575b505b611fce826000526068602052600019604060002055565b9151600192166001600160a01b0316907f0ac8bb53fac566d7afc05d8b4df11d7690a7b27bdc40b54e4060f9b21fb849bd600080a35b6118ef8388611dee565b611d68565b611ea1565b8061202561202b92610722565b806101ec565b38611fb5565b6124a9565b8580fd5b6001819c9b9a9998929496959c5161205181610989565b61205a81610989565b14612076575b505050509661200e916120139495969798611fb7565b6060810151820151939b9495936120ee906120b8906001600160601b03166120a8876000526068602052604060002090565b54906001600160601b0316611e1b565b6120e961044161044160806120da611f41611f41609b5460018060a01b031690565b9601516001600160801b031690565b61286f565b85516001600160a01b031692823b156121735751630160928b60e31b8152600481019d909d5260248d01526001600160a01b039190911660448c015298999798969795968690606490829084905af1928315612031576120139561200e94612160575b81939a99989796839550612060565b8061202561216d92610722565b38612151565b8480fd5b61200e945061201396919350916121b56121aa60c06000805160206159b78339815191529501516001600160401b031690565b925192839283612490565b0390a1612004565b506121d2836000526068602052604060002090565b5460608201518801516121ed906001600160601b0316610466565b11611ef9565b9190811015611d9e57610140020190565b90600182018092116114de57565b9190811015611d9e57610240020190565b6040809180358452602081013561223981610594565b6001600160a01b03166020850152013561225281611db7565b6001600160601b0316910152565b6001600160401b038116036101e757565b35906105cb82612260565b8035612287816105a5565b61229081610989565b825260208101356122a0816105a5565b6122a981610989565b602083015260408101356122bc81610594565b6001600160a01b031660408301526122da6060808401908301612223565b60c08101356122e8816105af565b6001600160801b031660c083015260e081013561230481612260565b6001600160401b0380911660e08401526101008092013561232481612260565b16910152565b61234e610240929594936123438361026081019861227c565b61012083019061227c565b0152565b3d1561237d573d90612363826107b8565b91612371604051938461076b565b82523d6000602084013e565b606090565b6040906105ff939281528160208201520190610f56565b356105ff81610594565b908160209103126101e757516105ff816105af565b356105ff81612260565b809291039161012083126101e757604051906123dd82610707565b6060829482356123ec816105a5565b845260208301356123fc816105a5565b6020850152604083013561240f81610594565b6040850152605f1901126101e75761248b61010060c092604051612432816106e7565b60608201358152608082013561244781610594565b602082015260a082013561245a81611db7565b6040820152606086015261246f8482016105c0565b608086015261248060e08201612271565b60a086015201612271565b910152565b9081526001600160401b03909116602082015260400190565b6040513d6000823e3d90fd5b9081526001600160a01b03918216602082015291166040820152606081019190915260800190565b9391926124fb60c0949796929760e087019887526020870190612223565b6001600160801b031660808501526001600160401b0391821660a085015216910152565b9091906040810160008061253283612399565b6001600160a01b0392908316331480612845575b80612827575b806127e9575b806127c1575b1561277d575061257061256b36866123c2565b614977565b9561257a85611da3565b61258381610989565b6126c3575060016001600160601b0361259e60a08701611dc8565b16036126bc57609b546125bb90611f41906001600160a01b031681565b906125c584612399565b6125d160808701612399565b92803b156126b857606083886126018c604051988997889687956305f91a0f60e41b8752013592600486016124b5565b03925af18015612031576126a5575b505b61262461261f36856123c2565b613c16565b5060008051602061593783398151915261263d84611da3565b9161265361264d60208701611da3565b94612399565b6126a061266260c08801611dad565b61266e60e089016123b8565b61267b6101008a016123b8565b9161268588610989565b61268e89610989565b6060604051968796169a018c866124dd565b0390a4565b806120256126b292610722565b38612610565b8280fd5b9450505050565b9060016126cf86611da3565b6126d881610989565b146126e5575b5050612612565b6001600160601b036126f960a08701611dc8565b161561277557609b5461271690611f41906001600160a01b031681565b803b15612771576040516373d1ca7d60e11b8152600481018990526001600160801b039390931660248401819052839160449183915af180156120315761275e575b806126de565b8061202561276b92610722565b38612758565b5080fd5b955050505050565b95505050506000805160206159b7833981519152906127ac6101006127a561256b36856123c2565b92016123b8565b906127bc60405192839283612490565b0390a1565b506127e26127d261256b36886123c2565b6000526068602052604060002090565b5415612558565b5060e085016127f7816123b8565b426001600160401b0391821611918215612813575b5050612552565b61281e9192506123b8565b1615388061280c565b506001600160401b0361283d61010087016123b8565b16151561254c565b506001600160801b0361285d61044160c08801611dad565b161515612546565b516105ff81610989565b818102929181159184041417156114de57565b93909594919260809360a0860197865260208601526040850152606084015260018060a01b0316910152565b916000916000936128cc611ed4826000526000602052604060002090565b946020860151906128dc82610989565b60208401916128ea83611da3565b906128f482610989565b6128fd81610989565b14801590612e3b575b8015612e0b575b8015612dd7575b8015612dc4575b8015612d8c575b612d515760408085019361293585612399565b6001600160a01b03939084163314801590612d34575b8015612cf6575b8015612cdd575b612cac57612971826000526068602052604060002090565b549961297c81613e68565b50612994836000526068602052600019604060002055565b838101805190919086166001600160a01b0316847f0ac8bb53fac566d7afc05d8b4df11d7690a7b27bdc40b54e4060f9b21fb849bd8580a36129d961261f368b6123c2565b9b81516129e581610989565b6129ee81610989565b612ada575050609b54919291612a0f9150611f41906001600160a01b031681565b90813b156126b857835163650f14c560e11b81526004810191909152602481018b9052939291908490604490829084905af19283156120315760008051602061593783398151915293612ac7575b505b6126a0612a7d612a77612a7189611da3565b96611da3565b96612399565b91612a8a60c08901611dad565b612a9660e08a016123b8565b906060612aa66101008c016123b8565b93612ab08a610989565b612ab98b610989565b51968796169a018d866124dd565b80612025612ad492610722565b38612a5d565b60018251612ae781610989565b612af081610989565b14612b11575b50505050509060008051602061593783398151915291612a5f565b90612b52612b6192612b4d61046689989f9a996060612b3c610441608089015160018060801b031690565b96015101516001600160601b031690565b611e1b565b906001600160801b031661286f565b90612b876104418a61047261046660a0612b8061044160c08601611dad565b9301611dc8565b9582871115612c2e5750612b9b8287611e1b565b9a612bc4612bb6611f41611f41609b5460018060a01b031690565b92516001600160a01b031690565b823b15612173578d91612bee8e9288519a8b97889687956305f852cf60e51b875260048701612882565b03925af19283156120315760008051602061593783398151915293612c1b575b505b909138808080612af6565b80612025612c2892610722565b38612c0e565b9a612c49612bb6611f41611f41609b5460018060a01b031690565b823b15612173578d91612c73869288519a8b97889687956305f852cf60e51b875260048701612882565b03925af19283156120315760008051602061593783398151915293612c99575b50612c10565b80612025612ca692610722565b38612c93565b98509350936000805160206159b7833981519152959650612cd692506121aa9150610100016123b8565b0390a18190565b50612cee6127d261256b368a6123c2565b541515612959565b5060e08701612d04816123b8565b426001600160401b03918216109182612d1f575b5050612952565b612d2a9192506123b8565b1615153880612d18565b506001600160401b03612d4a61010089016123b8565b161561294b565b956000805160206159b7833981519152949550612d7c92935060c0915001516001600160401b031690565b90612cd660405192839283612490565b50612da1836000526068602052604060002090565b54606088015160400151612dbd906001600160601b0316610466565b1115612922565b506060870151516060850135141561291b565b506060870151602001516001600160a01b0316612df9611f4160808701612399565b6001600160a01b039091161415612914565b5060408701516001600160a01b0316612e29611f4160408701612399565b6001600160a01b03909116141561290d565b508651612e4781610989565b612e5085611da3565b90612e5a82610989565b612e6381610989565b1415612906565b15612e7157565b60405162461bcd60e51b815260206004820152601a60248201527948443a20627579207072696365203c2066696c6c20707269636560301b6044820152606490fd5b9081526001600160801b0390911660208201526001600160a01b03909116604082015260600190565b15612ee357565b60405162461bcd60e51b815260206004820152601660248201527548443a2076616c7565203c2066696c6c20707269636560501b6044820152606490fd5b9192612f46610240929594612f3b8561026081019861227c565b61012085019061227c565b6001600160801b0316910152565b6001600160801b0391821690821603919082116114de57565b15612f7457565b60405162461bcd60e51b815260206004820152600d60248201526c048443a2076616c7565203e203609c1b6044820152606490fd5b6001600160a01b0391821681529116602082015260a0810192916105cb9160400190612223565b929190600093600091612fe661256b36846123c2565b91612ff461256b36846123c2565b94613014868561300436866123c2565b61300e36886123c2565b906136fd565b60409586830191613027611f4184612399565b33036132a1576130379015612f6d565b60008581526020819052604090206001600160a01b0390613063905b5460101c6001600160a01b031690565b161515809161307b8261307636886123c2565b614829565b61309a613095611ed4836000526000602052604060002090565b614738565b6130a961044160c08801611dad565b91613276575b6130d5816130d06130ca826000526068602052604060002090565b54612204565b61488e565b80876000805160206159d78339815191528b51806130f5878c8c84612f21565b0390a3609b5461310f90611f41906001600160a01b031681565b90813b156132725761313d89939284928c51958680948193630160928b60e31b835288309160048501612eb3565b03925af1918215612031576131859261325f575b5060355461317f9061044190613170906001600160801b031684613882565b61317987612399565b93612f54565b90614a68565b156132095750609b546131af9086906131a890611f41906001600160a01b031681565b9301612399565b926131bc60808301612399565b95833b1561203657916131eb86926060945198899788968795635243975360e01b8752013592600486016124b5565b03925af18015612031576131fc5750565b806120256105cb92610722565b919492506132328361322b61264d611f41611f41609b5460018060a01b031690565b9601612399565b92823b156121735751632f58639d60e11b81529485938492869284926131eb926060019160048501612fa9565b8061202561326c92610722565b38613151565b8880fd5b61328861328336876123c2565b613e68565b5061329c876130d061046660a08901611dc8565b6130af565b968481969597999a5093929301926132bb611f4185612399565b330361354a5782908560018060a01b036132e2613053866000526000602052604060002090565b161593841599613302613095611ed4856000526000602052604060002090565b6133108b61307636846123c2565b61331f61044160c08301611dad565b9b61332f61044160c08801611dad565b9615613479576133b4956000805160206159d7833981519152929091613360906001600160801b038a161115612edc565b613373856130d061046660a08601611dc8565b613382888d5193849384612f21565b0390a360355461317f90610441906133ad906133a7906001600160801b031687613882565b93612399565b9285612f54565b6001600160801b0381811690881611613459575b50609b546133ea906133e490611f41906001600160a01b031681565b92612399565b926133f760808301612399565b94833b156132725751635243975360e01b8152948894869493859387938593613428936060013592600486016124b5565b03925af1801561203157613446575b5015613441575090565b905090565b8061202561345392610722565b38613437565b6134739061317f61044161346c86612399565b928a612f54565b386133c8565b5092935090506134976001600160801b03858116908c161015612e6a565b609b546134ae90611f41906001600160a01b031681565b803b1561354657908b6134dd819594938d8c51978880948193630160928b60e31b835230908960048501612eb3565b03925af1938415612031578689936000805160206159d7833981519152926133b497613533575b5061351261328336836123c2565b5061352e846130d06130ca826000526068602052604060002090565b613360565b8061202561354092610722565b38613504565b8b80fd5b855162461bcd60e51b815260206004820152601260248201527112110e881cd95b99195c881a5b9d985b1a5960721b6044820152606490fd5b1561358a57565b60405162461bcd60e51b815260206004820152600e60248201526d24221d1039b0b6b29037b93232b960911b6044820152606490fd5b156135c757565b60405162461bcd60e51b8152602060048201526011602482015270090887440e6d2c8ca40dad2e6dac2e8c6d607b1b6044820152606490fd5b1561360757565b60405162461bcd60e51b8152602060048201526011602482015270090887440d6d2dcc840dad2e6dac2e8c6d607b1b6044820152606490fd5b1561364757565b60405162461bcd60e51b815260206004820152600e60248201526d24221d1039b0b6b29036b0b5b2b960911b6044820152606490fd5b1561368457565b60405162461bcd60e51b8152602060048201526012602482015271090887440c2e6e6cae840dad2e6dac2e8c6d60731b6044820152606490fd5b156136c557565b60405162461bcd60e51b815260206004820152601060248201526f12110e881bdc99195c8818db1bdcd95960821b6044820152606490fd5b6137d6610466604060606137c46105cb989761371b89821415613583565b865161372681610989565b61372f81610989565b1580613860575b61373f906135c0565b6137616001602089015161375281610989565b61375b81610989565b14613600565b868401516127d2906001600160a01b03168986015161379e9061378c906001600160a01b0316611f41565b6001600160a01b039283161415613640565b60208a01516137ac81610989565b6137b581610989565b1590811561380e575b5061367d565b5494015101516001600160601b031690565b1191826137e5575b50506136be565b613806919250604060606137c4610466936000526068602052604060002090565b1138806137de565b8986015160208101519092506001600160a01b03168b8701516020810151909290613841906001600160a01b0316611f41565b9116149182613853575b5050386137be565b519051149050388061384b565b5061373f6001895161387181610989565b61387a81610989565b149050613736565b612710916001600160801b03916138999190611dd2565b160490565b6138a6611983565b6001600160a01b03168015610cdf57609b80546001600160a01b031916919091179055565b6138d482610989565b60006001830361390857506001600160a01b031660009081526001602052604090206105ff9161390391610dde565b614b05565b6001600160a01b0390911681526001602052604090206105ff9161392b91610dde565b614ab3565b6001600160801b03838116613974575090915061394c82610989565b60018203613964576105ff91610ae761390392610dc4565b6105ff91610ae761392b92610dc4565b61397d83610989565b600160008482036139a1575050506105ff9291610ae761399c92610dc4565b614b57565b91936139bf919360018060a01b031683528360205260408320610dde565b92849150828401946139f46139e6856139d8848a61162c565b01546001600160801b031690565b6001600160801b0316151590565b15613a12575050906139d8613a0c926105ff9561162c565b906150bf565b8395939450613a27613a34918594939461162c565b546001600160801b031690565b945b613a42575b5050505090565b81859394951615159081613a79575b5015613a7257908391613a67613a27838661162c565b949392919091613a36565b8193613a3b565b905081613a90610441610441886139d8888a61162c565b91161438613a51565b80546001600160801b0319166001600160801b03909216919091179055565b906020600491613c0f81518051613ace81610989565b613ad781610989565b60ff875491168060ff19831617885561ff0086840151613af681610989565b613aff81610989565b60081b169161ffff191617178655613b47613b23604083015160018060a01b031690565b875462010000600160b01b03191660109190911b62010000600160b01b0316178755565b606081015180516001880155602081015160409091015160a01b6001600160a01b0319166001600160a01b039190911617600287015560808101516003870191613bef9160c09190613ba2906001600160801b031685613a99565b613be1613bb960a08301516001600160401b031690565b855467ffffffffffffffff60801b191660809190911b67ffffffffffffffff60801b16178555565b01516001600160401b031690565b81546001600160c01b031660c09190911b6001600160c01b031916179055565b0151910155565b90613c2082614977565b9160018060a01b03613c3f613053856000526000602052604060002090565b16613e2a5760608101805160209081015185939290613c7b90613c6f906001600160a01b0316610dc4565b610dc4565b845190610ae782610989565b608084018051909190613c9f90613c9b906001600160801b031683614c2a565b1590565b613e0e575b5081518301518390613ce990613cd790613ccb906001600160a01b0316610daa565b610daa565b875190610ae782610989565b83516001600160801b03165b9061162c565b92835415613d68575b505050600181019081548015600014613d3957509360009291816105cb965555613d1a61078c565b928352820152613d34846000526000602052604060002090565b613ab8565b6000915092856004613d5b613d65969795976000526000602052604060002090565b0155613d1a61078c565b55565b613e069350613dec613cc6613ce393613df893613ddd613d8661078c565b6000808252848201528251840151613dcc90613dbc908e90613db0906001600160a01b0316610daa565b905190610ae782610989565b8a516001600160801b0316613ce3565b906020600191805184550151910155565b5101516001600160a01b031690565b865190610ae782610989565b91516001600160801b031690565b388281613cf2565b8151613e2491906001600160801b031690614d04565b38613ca4565b604051630c56ca8160e31b815260048101849052602490fd5b90604051613e5081610735565b602060048294613e5f81611519565b84520154910152565b9060609081830192602091613e99613e8d613cc68588510160018060a01b0390511690565b835190610ae782610989565b608083018051909591613eb4916001600160801b0316613ce3565b9586549260009687945b801515806141e5575b156140f3578781613ee6610b4a8d946000526000602052604060002090565b9a8b9889516040858d613f17611f4184613f088188015160018060a01b031690565b9301516001600160a01b031690565b6001600160a01b039091161492836140bc575b50508c8c83614087575b83614037575b505081614026575b8a8c83613fef575b505050600014613fe057509181613fb39382613f95949b83885414600014613fc157015186555b600180960182815414613fb9575b50509b0151976000526000602052604060002090565b60046000918281558260018201558260028201558260038201550155565b94613ebe565b553880613f7f565b01516004613fd9836000526000602052604060002090565b0155613f71565b98505090915098015194613fb3565b5101518101518a51909101516001600160601b0391821692506140129116610466565b6001600160601b0390911614388a8c613f4a565b8b518b0151518a5151149150613f42565b6001600160401b039192935061407061407c9161406160c0809251016001600160401b0390511690565b9401516001600160401b031690565b6001600160401b031690565b911614908c8c613f3a565b6001600160401b03919293506140706140b19161406160a0809251016001600160401b0390511690565b911614908c8c613f34565b01519091506140ca81610989565b858d0151906140d882610989565b6140e182610989565b6140ea81610989565b14908538613f2a565b989295949197509592506000146141a2575415614111575b50505050565b613c6a8184613ddd61415861414861413c613cc6613db0986141649b510160018060a01b0390511690565b885190610ae782610989565b89516001600160801b0316613ce3565b60016000918281550155565b8151614179906001600160801b031682614c2a565b614185575b808061410b565b905161419b91906001600160801b031690614e3b565b388061417e565b60405162461bcd60e51b815260206004820152601b60248201527a21b0b73737ba103932b6b7bb329036b4b9b9b4b7339037b93232b960291b6044820152606490fd5b508515613ec7565b604051906141fa82610707565b8160c060009182815282602082015282604082015260405161421b816106e7565b83815283602082015283604082015260608201528260808201528260a08201520152565b9061424982611a30565b614256604051918261076b565b8281528092614267601f1991611a30565b019060005b82811061427857505050565b6020906142836141ed565b8282850101520161426c565b9060405161429c81610735565b602060018294805484520154910152565b91906142b7611cdd565b6142bf611cdd565b6142c7611cdd565b6142cf611cdd565b82516001600160401b0381116107025760008051602061595783398151915290614302816142fd8454611a6f565b614438565b602080601f831160011461439e575081906143399596600092614393575b50508160011b916000199060031b1c19161790556144fa565b61436260007fa16a46d94261c7517cc8ff89f61c0ce93598e3c849801011dee649a6a557d10055565b61438b60007fa16a46d94261c7517cc8ff89f61c0ce93598e3c849801011dee649a6a557d10155565b6105cb611cdd565b015190503880614320565b600080516020615957833981519152600052601f198316969091907f42ad5d3e1f2e6e70edcf6d991b8a3023d3fca8047a131592f9edb9fd9b89d57d926000905b89821061442057505090839291600194614339989910614407575b505050811b0190556144fa565b015160001960f88460031b161c191690553880806143fa565b806001859682949686015181550195019301906143df565b601f8111614444575050565b600090600080516020615957833981519152825260208220906020601f850160051c8301941061448f575b601f0160051c01915b82811061448457505050565b818155600101614478565b909250829061446f565b601f81116144a5575050565b600090600080516020615997833981519152825260208220906020601f850160051c830194106144f0575b601f0160051c01915b8281106144e557505050565b8181556001016144d9565b90925082906144d0565b9081516001600160401b038111610702576000805160206159978339815191529061452e816145298454611a6f565b614499565b602080601f831160011461456a57508192939460009261455f575b50508160011b916000199060031b1c1916179055565b015190503880614549565b600080516020615997833981519152600052601f198316959091907f5f9ce34815f8e11431c7bb75a8e6886a91478f7ffc1dbb0a98dc240fddd76b75926000905b8882106145e3575050836001959697106145ca575b505050811b019055565b015160001960f88460031b161c191690553880806145c0565b806001859682949686015181550195019301906145ab565b1561460257565b60405162461bcd60e51b815260206004820152600f60248201526e27ab309d1036b4b9b99036b0b5b2b960891b6044820152606490fd5b1561464057565b60405162461bcd60e51b815260206004820152600c60248201526b13d5984e88195e1c1a5c995960a21b6044820152606490fd5b1561467b57565b60405162461bcd60e51b815260206004820152600e60248201526d13d5984e881e995c9bc81cd85b1d60921b6044820152606490fd5b156146b857565b60405162461bcd60e51b815260206004820152600f60248201526e4f56613a207a65726f20707269636560881b6044820152606490fd5b156146f657565b60405162461bcd60e51b815260206004820152601a60248201527913d5984e881d5b9cdd5c1c1bdc9d1959081b999d08185cdcd95d60321b6044820152606490fd5b6040810151614755906001600160a01b039081165b1615156145fb565b6147a06001600160401b036147898161477860a08601516001600160401b031690565b16801590811561481f575b50614639565b60c08301516001600160401b03165b161515614674565b80516147ab81610989565b6147b481610989565b6147dd5760600151602001516105cb906147d6906001600160a01b0316611f41565b15156146ef565b600181516147ea81610989565b6147f381610989565b146147fb5750565b608001516105cb906001600160801b0390614817908216610441565b1615156146b1565b9050421038614783565b6040810151909190614845906001600160a01b0390811661474d565b1561486a575b6147a06001600160401b0361479860c08401516001600160401b031690565b6148896001600160401b0361477860a08401516001600160401b031690565b61484b565b9060001982146148a8576000526068602052604060002055565b60405162461bcd60e51b815260206004820152600d60248201526c13d5984e8818d85b98d95b1959609a1b6044820152606490fd5b959492909160769794927f7e112775c49cc2f5d597cc604eac1616afa66ee95cc7c4d46a97ca90b539ca33885261491381610989565b60f81b602088015261492481610989565b60f81b602187015260601b6001600160601b0319166022860152603685015260801b6001600160801b031916605684015260c091821b6001600160c01b03199081166066850152911b16606e8201520190565b80519061498382610989565b614a62602082015161499481610989565b6118b760018060a01b03938460408201511694606082015180519160208201511690604060018060601b03910151166040519160208301937f631e462bf410c643f967c13284911d970aa0a06097a11e4a1a7ad9549175d78a855260408401526060830152608082015260808152614a0b81610750565b5190206080820151909190614a28906001600160801b0316610441565b614a5060c0614a4160a08501516001600160401b031690565b9301516001600160401b031690565b92604051978896602088019a8b6148dd565b51902090565b600080809381935af115614a7857565b60405162461bcd60e51b815260206004820152601360248201527211551217d514905394d1915497d19052531151606a1b6044820152606490fd5b80546001600160801b03169081614ac8575090565b9190915b60018101614ada848261162c565b5490608091821c15614b00576001929394614af49161162c565b54901c92919050614acc565b505050565b80546001600160801b03908116929183614b1d575050565b9190925b6001908184018583614b33848461162c565b01541615614b4f57859291614b479161162c565b015416614b21565b509350509050565b906001600160801b0380821615614c1857600180840191614b856139e6614b7e868661162c565b5460801c90565b15614ba3575050614b7e6105ff9392614b9d9261162c565b906150f7565b9094935082614bb6613a2787958561162c565b955b614bc25750505050565b818692939594961615159081614bf9575b5015614bf157614be6613a27828661162c565b949293919083614bb8565b93829361410b565b905082614c0f610441610441614b7e868a61162c565b91161438614bd3565b604051631b67230f60e31b8152600490fd5b6001600160801b03828116801515939084614c46575050505090565b8354831614935090918315614c62575b50505038808080613a3b565b614c7092935060010161162c565b54161515388080614c56565b80546001600160801b031660809290921b6001600160801b031916919091179055565b805460ff60801b191660809290921b60ff60801b16919091179055565b60ff60606105cb93614cfb6001808060801b0395614cdd8785511682613a99565b614ced8760208601511682614c7c565b019460408301511685613a99565b01511690614c9f565b90916001600160801b0390818416908115614e2957614d238585614c2a565b614e17578354600095906001600160801b03165b848116968715614d7d575080968410600014614d6557614b7e614d5d916001880161162c565b955b95614d37565b614d77906139d860019182890161162c565b95614d5f565b9296505080936105cb9593614d90610799565b6001600160801b0385168152916000602084015260006040840152614db86060840160019052565b614dcf6001870193614dca868661162c565b614cbc565b84169081614dea57505050614de5915082613a99565b615136565b1015614e0257614de592614dfd9161162c565b614c7c565b614e11614de59360019261162c565b01613a99565b604051638caa2ccf60e01b8152600490fd5b604051631866497960e01b8152600490fd5b6001600160801b03919082821680156150ad57614e5b613c9b8484614c2a565b61509b5760019384830193614e83614e76614b7e838861162c565b6001600160801b03161590565b8015615084575b1561502c57916105cb959391836141589694955b614eae6139e6614b7e898961162c565b1561501857614ec0614b7e888861162c565b935b614ecf613a27898961162c565b614ee281614edd888b61162c565b613a99565b8583898388161561500b57610441610441614b7e86614f009461162c565b8b881603614ff95750614dfd614f16928a61162c565b8160ff614f3282614f278c8c61162c565b015460801c60ff1690565b16141593881603614f5c575b5050614f4c575b505061162c565b614f55916155d3565b3880614f45565b95819296614f6e614ff193838861555f565b614f88614f7e614b7e868a61162c565b614dfd848a61162c565b614fa282614edd614f9c614b7e838c61162c565b8a61162c565b614fbe614fb3826139d8878b61162c565b82614e11858b61162c565b614fd382614edd614f9c846139d8848d61162c565b614feb614fe482614f27878b61162c565b928861162c565b01614c9f565b933880614f3e565b614e11615006938b61162c565b614f16565b5050615006915087613a99565b615026816139d8898961162c565b93614ec2565b8561503b816139d8848961162c565b965b615054575b916141589593916105cb979593614e9e565b956150656139e6614b7e838961162c565b1561507e57615078614b7e88928861162c565b9661503d565b95615042565b50615096614e76876139d8848961162c565b614e8a565b6040516326549d1560e11b8152600490fd5b60405163f482157960e01b8152600490fd5b600181016150cd838261162c565b5490608091821c156150f157600192936150e69161162c565b54901c9190506150bf565b50505090565b905b6001600160801b03906001908382018383615114848461162c565b0154161561512e57906151269161162c565b0154166150f9565b509250505090565b80546001600160801b0392808416916151529061044190861681565b82141580615384575b156153635760019384840191615174613a27828561162c565b93615194610441610441614b7e61518e613a278a8a61162c565b8861162c565b858416036152ab57506151b7866139d86151b1613a27888861162c565b8661162c565b918660ff6151c982614f27878961162c565b160361523857505090610aec85615208816151f487966151b16152329a9b6151f4613a279b8a61162c565b01805460ff60801b1916600160811b179055565b61521e615218613a27868661162c565b8461162c565b01805460ff60801b1916600160801b179055565b90615136565b9095939150615251610441610441866139d8868861162c565b9086161461528b575b50613a27614de59282610aec615276613a27896152859761162c565b92615208816151f4868661162c565b82615482565b9350613a27614de592615285926152a287876153a7565b9250925061525a565b91506152c6614b7e6152c0613a27878761162c565b8561162c565b918660ff6152d882614f27878961162c565b160361530357505090610aec85615208816151f487966151b16152329a9b6151f4613a279b8a61162c565b909593915061531b610441610441614b7e858761162c565b14615343575b50613a27614de59282610aec615276613a278961533d9761162c565b826153a7565b9350613a27614de59261533d9261535a8787615482565b92509250615321565b505080546105cb92506001916151f4916001600160801b031690830161162c565b50600160ff6153a082614f27818801613ce3613a27888361162c565b161461515b565b614edd6105cb92600183016153c160016139d8848461162c565b93846153d0613a27858561162c565b916153de614b7e838661162c565b6153ee816001614e11898961162c565b6001600160801b03908681831661546e575b505061541084614edd858861162c565b83811661543057506154229250613a99565b610aec82614dfd868461162c565b9050615445610441610441614b7e868861162c565b9085160361545f57614dfd61545a928461162c565b615422565b6001614e1161545a938561162c565b614edd61547b928861162c565b3886615400565b614edd6105cb926001830161549a614b7e838361162c565b93846154a9613a27858561162c565b916154b960016139d8848761162c565b6154c781614dfd888861162c565b6001600160801b03908681831661554b575b50506154e984614edd858861162c565b83811661550b57506154fb9250613a99565b610aec826001614e11878561162c565b905061552261044161044160016139d8878961162c565b9085160361553e576001614e11615539938561162c565b6154fb565b614dfd615539928461162c565b614edd615558928861162c565b38866154d9565b6001600160801b0392600182019084615578828461162c565b54169461558986614edd878661162c565b8561559b575050506105cb9250613a99565b909192506155a9858461162c565b5460801c9116146000146155c4576105cb92614dfd9161162c565b614e116105cb9360019261162c565b905b81546001600160801b03828116916155ef91610441911681565b81141580615919575b1561590757600161560f613a27828601948561162c565b91615623610441610441614b7e868861162c565b036157a457615636816139d8848661162c565b928160ff61564882614f27888661162c565b1614615769575b8161566d61566782614f276151b1614b7e8a8861162c565b60ff1690565b141580615748575b1561569057615688929361521e9161162c565b905b906155d5565b906151f4828583806156b661566782614f2761518e826139d86156ed9f61533d9e61162c565b036156ff575b6139d8613ce3926156df6156d484614f278c8961162c565b84614feb848961162c565b615218836151f48b8861162c565b80546001600160801b03165b9061568a565b9061571761572b926151f46151b1614b7e858861162c565b6157258561521e838661162c565b88615482565b613ce3836139d8615740826139d88a8761162c565b9250506156bc565b508161576261566782614f276151b1826139d88b8961162c565b1415615675565b92816151f4615778928661162c565b6157868161521e848661162c565b61579082856153a7565b61579e816139d8848661162c565b9261564f565b6157b1614b7e838561162c565b928160ff6157c382614f27888661162c565b16146158cd575b816157e361566782614f276151b1826139d88b8961162c565b1415806158ad575b156157fe576156f9929361521e9161162c565b906151f482858361582861566782614f27615822614b7e6156ed9d6152859c61162c565b8761162c565b03615865575b614b7e613ce39161585161584687614f278b8861162c565b87614feb848861162c565b61585f866151f48a8761162c565b8361162c565b8061587e856151f46151b1826139d8615892978961162c565b61588c8561521e838661162c565b886153a7565b613ce3614b7e6158a5614b7e888561162c565b91505061582e565b50816158c661566782614f276151b1614b7e8a8861162c565b14156157eb565b92816151f46158dc928661162c565b6158ea8161521e848661162c565b6158f48285615482565b615901614b7e838561162c565b926157ca565b506151f4600191826105cb940161162c565b50600160ff61592e82614f278682890161162c565b1614156155f856fefc37f2ff950f95913eb7182357ba3c14df60ef354bc7d6ab1ba2815f249fffe6a16a46d94261c7517cc8ff89f61c0ce93598e3c849801011dee649a6a557d1029016d09d72d40fdae2fd8ceac6b6234c7706214fd39c1cd1e609a0528c199300a16a46d94261c7517cc8ff89f61c0ce93598e3c849801011dee649a6a557d10343d1f368251ebe03c021962d50212d072e7ccee5c8ad3f541d93d0dc43bbd420f629aecab94607bc43ce4aebd564bf6e61c7327226a797b002de724b9944b20ecd5ed15c6e187e77e9aee88184c21f4f2182ab5827cb3b7e07fbedcd63f033009b779b17422d0df92223018b32b4d1fa46e071723d6817e2486d003becc55f00f0c57e16840df040f15088dc2f81fe391c3923bec73e23a9662efc9c229c6a00a264697066735822122004d318d2c7f8bc662203a509567620ba072e1290feda6e6d1217ab842779c1a964736f6c63430008140033",
  "linkReferences": {},
  "deployedLinkReferences": {}
}